{
  "_format": "hh-sol-artifact-1",
  "contractName": "ChildTunnel",
  "sourceName": "contracts/ChildTunnel.sol",
  "abi": [
    {
      "inputs": [
        {
          "internalType": "address",
          "name": "_fxChild",
          "type": "address"
        },
        {
          "internalType": "address",
          "name": "childTokenAddress_",
          "type": "address"
        }
      ],
      "stateMutability": "nonpayable",
      "type": "constructor"
    },
    {
      "anonymous": false,
      "inputs": [
        {
          "indexed": false,
          "internalType": "bytes",
          "name": "message",
          "type": "bytes"
        }
      ],
      "name": "MessageSent",
      "type": "event"
    },
    {
      "inputs": [],
      "name": "DEPOSIT",
      "outputs": [
        {
          "internalType": "bytes32",
          "name": "",
          "type": "bytes32"
        }
      ],
      "stateMutability": "view",
      "type": "function"
    },
    {
      "inputs": [],
      "name": "fxChild",
      "outputs": [
        {
          "internalType": "address",
          "name": "",
          "type": "address"
        }
      ],
      "stateMutability": "view",
      "type": "function"
    },
    {
      "inputs": [],
      "name": "fxRootTunnel",
      "outputs": [
        {
          "internalType": "address",
          "name": "",
          "type": "address"
        }
      ],
      "stateMutability": "view",
      "type": "function"
    },
    {
      "inputs": [
        {
          "internalType": "uint256",
          "name": "stateId",
          "type": "uint256"
        },
        {
          "internalType": "address",
          "name": "rootMessageSender",
          "type": "address"
        },
        {
          "internalType": "bytes",
          "name": "data",
          "type": "bytes"
        }
      ],
      "name": "processMessageFromRoot",
      "outputs": [],
      "stateMutability": "nonpayable",
      "type": "function"
    },
    {
      "inputs": [
        {
          "internalType": "address",
          "name": "_fxRootTunnel",
          "type": "address"
        }
      ],
      "name": "setFxRootTunnel",
      "outputs": [],
      "stateMutability": "nonpayable",
      "type": "function"
    },
    {
      "inputs": [
        {
          "internalType": "address",
          "name": "childToken",
          "type": "address"
        },
        {
          "internalType": "uint256",
          "name": "tokenId",
          "type": "uint256"
        }
      ],
      "name": "withdraw",
      "outputs": [],
      "stateMutability": "nonpayable",
      "type": "function"
    }
  ],
  "bytecode": "0x608060405234801561001057600080fd5b506040516109d73803806109d783398101604081905261002f9161007c565b600080546001600160a01b039384166001600160a01b031991821617909155600280549290931691161790556100ae565b80516001600160a01b038116811461007757600080fd5b919050565b6000806040838503121561008e578182fd5b61009783610060565b91506100a560208401610060565b90509250929050565b61091a806100bd6000396000f3fe608060405234801561001057600080fd5b50600436106100625760003560e01c8063450d11f0146100675780637f1e9cb014610085578063888370941461008d5780639a7c4b71146100a2578063d81c8e52146100b5578063f3fef3a3146100ca575b600080fd5b61006f6100dd565b60405161007c91906106eb565b60405180910390f35b61006f6100ec565b6100a061009b3660046104e6565b6100fb565b005b6100a06100b036600461063b565b61014f565b6100bd6101c0565b60405161007c919061074c565b6100a06100d83660046105b8565b6101e4565b6000546001600160a01b031681565b6001546001600160a01b031681565b6001546001600160a01b03161561012d5760405162461bcd60e51b815260040161012490610840565b60405180910390fd5b600180546001600160a01b0319166001600160a01b0392909216919091179055565b6000546001600160a01b031633146101795760405162461bcd60e51b815260040161012490610768565b6101ba848484848080601f0160208091040260200160405190810160405280939291908181526020018383808284376000920191909152506101f292505050565b50505050565b7f87a7811f4bfedea3d341ad165680ae306b01aaeacc205d227629cf157dd9f82181565b6101ee8282610316565b5050565b60015482906001600160a01b038083169116146102215760405162461bcd60e51b8152600401610124906107a9565b6000808380602001905181019061023891906105e3565b915091507f87a7811f4bfedea3d341ad165680ae306b01aaeacc205d227629cf157dd9f8218214156102f65760008060008380602001905181019061027d9190610525565b60025460405163ba7aef4360e01b815293985091965094506001600160a01b0316925082915063ba7aef43906102bb908790869088906004016106ff565b600060405180830381600087803b1580156102d557600080fd5b505af11580156102e9573d6000803e3d6000fd5b505050505050505061030e565b60405162461bcd60e51b8152600401610124906107f4565b505050505050565b6040516331a9108f60e11b815282906001600160a01b03821690636352211e9061034490859060040161074c565b60206040518083038186803b15801561035c57600080fd5b505afa158015610370573d6000803e3d6000fd5b505050506040513d601f19601f820116820180604052508101906103949190610509565b6001600160a01b0316336001600160a01b0316146103b157600080fd5b604051630852cd8d60e31b81526001600160a01b038216906342966c68906103dd90859060040161074c565b600060405180830381600087803b1580156103f757600080fd5b505af115801561040b573d6000803e3d6000fd5b505050506104393383604051602001610425929190610733565b60405160208183030381529060405261043e565b505050565b7f8c5261668696ce22758910d05bab8f186d6eb247ceac2af2e82c7dc17669b0368160405161046d9190610755565b60405180910390a150565b600067ffffffffffffffff80841115610493576104936108b6565b604051601f8501601f1916810160200182811182821017156104b7576104b76108b6565b6040528481529150818385018610156104cf57600080fd5b6104dd85602083018661088a565b50509392505050565b6000602082840312156104f7578081fd5b8135610502816108cc565b9392505050565b60006020828403121561051a578081fd5b8151610502816108cc565b600080600080600060a0868803121561053c578081fd5b8551610547816108cc565b6020870151909550610558816108cc565b6040870151909450610569816108cc565b60608701516080880151919450925067ffffffffffffffff81111561058c578182fd5b8601601f8101881361059c578182fd5b6105ab88825160208401610478565b9150509295509295909350565b600080604083850312156105ca578182fd5b82356105d5816108cc565b946020939093013593505050565b600080604083850312156105f5578182fd5b82519150602083015167ffffffffffffffff811115610612578182fd5b8301601f81018513610622578182fd5b61063185825160208401610478565b9150509250929050565b60008060008060608587031215610650578384fd5b843593506020850135610662816108cc565b9250604085013567ffffffffffffffff8082111561067e578384fd5b818701915087601f830112610691578384fd5b81358181111561069f578485fd5b8860208285010111156106b0578485fd5b95989497505060200194505050565b600081518084526106d781602086016020860161088a565b601f01601f19169290920160200192915050565b6001600160a01b0391909116815260200190565b6001600160a01b0384168152606060208201819052600090610723908301856106bf565b9050826040830152949350505050565b6001600160a01b03929092168252602082015260400190565b90815260200190565b60006020825261050260208301846106bf565b60208082526021908201527f4678426173654368696c6454756e6e656c3a20494e56414c49445f53454e44456040820152602960f91b606082015260800190565b6020808252602b908201527f4678426173654368696c6454756e6e656c3a20494e56414c49445f53454e444560408201526a1497d19493d357d493d3d560aa1b606082015260800190565b6020808252602c908201527f46784c696d6547616d654974656d4368696c6454756e6e656c3a20494e56414c60408201526b49445f53594e435f5459504560a01b606082015260800190565b6020808252602a908201527f4678426173654368696c6454756e6e656c3a20524f4f545f54554e4e454c5f4160408201526913149150511657d4d15560b21b606082015260800190565b60005b838110156108a557818101518382015260200161088d565b838111156101ba5750506000910152565b634e487b7160e01b600052604160045260246000fd5b6001600160a01b03811681146108e157600080fd5b5056fea264697066735822122077805792349a70c5dc7d0bf7ab3cc805de77765b6e9d8df869ad31ba8c0b8bac64736f6c63430008000033",
  "linkReferences": {},
  "deployedLinkReferences": {}
}