{
  "_format": "hh-sol-artifact-1",
  "contractName": "ChildTunnel",
  "sourceName": "contracts/ChildTunnel.sol",
  "abi": [
    {
      "inputs": [
        {
          "internalType": "address",
          "name": "_fxChild",
          "type": "address"
        },
        {
          "internalType": "address",
          "name": "childTokenAddress_",
          "type": "address"
        }
      ],
      "stateMutability": "nonpayable",
      "type": "constructor"
    },
    {
      "anonymous": false,
      "inputs": [
        {
          "indexed": false,
          "internalType": "bytes",
          "name": "message",
          "type": "bytes"
        }
      ],
      "name": "MessageSent",
      "type": "event"
    },
    {
      "inputs": [],
      "name": "DEPOSIT",
      "outputs": [
        {
          "internalType": "bytes32",
          "name": "",
          "type": "bytes32"
        }
      ],
      "stateMutability": "view",
      "type": "function"
    },
    {
      "inputs": [],
      "name": "fxChild",
      "outputs": [
        {
          "internalType": "address",
          "name": "",
          "type": "address"
        }
      ],
      "stateMutability": "view",
      "type": "function"
    },
    {
      "inputs": [],
      "name": "fxRootTunnel",
      "outputs": [
        {
          "internalType": "address",
          "name": "",
          "type": "address"
        }
      ],
      "stateMutability": "view",
      "type": "function"
    },
    {
      "inputs": [
        {
          "internalType": "uint256",
          "name": "stateId",
          "type": "uint256"
        },
        {
          "internalType": "address",
          "name": "rootMessageSender",
          "type": "address"
        },
        {
          "internalType": "bytes",
          "name": "data",
          "type": "bytes"
        }
      ],
      "name": "processMessageFromRoot",
      "outputs": [],
      "stateMutability": "nonpayable",
      "type": "function"
    },
    {
      "inputs": [
        {
          "internalType": "address",
          "name": "_fxRootTunnel",
          "type": "address"
        }
      ],
      "name": "setFxRootTunnel",
      "outputs": [],
      "stateMutability": "nonpayable",
      "type": "function"
    },
    {
      "inputs": [
        {
          "internalType": "address",
          "name": "childToken",
          "type": "address"
        },
        {
          "internalType": "uint256",
          "name": "tokenId",
          "type": "uint256"
        }
      ],
      "name": "withdraw",
      "outputs": [],
      "stateMutability": "nonpayable",
      "type": "function"
    }
  ],
  "bytecode": "0x608060405234801561001057600080fd5b506040516109c93803806109c983398101604081905261002f9161007c565b600080546001600160a01b039384166001600160a01b031991821617909155600280549290931691161790556100ae565b80516001600160a01b038116811461007757600080fd5b919050565b6000806040838503121561008e578182fd5b61009783610060565b91506100a560208401610060565b90509250929050565b61090c806100bd6000396000f3fe608060405234801561001057600080fd5b50600436106100625760003560e01c8063450d11f0146100675780637f1e9cb014610085578063888370941461008d5780639a7c4b71146100a2578063d81c8e52146100b5578063f3fef3a3146100ca575b600080fd5b61006f6100dd565b60405161007c91906106e5565b60405180910390f35b61006f6100ec565b6100a061009b3660046104e0565b6100fb565b005b6100a06100b0366004610635565b61014f565b6100bd6101c0565b60405161007c919061073e565b6100a06100d83660046105b2565b6101e4565b6000546001600160a01b031681565b6001546001600160a01b031681565b6001546001600160a01b03161561012d5760405162461bcd60e51b815260040161012490610832565b60405180910390fd5b600180546001600160a01b0319166001600160a01b0392909216919091179055565b6000546001600160a01b031633146101795760405162461bcd60e51b81526004016101249061075a565b6101ba848484848080601f0160208091040260200160405190810160405280939291908181526020018383808284376000920191909152506101f292505050565b50505050565b7f87a7811f4bfedea3d341ad165680ae306b01aaeacc205d227629cf157dd9f82181565b6101ee8282610310565b5050565b60015482906001600160a01b038083169116146102215760405162461bcd60e51b81526004016101249061079b565b6000808380602001905181019061023891906105dd565b915091507f87a7811f4bfedea3d341ad165680ae306b01aaeacc205d227629cf157dd9f8218214156102f0576000808280602001905181019061027b919061051f565b60025460405163d0def52160e01b81529397509095506001600160a01b0316935083925063d0def521916102b69150869086906004016106f9565b600060405180830381600087803b1580156102d057600080fd5b505af11580156102e4573d6000803e3d6000fd5b50505050505050610308565b60405162461bcd60e51b8152600401610124906107e6565b505050505050565b6040516331a9108f60e11b815282906001600160a01b03821690636352211e9061033e90859060040161073e565b60206040518083038186803b15801561035657600080fd5b505afa15801561036a573d6000803e3d6000fd5b505050506040513d601f19601f8201168201806040525081019061038e9190610503565b6001600160a01b0316336001600160a01b0316146103ab57600080fd5b604051630852cd8d60e31b81526001600160a01b038216906342966c68906103d790859060040161073e565b600060405180830381600087803b1580156103f157600080fd5b505af1158015610405573d6000803e3d6000fd5b50505050610433838360405160200161041f929190610725565b604051602081830303815290604052610438565b505050565b7f8c5261668696ce22758910d05bab8f186d6eb247ceac2af2e82c7dc17669b036816040516104679190610747565b60405180910390a150565b600067ffffffffffffffff8084111561048d5761048d6108a8565b604051601f8501601f1916810160200182811182821017156104b1576104b16108a8565b6040528481529150818385018610156104c957600080fd5b6104d785602083018661087c565b50509392505050565b6000602082840312156104f1578081fd5b81356104fc816108be565b9392505050565b600060208284031215610514578081fd5b81516104fc816108be565b600080600080600060a08688031215610536578081fd5b8551610541816108be565b6020870151909550610552816108be565b6040870151909450610563816108be565b60608701516080880151919450925067ffffffffffffffff811115610586578182fd5b8601601f81018813610596578182fd5b6105a588825160208401610472565b9150509295509295909350565b600080604083850312156105c4578182fd5b82356105cf816108be565b946020939093013593505050565b600080604083850312156105ef578182fd5b82519150602083015167ffffffffffffffff81111561060c578182fd5b8301601f8101851361061c578182fd5b61062b85825160208401610472565b9150509250929050565b6000806000806060858703121561064a578384fd5b84359350602085013561065c816108be565b9250604085013567ffffffffffffffff80821115610678578384fd5b818701915087601f83011261068b578384fd5b813581811115610699578485fd5b8860208285010111156106aa578485fd5b95989497505060200194505050565b600081518084526106d181602086016020860161087c565b601f01601f19169290920160200192915050565b6001600160a01b0391909116815260200190565b6001600160a01b038316815260406020820181905260009061071d908301846106b9565b949350505050565b6001600160a01b03929092168252602082015260400190565b90815260200190565b6000602082526104fc60208301846106b9565b60208082526021908201527f4678426173654368696c6454756e6e656c3a20494e56414c49445f53454e44456040820152602960f91b606082015260800190565b6020808252602b908201527f4678426173654368696c6454756e6e656c3a20494e56414c49445f53454e444560408201526a1497d19493d357d493d3d560aa1b606082015260800190565b6020808252602c908201527f46784c696d6547616d654974656d4368696c6454756e6e656c3a20494e56414c60408201526b49445f53594e435f5459504560a01b606082015260800190565b6020808252602a908201527f4678426173654368696c6454756e6e656c3a20524f4f545f54554e4e454c5f4160408201526913149150511657d4d15560b21b606082015260800190565b60005b8381101561089757818101518382015260200161087f565b838111156101ba5750506000910152565b634e487b7160e01b600052604160045260246000fd5b6001600160a01b03811681146108d357600080fd5b5056fea26469706673582212202a6e008c134d4586ed34c7b8ded4db59f3c95fd06980b8da71f3b664c5988c5864736f6c63430008000033",
  "linkReferences": {},
  "deployedLinkReferences": {}
}