{
  "_format": "hh-sol-artifact-1",
  "contractName": "ChildTunnel",
  "sourceName": "contracts/ChildTunnel.sol",
  "abi": [
    {
      "inputs": [
        {
          "internalType": "address",
          "name": "_fxChild",
          "type": "address"
        },
        {
          "internalType": "address",
          "name": "childTokenAddress_",
          "type": "address"
        }
      ],
      "stateMutability": "nonpayable",
      "type": "constructor"
    },
    {
      "anonymous": false,
      "inputs": [
        {
          "indexed": false,
          "internalType": "bytes",
          "name": "message",
          "type": "bytes"
        }
      ],
      "name": "MessageSent",
      "type": "event"
    },
    {
      "anonymous": false,
      "inputs": [
        {
          "indexed": true,
          "internalType": "address",
          "name": "previousOwner",
          "type": "address"
        },
        {
          "indexed": true,
          "internalType": "address",
          "name": "newOwner",
          "type": "address"
        }
      ],
      "name": "OwnershipTransferred",
      "type": "event"
    },
    {
      "inputs": [],
      "name": "DEPOSIT",
      "outputs": [
        {
          "internalType": "bytes32",
          "name": "",
          "type": "bytes32"
        }
      ],
      "stateMutability": "view",
      "type": "function"
    },
    {
      "inputs": [],
      "name": "fxChild",
      "outputs": [
        {
          "internalType": "address",
          "name": "",
          "type": "address"
        }
      ],
      "stateMutability": "view",
      "type": "function"
    },
    {
      "inputs": [],
      "name": "fxRootTunnel",
      "outputs": [
        {
          "internalType": "address",
          "name": "",
          "type": "address"
        }
      ],
      "stateMutability": "view",
      "type": "function"
    },
    {
      "inputs": [],
      "name": "owner",
      "outputs": [
        {
          "internalType": "address",
          "name": "",
          "type": "address"
        }
      ],
      "stateMutability": "view",
      "type": "function"
    },
    {
      "inputs": [
        {
          "internalType": "uint256",
          "name": "stateId",
          "type": "uint256"
        },
        {
          "internalType": "address",
          "name": "rootMessageSender",
          "type": "address"
        },
        {
          "internalType": "bytes",
          "name": "data",
          "type": "bytes"
        }
      ],
      "name": "processMessageFromRoot",
      "outputs": [],
      "stateMutability": "nonpayable",
      "type": "function"
    },
    {
      "inputs": [],
      "name": "renounceOwnership",
      "outputs": [],
      "stateMutability": "nonpayable",
      "type": "function"
    },
    {
      "inputs": [
        {
          "internalType": "address",
          "name": "_fxRootTunnel",
          "type": "address"
        }
      ],
      "name": "setFxRootTunnel",
      "outputs": [],
      "stateMutability": "nonpayable",
      "type": "function"
    },
    {
      "inputs": [
        {
          "internalType": "address",
          "name": "newOwner",
          "type": "address"
        }
      ],
      "name": "transferOwnership",
      "outputs": [],
      "stateMutability": "nonpayable",
      "type": "function"
    },
    {
      "inputs": [
        {
          "internalType": "address",
          "name": "childToken",
          "type": "address"
        },
        {
          "internalType": "uint256",
          "name": "tokenId",
          "type": "uint256"
        }
      ],
      "name": "withdraw",
      "outputs": [],
      "stateMutability": "payable",
      "type": "function"
    },
    {
      "inputs": [],
      "name": "withdrawEther",
      "outputs": [],
      "stateMutability": "nonpayable",
      "type": "function"
    }
  ],
  "bytecode": "0x608060405266038d7ea4c6800060045534801561001b57600080fd5b50604051610dac380380610dac83398101604081905261003a916100fd565b600080546001600160a01b0319166001600160a01b03841617905561006561006061008b565b61008f565b600380546001600160a01b0319166001600160a01b03929092169190911790555061012f565b3390565b600280546001600160a01b038381166001600160a01b0319831681179093556040519116919082907f8be0079c531659141344cd1fd0a4f28419497f9722a3daafe3b4186f6b6457e090600090a35050565b80516001600160a01b03811681146100f857600080fd5b919050565b6000806040838503121561010f578182fd5b610118836100e1565b9150610126602084016100e1565b90509250929050565b610c6e8061013e6000396000f3fe6080604052600436106100915760003560e01c80638da5cb5b116100595780638da5cb5b146101225780639a7c4b7114610137578063d81c8e5214610157578063f2fde38b14610179578063f3fef3a31461019957610091565b8063450d11f014610096578063715018a6146100c15780637362377b146100d85780637f1e9cb0146100ed5780638883709414610102575b600080fd5b3480156100a257600080fd5b506100ab6101ac565b6040516100b8919061097d565b60405180910390f35b3480156100cd57600080fd5b506100d66101bb565b005b3480156100e457600080fd5b506100d661020f565b3480156100f957600080fd5b506100ab610294565b34801561010e57600080fd5b506100d661011d366004610778565b6102a3565b34801561012e57600080fd5b506100ab6102ee565b34801561014357600080fd5b506100d66101523660046108cd565b6102fd565b34801561016357600080fd5b5061016c61036e565b6040516100b891906109de565b34801561018557600080fd5b506100d6610194366004610778565b610392565b6100d66101a736600461084a565b610403565b6000546001600160a01b031681565b6101c361042e565b6001600160a01b03166101d46102ee565b6001600160a01b0316146102035760405162461bcd60e51b81526004016101fa90610b62565b60405180910390fd5b61020d6000610432565b565b61021761042e565b6001600160a01b03166102286102ee565b6001600160a01b03161461024e5760405162461bcd60e51b81526004016101fa90610b62565b60006102586102ee565b6040519091506001600160a01b038216904780156108fc02916000818181858888f19350505050158015610290573d6000803e3d6000fd5b5050565b6001546001600160a01b031681565b6001546001600160a01b0316156102cc5760405162461bcd60e51b81526004016101fa90610b97565b600180546001600160a01b0319166001600160a01b0392909216919091179055565b6002546001600160a01b031690565b6000546001600160a01b031633146103275760405162461bcd60e51b81526004016101fa906109fa565b610368848484848080601f01602080910402602001604051908101604052809392919081815260200183838082843760009201919091525061048492505050565b50505050565b7f87a7811f4bfedea3d341ad165680ae306b01aaeacc205d227629cf157dd9f82181565b61039a61042e565b6001600160a01b03166103ab6102ee565b6001600160a01b0316146103d15760405162461bcd60e51b81526004016101fa90610b62565b6001600160a01b0381166103f75760405162461bcd60e51b81526004016101fa90610a86565b61040081610432565b50565b60045434146104245760405162461bcd60e51b81526004016101fa90610b18565b61029082826105a8565b3390565b600280546001600160a01b038381166001600160a01b0319831681179093556040519116919082907f8be0079c531659141344cd1fd0a4f28419497f9722a3daafe3b4186f6b6457e090600090a35050565b60015482906001600160a01b038083169116146104b35760405162461bcd60e51b81526004016101fa90610a3b565b600080838060200190518101906104ca9190610875565b915091507f87a7811f4bfedea3d341ad165680ae306b01aaeacc205d227629cf157dd9f8218214156105885760008060008380602001905181019061050f91906107b7565b60035460405163ba7aef4360e01b815293985091965094506001600160a01b0316925082915063ba7aef439061054d90879086908890600401610991565b600060405180830381600087803b15801561056757600080fd5b505af115801561057b573d6000803e3d6000fd5b50505050505050506105a0565b60405162461bcd60e51b81526004016101fa90610acc565b505050505050565b6040516331a9108f60e11b815282906001600160a01b03821690636352211e906105d69085906004016109de565b60206040518083038186803b1580156105ee57600080fd5b505afa158015610602573d6000803e3d6000fd5b505050506040513d601f19601f82011682018060405250810190610626919061079b565b6001600160a01b0316336001600160a01b03161461064357600080fd5b604051630852cd8d60e31b81526001600160a01b038216906342966c689061066f9085906004016109de565b600060405180830381600087803b15801561068957600080fd5b505af115801561069d573d6000803e3d6000fd5b505050506106cb33836040516020016106b79291906109c5565b6040516020818303038152906040526106d0565b505050565b7f8c5261668696ce22758910d05bab8f186d6eb247ceac2af2e82c7dc17669b036816040516106ff91906109e7565b60405180910390a150565b600067ffffffffffffffff8084111561072557610725610c0d565b604051601f8501601f19168101602001828111828210171561074957610749610c0d565b60405284815291508183850186101561076157600080fd5b61076f856020830186610be1565b50509392505050565b600060208284031215610789578081fd5b813561079481610c23565b9392505050565b6000602082840312156107ac578081fd5b815161079481610c23565b600080600080600060a086880312156107ce578081fd5b85516107d981610c23565b60208701519095506107ea81610c23565b60408701519094506107fb81610c23565b60608701516080880151919450925067ffffffffffffffff81111561081e578182fd5b8601601f8101881361082e578182fd5b61083d8882516020840161070a565b9150509295509295909350565b6000806040838503121561085c578182fd5b823561086781610c23565b946020939093013593505050565b60008060408385031215610887578182fd5b82519150602083015167ffffffffffffffff8111156108a4578182fd5b8301601f810185136108b4578182fd5b6108c38582516020840161070a565b9150509250929050565b600080600080606085870312156108e2578384fd5b8435935060208501356108f481610c23565b9250604085013567ffffffffffffffff80821115610910578384fd5b818701915087601f830112610923578384fd5b813581811115610931578485fd5b886020828501011115610942578485fd5b95989497505060200194505050565b60008151808452610969816020860160208601610be1565b601f01601f19169290920160200192915050565b6001600160a01b0391909116815260200190565b6001600160a01b03841681526060602082018190526000906109b590830185610951565b9050826040830152949350505050565b6001600160a01b03929092168252602082015260400190565b90815260200190565b6000602082526107946020830184610951565b60208082526021908201527f4678426173654368696c6454756e6e656c3a20494e56414c49445f53454e44456040820152602960f91b606082015260800190565b6020808252602b908201527f4678426173654368696c6454756e6e656c3a20494e56414c49445f53454e444560408201526a1497d19493d357d493d3d560aa1b606082015260800190565b60208082526026908201527f4f776e61626c653a206e6577206f776e657220697320746865207a65726f206160408201526564647265737360d01b606082015260800190565b6020808252602c908201527f46784c696d6547616d654974656d4368696c6454756e6e656c3a20494e56414c60408201526b49445f53594e435f5459504560a01b606082015260800190565b6020808252602a908201527f506c656173652070726f766964652074686520636f727265637420616d6f756e6040820152693a1037b31032ba3432b960b11b606082015260800190565b6020808252818101527f4f776e61626c653a2063616c6c6572206973206e6f7420746865206f776e6572604082015260600190565b6020808252602a908201527f4678426173654368696c6454756e6e656c3a20524f4f545f54554e4e454c5f4160408201526913149150511657d4d15560b21b606082015260800190565b60005b83811015610bfc578181015183820152602001610be4565b838111156103685750506000910152565b634e487b7160e01b600052604160045260246000fd5b6001600160a01b038116811461040057600080fdfea26469706673582212205787534246f503019487713e1e704708dfbac4ebe7c14e81313d4deb732d5d5064736f6c63430008000033",
  "linkReferences": {},
  "deployedLinkReferences": {}
}