{
  "_format": "hh-sol-artifact-1",
  "contractName": "ChildTunnel",
  "sourceName": "contracts/ChildTunnel.sol",
  "abi": [
    {
      "inputs": [
        {
          "internalType": "address",
          "name": "_fxChild",
          "type": "address"
        },
        {
          "internalType": "address",
          "name": "childTokenAddress_",
          "type": "address"
        }
      ],
      "stateMutability": "nonpayable",
      "type": "constructor"
    },
    {
      "anonymous": false,
      "inputs": [
        {
          "indexed": false,
          "internalType": "bytes",
          "name": "message",
          "type": "bytes"
        }
      ],
      "name": "MessageSent",
      "type": "event"
    },
    {
      "inputs": [],
      "name": "DEPOSIT",
      "outputs": [
        {
          "internalType": "bytes32",
          "name": "",
          "type": "bytes32"
        }
      ],
      "stateMutability": "view",
      "type": "function"
    },
    {
      "inputs": [],
      "name": "fxChild",
      "outputs": [
        {
          "internalType": "address",
          "name": "",
          "type": "address"
        }
      ],
      "stateMutability": "view",
      "type": "function"
    },
    {
      "inputs": [],
      "name": "fxRootTunnel",
      "outputs": [
        {
          "internalType": "address",
          "name": "",
          "type": "address"
        }
      ],
      "stateMutability": "view",
      "type": "function"
    },
    {
      "inputs": [
        {
          "internalType": "uint256",
          "name": "stateId",
          "type": "uint256"
        },
        {
          "internalType": "address",
          "name": "rootMessageSender",
          "type": "address"
        },
        {
          "internalType": "bytes",
          "name": "data",
          "type": "bytes"
        }
      ],
      "name": "processMessageFromRoot",
      "outputs": [],
      "stateMutability": "nonpayable",
      "type": "function"
    },
    {
      "inputs": [
        {
          "internalType": "address",
          "name": "_fxRootTunnel",
          "type": "address"
        }
      ],
      "name": "setFxRootTunnel",
      "outputs": [],
      "stateMutability": "nonpayable",
      "type": "function"
    }
  ],
  "bytecode": "0x608060405234801561001057600080fd5b506040516107ca3803806107ca83398101604081905261002f9161007c565b600080546001600160a01b039384166001600160a01b031991821617909155600280549290931691161790556100ae565b80516001600160a01b038116811461007757600080fd5b919050565b6000806040838503121561008e578182fd5b61009783610060565b91506100a560208401610060565b90509250929050565b61070d806100bd6000396000f3fe608060405234801561001057600080fd5b50600436106100575760003560e01c8063450d11f01461005c5780637f1e9cb01461007a57806388837094146100825780639a7c4b7114610097578063d81c8e52146100aa575b600080fd5b6100646100bf565b60405161007191906104fc565b60405180910390f35b6100646100ce565b61009561009036600461036a565b6100dd565b005b6100956100a5366004610478565b610131565b6100b26101a2565b6040516100719190610552565b6000546001600160a01b031681565b6001546001600160a01b031681565b6001546001600160a01b03161561010f5760405162461bcd60e51b815260040161010690610633565b60405180910390fd5b600180546001600160a01b0319166001600160a01b0392909216919091179055565b6000546001600160a01b0316331461015b5760405162461bcd60e51b81526004016101069061055b565b61019c848484848080601f0160208091040260200160405190810160405280939291908181526020018383808284376000920191909152506101c692505050565b50505050565b7f87a7811f4bfedea3d341ad165680ae306b01aaeacc205d227629cf157dd9f82181565b60015482906001600160a01b038083169116146101f55760405162461bcd60e51b81526004016101069061059c565b6000808380602001905181019061020c9190610420565b915091507f87a7811f4bfedea3d341ad165680ae306b01aaeacc205d227629cf157dd9f8218214156102465761024181610266565b61025e565b60405162461bcd60e51b8152600401610106906105e7565b505050505050565b600080600080600085806020019051810190610282919061038d565b60025460405163d0def52160e01b8152959a50939850919650945092506001600160a01b031690819063d0def521906102c19087908690600401610510565b600060405180830381600087803b1580156102db57600080fd5b505af11580156102ef573d6000803e3d6000fd5b5050505050505050505050565b600067ffffffffffffffff80841115610317576103176106a9565b604051601f8501601f19168101602001828111828210171561033b5761033b6106a9565b60405284815291508183850186101561035357600080fd5b61036185602083018661067d565b50509392505050565b60006020828403121561037b578081fd5b8135610386816106bf565b9392505050565b600080600080600060a086880312156103a4578081fd5b85516103af816106bf565b60208701519095506103c0816106bf565b60408701519094506103d1816106bf565b60608701516080880151919450925067ffffffffffffffff8111156103f4578182fd5b8601601f81018813610404578182fd5b610413888251602084016102fc565b9150509295509295909350565b60008060408385031215610432578182fd5b82519150602083015167ffffffffffffffff81111561044f578182fd5b8301601f8101851361045f578182fd5b61046e858251602084016102fc565b9150509250929050565b6000806000806060858703121561048d578384fd5b84359350602085013561049f816106bf565b9250604085013567ffffffffffffffff808211156104bb578384fd5b818701915087601f8301126104ce578384fd5b8135818111156104dc578485fd5b8860208285010111156104ed578485fd5b95989497505060200194505050565b6001600160a01b0391909116815260200190565b600060018060a01b038416825260406020830152825180604084015261053d81606085016020870161067d565b601f01601f1916919091016060019392505050565b90815260200190565b60208082526021908201527f4678426173654368696c6454756e6e656c3a20494e56414c49445f53454e44456040820152602960f91b606082015260800190565b6020808252602b908201527f4678426173654368696c6454756e6e656c3a20494e56414c49445f53454e444560408201526a1497d19493d357d493d3d560aa1b606082015260800190565b6020808252602c908201527f46784c696d6547616d654974656d4368696c6454756e6e656c3a20494e56414c60408201526b49445f53594e435f5459504560a01b606082015260800190565b6020808252602a908201527f4678426173654368696c6454756e6e656c3a20524f4f545f54554e4e454c5f4160408201526913149150511657d4d15560b21b606082015260800190565b60005b83811015610698578181015183820152602001610680565b8381111561019c5750506000910152565b634e487b7160e01b600052604160045260246000fd5b6001600160a01b03811681146106d457600080fd5b5056fea2646970667358221220dd63f9a0780a325af513f5a7eaf4bd643ce0bd28cb0bf09576a2c82f2a46d80664736f6c63430008000033",
  "linkReferences": {},
  "deployedLinkReferences": {}
}