{
  "_format": "hh-sol-artifact-1",
  "contractName": "FxLimeGameItemChildTunnel",
  "sourceName": "contracts/FxLimeGameItemChildTunnel.sol",
  "abi": [
    {
      "inputs": [
        {
          "internalType": "address",
          "name": "_fxChild",
          "type": "address"
        },
        {
          "internalType": "address",
          "name": "_tokenTemplate",
          "type": "address"
        }
      ],
      "stateMutability": "nonpayable",
      "type": "constructor"
    },
    {
      "anonymous": false,
      "inputs": [
        {
          "indexed": false,
          "internalType": "bytes",
          "name": "message",
          "type": "bytes"
        }
      ],
      "name": "MessageSent",
      "type": "event"
    },
    {
      "anonymous": false,
      "inputs": [
        {
          "indexed": true,
          "internalType": "address",
          "name": "to",
          "type": "address"
        },
        {
          "indexed": true,
          "internalType": "string",
          "name": "uri",
          "type": "string"
        }
      ],
      "name": "SyncDeposit",
      "type": "event"
    },
    {
      "anonymous": false,
      "inputs": [
        {
          "indexed": true,
          "internalType": "address",
          "name": "rootToken",
          "type": "address"
        },
        {
          "indexed": true,
          "internalType": "address",
          "name": "childToken",
          "type": "address"
        }
      ],
      "name": "TokenMapped",
      "type": "event"
    },
    {
      "inputs": [],
      "name": "DEPOSIT",
      "outputs": [
        {
          "internalType": "bytes32",
          "name": "",
          "type": "bytes32"
        }
      ],
      "stateMutability": "view",
      "type": "function"
    },
    {
      "inputs": [],
      "name": "MAP_TOKEN",
      "outputs": [
        {
          "internalType": "bytes32",
          "name": "",
          "type": "bytes32"
        }
      ],
      "stateMutability": "view",
      "type": "function"
    },
    {
      "inputs": [],
      "name": "PREFIX_SYMBOL",
      "outputs": [
        {
          "internalType": "string",
          "name": "",
          "type": "string"
        }
      ],
      "stateMutability": "view",
      "type": "function"
    },
    {
      "inputs": [],
      "name": "SUFFIX_NAME",
      "outputs": [
        {
          "internalType": "string",
          "name": "",
          "type": "string"
        }
      ],
      "stateMutability": "view",
      "type": "function"
    },
    {
      "inputs": [
        {
          "internalType": "bytes32",
          "name": "salt",
          "type": "bytes32"
        },
        {
          "internalType": "bytes32",
          "name": "bytecodeHash",
          "type": "bytes32"
        },
        {
          "internalType": "address",
          "name": "deployer",
          "type": "address"
        }
      ],
      "name": "computedCreate2Address",
      "outputs": [
        {
          "internalType": "address",
          "name": "",
          "type": "address"
        }
      ],
      "stateMutability": "pure",
      "type": "function"
    },
    {
      "inputs": [],
      "name": "fxChild",
      "outputs": [
        {
          "internalType": "address",
          "name": "",
          "type": "address"
        }
      ],
      "stateMutability": "view",
      "type": "function"
    },
    {
      "inputs": [],
      "name": "fxRootTunnel",
      "outputs": [
        {
          "internalType": "address",
          "name": "",
          "type": "address"
        }
      ],
      "stateMutability": "view",
      "type": "function"
    },
    {
      "inputs": [
        {
          "internalType": "address",
          "name": "",
          "type": "address"
        },
        {
          "internalType": "address",
          "name": "",
          "type": "address"
        },
        {
          "internalType": "uint256",
          "name": "",
          "type": "uint256"
        },
        {
          "internalType": "bytes",
          "name": "",
          "type": "bytes"
        }
      ],
      "name": "onERC721Received",
      "outputs": [
        {
          "internalType": "bytes4",
          "name": "",
          "type": "bytes4"
        }
      ],
      "stateMutability": "pure",
      "type": "function"
    },
    {
      "inputs": [
        {
          "internalType": "uint256",
          "name": "stateId",
          "type": "uint256"
        },
        {
          "internalType": "address",
          "name": "rootMessageSender",
          "type": "address"
        },
        {
          "internalType": "bytes",
          "name": "data",
          "type": "bytes"
        }
      ],
      "name": "processMessageFromRoot",
      "outputs": [],
      "stateMutability": "nonpayable",
      "type": "function"
    },
    {
      "inputs": [
        {
          "internalType": "address",
          "name": "",
          "type": "address"
        }
      ],
      "name": "rootToChildToken",
      "outputs": [
        {
          "internalType": "address",
          "name": "",
          "type": "address"
        }
      ],
      "stateMutability": "view",
      "type": "function"
    },
    {
      "inputs": [
        {
          "internalType": "address",
          "name": "_fxRootTunnel",
          "type": "address"
        }
      ],
      "name": "setFxRootTunnel",
      "outputs": [],
      "stateMutability": "nonpayable",
      "type": "function"
    },
    {
      "inputs": [],
      "name": "tokenTemplate",
      "outputs": [
        {
          "internalType": "address",
          "name": "",
          "type": "address"
        }
      ],
      "stateMutability": "view",
      "type": "function"
    },
    {
      "inputs": [
        {
          "internalType": "address",
          "name": "childToken",
          "type": "address"
        },
        {
          "internalType": "uint256",
          "name": "tokenId",
          "type": "uint256"
        }
      ],
      "name": "withdraw",
      "outputs": [],
      "stateMutability": "nonpayable",
      "type": "function"
    },
    {
      "inputs": [
        {
          "internalType": "address",
          "name": "childToken",
          "type": "address"
        },
        {
          "internalType": "address",
          "name": "receiver",
          "type": "address"
        },
        {
          "internalType": "uint256",
          "name": "tokenId",
          "type": "uint256"
        }
      ],
      "name": "withdrawTo",
      "outputs": [],
      "stateMutability": "nonpayable",
      "type": "function"
    }
  ],
  "bytecode": "0x60806040523480156200001157600080fd5b5060405162001230380380620012308339810160408190526200003491620000c7565b600080546001600160a01b038085166001600160a01b03199283161790925560038054928416929091169190911790556200006f816200009f565b620000975760405162461bcd60e51b81526004016200008e90620000fe565b60405180910390fd5b505062000135565b63ffffffff813b1615155b919050565b80516001600160a01b0381168114620000aa57600080fd5b60008060408385031215620000da578182fd5b620000e583620000af565b9150620000f560208401620000af565b90509250929050565b6020808252601e908201527f546f6b656e2074656d706c617465206973206e6f7420636f6e74726163740000604082015260600190565b6110eb80620001456000396000f3fe608060405234801561001057600080fd5b50600436106100ea5760003560e01c8063886a69ba1161008c578063c3b35a7e11610066578063c3b35a7e146101aa578063d81c8e52146101bd578063ea60c7c4146101c5578063f3fef3a3146101d8576100ea565b8063886a69ba1461016d57806388837094146101825780639a7c4b7114610197576100ea565b806339c6c9e0116100c857806339c6c9e014610142578063450d11f01461014a5780637337957f146101525780637f1e9cb014610165576100ea565b80630814d3dd146100ef578063150b7a021461010d5780633740d5a01461012d575b600080fd5b6100f76101eb565b6040516101049190610db0565b60405180910390f35b61012061011b366004610b8c565b6101fa565b6040516101049190610e3d565b61013561020b565b6040516101049190610e52565b610135610229565b6100f7610250565b6100f7610160366004610c28565b61025f565b6100f761029e565b6101756102ad565b6040516101049190610e34565b610195610190366004610a84565b6102d1565b005b6101956101a5366004610cb8565b610325565b6101956101b8366004610b4c565b610396565b6101756103a6565b6100f76101d3366004610a84565b6103ca565b6101956101e6366004610bfd565b6103e5565b6003546001600160a01b031681565b630a85bd0160e11b95945050505050565b604051806040016040528060028152602001610ccf60f31b81525081565b6040518060400160405280600b81526020016a202846584552433732312960a81b81525081565b6000546001600160a01b031681565b60008060ff60f81b83868660405160200161027d9493929190610d5b565b60408051808303601f19018152919052805160209091012095945050505050565b6001546001600160a01b031681565b7f2cef46a936bdc5b7e6e8c71aa04560c41cf7d88bb26901a7e7f4936ff02accad81565b6001546001600160a01b0316156103035760405162461bcd60e51b81526004016102fa90611011565b60405180910390fd5b600180546001600160a01b0319166001600160a01b0392909216919091179055565b6000546001600160a01b0316331461034f5760405162461bcd60e51b81526004016102fa90610e65565b610390848484848080601f0160208091040260200160405190810160405280939291908181526020018383808284376000920191909152506103f492505050565b50505050565b6103a18383836104cb565b505050565b7f87a7811f4bfedea3d341ad165680ae306b01aaeacc205d227629cf157dd9f82181565b6002602052600090815260409020546001600160a01b031681565b6103f08233836104cb565b5050565b60015482906001600160a01b038083169116146104235760405162461bcd60e51b81526004016102fa90610ea6565b6000808380602001905181019061043a9190610c60565b915091507f87a7811f4bfedea3d341ad165680ae306b01aaeacc205d227629cf157dd9f8218214156104745761046f816106d7565b6104c3565b7f2cef46a936bdc5b7e6e8c71aa04560c41cf7d88bb26901a7e7f4936ff02accad8214156104ab576104a5816107c4565b506104c3565b60405162461bcd60e51b81526004016102fa90610ef1565b505050505050565b60008390506000816001600160a01b0316630a8a49146040518163ffffffff1660e01b8152600401602060405180830381600087803b15801561050d57600080fd5b505af1158015610521573d6000803e3d6000fd5b505050506040513d601f19601f820116820180604052508101906105459190610aa7565b90506001600160a01b0385161580159061056757506001600160a01b03811615155b801561058f57506001600160a01b038082166000908152600260205260409020548682169116145b6105ab5760405162461bcd60e51b81526004016102fa90610f3d565b6040516331a9108f60e11b81526001600160a01b03831690636352211e906105d7908690600401610e34565b60206040518083038186803b1580156105ef57600080fd5b505afa158015610603573d6000803e3d6000fd5b505050506040513d601f19601f820116820180604052508101906106279190610aa7565b6001600160a01b0316336001600160a01b03161461064457600080fd5b604051630852cd8d60e31b81526001600160a01b038316906342966c6890610670908690600401610e34565b600060405180830381600087803b15801561068a57600080fd5b505af115801561069e573d6000803e3d6000fd5b505050506106d0818686866040516020016106bc9493929190610dde565b60405160208183030381529060405261091a565b5050505050565b600080600080848060200190518101906106f19190610ac3565b6001600160a01b038085166000908152600260205260409081902054905163d0def52160e01b8152959950939750919550935016908190819063d0def521906107409087908790600401610e08565b600060405180830381600087803b15801561075a57600080fd5b505af115801561076e573d6000803e3d6000fd5b50505050826040516107809190610d94565b604051908190038120906001600160a01b038616907f9cb2eb688128a9870c6a5659553817054670f156afc591fb4509f71ed90c2eb990600090a350505050505050565b600080828060200190518101906107db9190610aa7565b6001600160a01b038082166000908152600260205260409020549192501680156108175760405162461bcd60e51b81526004016102fa90610f87565b60008260405160200161082a9190610d3e565b60408051601f19818403018152919052805160209091012060035490915061085c9082906001600160a01b0316610954565b60405163485cc95560e01b81529092506001600160a01b0383169063485cc9559061088d9030908790600401610dc4565b600060405180830381600087803b1580156108a757600080fd5b505af11580156108bb573d6000803e3d6000fd5b505050506001600160a01b0383811660008181526002602052604080822080546001600160a01b0319169487169485179055517f85920d35e6c72f6b2affffa04298b0cecfeba86e4a9f407df661f1cb8ab5e6179190a3509392505050565b7f8c5261668696ce22758910d05bab8f186d6eb247ceac2af2e82c7dc17669b036816040516109499190610e52565b60405180910390a150565b6000808260601b9050604051733d602d80600a3d3981f3363d3d373d3d3d363d7360601b81528160148201526e5af43d82803e903d91602b57fd5bf360881b6028820152846037826000f59250506001600160a01b0382166109c85760405162461bcd60e51b81526004016102fa90610fd0565b5092915050565b600067ffffffffffffffff808411156109ea576109ea611087565b604051601f8501601f191681016020018281118282101715610a0e57610a0e611087565b604052848152915081838501861015610a2657600080fd5b610a3485602083018661105b565b50509392505050565b60008083601f840112610a4e578182fd5b50813567ffffffffffffffff811115610a65578182fd5b602083019150836020828501011115610a7d57600080fd5b9250929050565b600060208284031215610a95578081fd5b8135610aa08161109d565b9392505050565b600060208284031215610ab8578081fd5b8151610aa08161109d565b60008060008060808587031215610ad8578283fd5b8451610ae38161109d565b6020860151909450610af48161109d565b6040860151909350610b058161109d565b606086015190925067ffffffffffffffff811115610b21578182fd5b8501601f81018713610b31578182fd5b610b40878251602084016109cf565b91505092959194509250565b600080600060608486031215610b60578283fd5b8335610b6b8161109d565b92506020840135610b7b8161109d565b929592945050506040919091013590565b600080600080600060808688031215610ba3578081fd5b8535610bae8161109d565b94506020860135610bbe8161109d565b935060408601359250606086013567ffffffffffffffff811115610be0578182fd5b610bec88828901610a3d565b969995985093965092949392505050565b60008060408385031215610c0f578182fd5b8235610c1a8161109d565b946020939093013593505050565b600080600060608486031215610c3c578283fd5b83359250602084013591506040840135610c558161109d565b809150509250925092565b60008060408385031215610c72578182fd5b82519150602083015167ffffffffffffffff811115610c8f578182fd5b8301601f81018513610c9f578182fd5b610cae858251602084016109cf565b9150509250929050565b60008060008060608587031215610ccd578384fd5b843593506020850135610cdf8161109d565b9250604085013567ffffffffffffffff811115610cfa578283fd5b610d0687828801610a3d565b95989497509550505050565b60008151808452610d2a81602086016020860161105b565b601f01601f19169290920160200192915050565b60609190911b6bffffffffffffffffffffffff1916815260140190565b6001600160f81b031994909416845260609290921b6bffffffffffffffffffffffff191660018401526015830152603582015260550190565b60008251610da681846020870161105b565b9190910192915050565b6001600160a01b0391909116815260200190565b6001600160a01b0392831681529116602082015260400190565b6001600160a01b039485168152928416602084015292166040820152606081019190915260800190565b6001600160a01b0383168152604060208201819052600090610e2c90830184610d12565b949350505050565b90815260200190565b6001600160e01b031991909116815260200190565b600060208252610aa06020830184610d12565b60208082526021908201527f4678426173654368696c6454756e6e656c3a20494e56414c49445f53454e44456040820152602960f91b606082015260800190565b6020808252602b908201527f4678426173654368696c6454756e6e656c3a20494e56414c49445f53454e444560408201526a1497d19493d357d493d3d560aa1b606082015260800190565b6020808252602c908201527f46784c696d6547616d654974656d4368696c6454756e6e656c3a20494e56414c60408201526b49445f53594e435f5459504560a01b606082015260800190565b6020808252602a908201527f46784c696d6547616d654974656d4368696c6454756e6e656c3a204e4f5f4d41604082015269282822a22faa27a5a2a760b11b606082015260800190565b60208082526029908201527f46784c696d6547616d654974656d4368696c6454756e6e656c3a20414c524541604082015268111657d3505414115160ba1b606082015260800190565b60208082526021908201527f437265617465323a204661696c6564206f6e206d696e696d616c206465706c6f6040820152607960f81b606082015260800190565b6020808252602a908201527f4678426173654368696c6454756e6e656c3a20524f4f545f54554e4e454c5f4160408201526913149150511657d4d15560b21b606082015260800190565b60005b8381101561107657818101518382015260200161105e565b838111156103905750506000910152565b634e487b7160e01b600052604160045260246000fd5b6001600160a01b03811681146110b257600080fd5b5056fea2646970667358221220dc1d95654042e5da6c3f67dd0355fdb990e145553321d1fcc273181ae9c7b20f64736f6c63430008000033",
  "linkReferences": {},
  "deployedLinkReferences": {}
}