{
  "_format": "hh-sol-artifact-1",
  "contractName": "FxLimeGameItemRootTunnel",
  "sourceName": "contracts/FxLimeGameItemRootTunnel.sol",
  "abi": [
    {
      "inputs": [
        {
          "internalType": "address",
          "name": "_checkpointManager",
          "type": "address"
        },
        {
          "internalType": "address",
          "name": "_fxRoot",
          "type": "address"
        },
        {
          "internalType": "address",
          "name": "_fxERC721Token",
          "type": "address"
        }
      ],
      "stateMutability": "nonpayable",
      "type": "constructor"
    },
    {
      "anonymous": false,
      "inputs": [
        {
          "indexed": true,
          "internalType": "address",
          "name": "rootToken",
          "type": "address"
        },
        {
          "indexed": true,
          "internalType": "address",
          "name": "depositor",
          "type": "address"
        },
        {
          "indexed": true,
          "internalType": "address",
          "name": "userAddress",
          "type": "address"
        },
        {
          "indexed": false,
          "internalType": "uint256",
          "name": "id",
          "type": "uint256"
        }
      ],
      "name": "FxDepositERC721",
      "type": "event"
    },
    {
      "anonymous": false,
      "inputs": [
        {
          "indexed": true,
          "internalType": "address",
          "name": "rootToken",
          "type": "address"
        },
        {
          "indexed": true,
          "internalType": "address",
          "name": "childToken",
          "type": "address"
        },
        {
          "indexed": true,
          "internalType": "address",
          "name": "userAddress",
          "type": "address"
        },
        {
          "indexed": false,
          "internalType": "uint256",
          "name": "id",
          "type": "uint256"
        }
      ],
      "name": "FxWithdrawERC721",
      "type": "event"
    },
    {
      "anonymous": false,
      "inputs": [
        {
          "indexed": true,
          "internalType": "address",
          "name": "rootToken",
          "type": "address"
        },
        {
          "indexed": true,
          "internalType": "address",
          "name": "childToken",
          "type": "address"
        }
      ],
      "name": "TokenMappedERC721",
      "type": "event"
    },
    {
      "inputs": [],
      "name": "DEPOSIT",
      "outputs": [
        {
          "internalType": "bytes32",
          "name": "",
          "type": "bytes32"
        }
      ],
      "stateMutability": "view",
      "type": "function"
    },
    {
      "inputs": [],
      "name": "MAP_TOKEN",
      "outputs": [
        {
          "internalType": "bytes32",
          "name": "",
          "type": "bytes32"
        }
      ],
      "stateMutability": "view",
      "type": "function"
    },
    {
      "inputs": [],
      "name": "SEND_MESSAGE_EVENT_SIG",
      "outputs": [
        {
          "internalType": "bytes32",
          "name": "",
          "type": "bytes32"
        }
      ],
      "stateMutability": "view",
      "type": "function"
    },
    {
      "inputs": [],
      "name": "checkpointManager",
      "outputs": [
        {
          "internalType": "contract ICheckpointManager",
          "name": "",
          "type": "address"
        }
      ],
      "stateMutability": "view",
      "type": "function"
    },
    {
      "inputs": [],
      "name": "childTokenTemplateCodeHash",
      "outputs": [
        {
          "internalType": "bytes32",
          "name": "",
          "type": "bytes32"
        }
      ],
      "stateMutability": "view",
      "type": "function"
    },
    {
      "inputs": [
        {
          "internalType": "bytes32",
          "name": "salt",
          "type": "bytes32"
        },
        {
          "internalType": "bytes32",
          "name": "bytecodeHash",
          "type": "bytes32"
        },
        {
          "internalType": "address",
          "name": "deployer",
          "type": "address"
        }
      ],
      "name": "computedCreate2Address",
      "outputs": [
        {
          "internalType": "address",
          "name": "",
          "type": "address"
        }
      ],
      "stateMutability": "pure",
      "type": "function"
    },
    {
      "inputs": [
        {
          "internalType": "address",
          "name": "rootToken",
          "type": "address"
        },
        {
          "internalType": "address",
          "name": "user",
          "type": "address"
        },
        {
          "internalType": "uint256",
          "name": "tokenId",
          "type": "uint256"
        }
      ],
      "name": "deposit",
      "outputs": [],
      "stateMutability": "nonpayable",
      "type": "function"
    },
    {
      "inputs": [],
      "name": "fxChildTunnel",
      "outputs": [
        {
          "internalType": "address",
          "name": "",
          "type": "address"
        }
      ],
      "stateMutability": "view",
      "type": "function"
    },
    {
      "inputs": [],
      "name": "fxRoot",
      "outputs": [
        {
          "internalType": "contract IFxStateSender",
          "name": "",
          "type": "address"
        }
      ],
      "stateMutability": "view",
      "type": "function"
    },
    {
      "inputs": [
        {
          "internalType": "address",
          "name": "rootToken",
          "type": "address"
        }
      ],
      "name": "mapToken",
      "outputs": [],
      "stateMutability": "nonpayable",
      "type": "function"
    },
    {
      "inputs": [
        {
          "internalType": "address",
          "name": "",
          "type": "address"
        },
        {
          "internalType": "address",
          "name": "",
          "type": "address"
        },
        {
          "internalType": "uint256",
          "name": "",
          "type": "uint256"
        },
        {
          "internalType": "bytes",
          "name": "",
          "type": "bytes"
        }
      ],
      "name": "onERC721Received",
      "outputs": [
        {
          "internalType": "bytes4",
          "name": "",
          "type": "bytes4"
        }
      ],
      "stateMutability": "pure",
      "type": "function"
    },
    {
      "inputs": [
        {
          "internalType": "bytes32",
          "name": "",
          "type": "bytes32"
        }
      ],
      "name": "processedExits",
      "outputs": [
        {
          "internalType": "bool",
          "name": "",
          "type": "bool"
        }
      ],
      "stateMutability": "view",
      "type": "function"
    },
    {
      "inputs": [
        {
          "internalType": "bytes",
          "name": "inputData",
          "type": "bytes"
        }
      ],
      "name": "receiveMessage",
      "outputs": [],
      "stateMutability": "nonpayable",
      "type": "function"
    },
    {
      "inputs": [
        {
          "internalType": "address",
          "name": "",
          "type": "address"
        }
      ],
      "name": "rootToChildTokens",
      "outputs": [
        {
          "internalType": "address",
          "name": "",
          "type": "address"
        }
      ],
      "stateMutability": "view",
      "type": "function"
    },
    {
      "inputs": [
        {
          "internalType": "address",
          "name": "_fxChildTunnel",
          "type": "address"
        }
      ],
      "name": "setFxChildTunnel",
      "outputs": [],
      "stateMutability": "nonpayable",
      "type": "function"
    }
  ],
  "bytecode": "0x60806040523480156200001157600080fd5b506040516200280138038062002801833981016040819052620000349162000109565b600180546001600160a01b038086166001600160a01b03199283161790925560008054928516929091169190911790556200006f8162000084565b8051602090910120600555506200018f915050565b604051606090693d602d80600a3d3981f360b01b9069363d3d373d3d3d363d7360b01b9084841b906e5af43d82803e903d91602b57fd5bf360881b90620000d690859085908590859060200162000152565b6040516020818303038152906040529450505050505b919050565b80516001600160a01b0381168114620000ec57600080fd5b6000806000606084860312156200011e578283fd5b6200012984620000f1565b92506200013960208501620000f1565b91506200014960408501620000f1565b90509250925092565b6001600160b01b0319948516815292909316600a8301526001600160601b03191660148201526001600160881b0319909116602882015260370190565b612662806200019f6000396000f3fe608060405234801561001057600080fd5b50600436106100f55760003560e01c806388e7006811610097578063d81c8e5211610066578063d81c8e52146101d3578063de9b771f146101db578063f4a120f7146101e3578063f953cec7146101f6576100f5565b806388e700681461019d578063972c4928146101b0578063aea4e49e146101b8578063c0857ba0146101cb576100f5565b806369914b3e116100d357806369914b3e146101585780637337957f146101605780638340f54914610180578063886a69ba14610195576100f5565b80630e387de6146100fa578063150b7a0214610118578063607f2d4214610138575b600080fd5b610102610209565b60405161010f9190612093565b60405180910390f35b61012b610126366004611cfa565b61022d565b60405161010f91906120b5565b61014b610146366004611d94565b61023e565b60405161010f9190612088565b610102610253565b61017361016e366004611dac565b610259565b60405161010f9190611fc2565b61019361018e366004611cba565b61029a565b005b6101026103f1565b6101736101ab366004611c4c565b610415565b610173610430565b6101936101c6366004611c4c565b61043f565b610173610493565b6101026104a2565b6101736104c6565b6101936101f1366004611c4c565b6104d5565b610193610204366004611e30565b610721565b7f8c5261668696ce22758910d05bab8f186d6eb247ceac2af2e82c7dc17669b03681565b630a85bd0160e11b95945050505050565b60036020526000908152604090205460ff1681565b60055481565b60008060ff60f81b8386866040516020016102779493929190611f33565b60408051601f1981840301815291905280516020909101209150505b9392505050565b6001600160a01b03838116600090815260046020526040902054166102c2576102c2836104d5565b604051632142170760e11b81526001600160a01b038416906342842e0e906102f290339030908690600401612000565b600060405180830381600087803b15801561030c57600080fd5b505af1158015610320573d6000803e3d6000fd5b5050505060007f87a7811f4bfedea3d341ad165680ae306b01aaeacc205d227629cf157dd9f8218433858560405160200161035e9493929190611fd6565b60408051601f198184030181529082905261037c929160200161209c565b60405160208183030381529060405290506103968161073b565b826001600160a01b0316336001600160a01b0316856001600160a01b03167f6027944915fe4eed24b493e60b41ddaea5f543d0cfc0f0357f1cdef7a2ad3379856040516103e39190612093565b60405180910390a450505050565b7f2cef46a936bdc5b7e6e8c71aa04560c41cf7d88bb26901a7e7f4936ff02accad81565b6004602052600090815260409020546001600160a01b031681565b6002546001600160a01b031681565b6002546001600160a01b0316156104715760405162461bcd60e51b8152600401610468906120ca565b60405180910390fd5b600280546001600160a01b0319166001600160a01b0392909216919091179055565b6001546001600160a01b031681565b7f87a7811f4bfedea3d341ad165680ae306b01aaeacc205d227629cf157dd9f82181565b6000546001600160a01b031681565b6001600160a01b03818116600090815260046020526040902054161561050d5760405162461bcd60e51b8152600401610468906122fc565b60008190506000816001600160a01b03166306fdde036040518163ffffffff1660e01b815260040160006040518083038186803b15801561054d57600080fd5b505afa158015610561573d6000803e3d6000fd5b505050506040513d6000823e601f3d908101601f191682016040526105899190810190611ea4565b90506000826001600160a01b03166395d89b416040518163ffffffff1660e01b815260040160006040518083038186803b1580156105c657600080fd5b505afa1580156105da573d6000803e3d6000fd5b505050506040513d6000823e601f3d908101601f191682016040526106029190810190611ea4565b905060007f2cef46a936bdc5b7e6e8c71aa04560c41cf7d88bb26901a7e7f4936ff02accad85848460405160200161063c93929190612048565b60408051601f198184030181529082905261065a929160200161209c565b60405160208183030381529060405290506106748161073b565b6000856040516020016106879190611f16565b60408051601f1981840301815291905280516020909101206005546002549192506000916106bf9184916001600160a01b0316610259565b6001600160a01b0388811660008181526004602052604080822080546001600160a01b031916948616948517905551939450919290917fac7bdfd1c9797163cad973ce9aca20e24ed965aaf4613f777293bffc303562d091a350505050505050565b600061072c826107a6565b905061073781610c56565b5050565b60005460025460405163b472047760e01b81526001600160a01b039283169263b472047792610771929116908590600401612024565b600060405180830381600087803b15801561078b57600080fd5b505af115801561079f573d6000803e3d6000fd5b5050505050565b606060006107bb6107b684610d75565b610d9a565b905060006107f0826002815181106107e357634e487b7160e01b600052603260045260246000fd5b6020026020010151610ec0565b6108296108248460088151811061081757634e487b7160e01b600052603260045260246000fd5b6020026020010151610f3b565b610fe6565b61084d846009815181106107e357634e487b7160e01b600052603260045260246000fd5b60405160200161085f93929190611f7a565b60408051601f1981840301815291815281516020928301206000818152600390935291205490915060ff16156108a75760405162461bcd60e51b8152600401610468906121a8565b6000818152600360205260408120805460ff1916600117905582516108f4906107b6906108ef908690600690811061081757634e487b7160e01b600052603260045260246000fd5b610d75565b905060006109298260038151811061091c57634e487b7160e01b600052603260045260246000fd5b6020026020010151610d9a565b61094d856009815181106107e357634e487b7160e01b600052603260045260246000fd5b8151811061096b57634e487b7160e01b600052603260045260246000fd5b60200260200101519050600061098082610d9a565b90506109b3816000815181106109a657634e487b7160e01b600052603260045260246000fd5b60200260200101516111dd565b6002546001600160a01b039081169116146109e05760405162461bcd60e51b8152600401610468906122b7565b610a78610a078660068151811061081757634e487b7160e01b600052603260045260246000fd5b610a2b8760088151811061081757634e487b7160e01b600052603260045260246000fd5b610a4f8860078151811061081757634e487b7160e01b600052603260045260246000fd5b610a73896005815181106107e357634e487b7160e01b600052603260045260246000fd5b6111f7565b610a945760405162461bcd60e51b815260040161046890612114565b610b7a610abb866002815181106107e357634e487b7160e01b600052603260045260246000fd5b610adf876003815181106107e357634e487b7160e01b600052603260045260246000fd5b610b03886004815181106107e357634e487b7160e01b600052603260045260246000fd5b60001b610b2a896005815181106107e357634e487b7160e01b600052603260045260246000fd5b60001b610b518a6000815181106107e357634e487b7160e01b600052603260045260246000fd5b610b758b60018151811061081757634e487b7160e01b600052603260045260246000fd5b6114f6565b506000610ba18260018151811061091c57634e487b7160e01b600052603260045260246000fd5b90507f8c5261668696ce22758910d05bab8f186d6eb247ceac2af2e82c7dc17669b03660001b610beb826000815181106107e357634e487b7160e01b600052603260045260246000fd5b14610c085760405162461bcd60e51b815260040161046890612280565b6000610c2e8360028151811061081757634e487b7160e01b600052603260045260246000fd5b9050600081806020019051810190610c469190611ea4565b985050505050505050505b919050565b60008060008084806020019051810190610c709190611c68565b6001600160a01b038481166000908152600460205260409020549498509296509094509250848116911614610cb75760405162461bcd60e51b815260040161046890612157565b604051632142170760e11b81526001600160a01b038516906342842e0e90610ce790309086908690600401612000565b600060405180830381600087803b158015610d0157600080fd5b505af1158015610d15573d6000803e3d6000fd5b50505050816001600160a01b0316836001600160a01b0316856001600160a01b03167fdf709ff47fc84022ec81f28321525a93cfb41fac4318bf8a368d685c6f3ea69184604051610d669190612093565b60405180910390a45050505050565b610d7d611bfd565b506040805180820190915281518152602082810190820152919050565b6060610da5826115fe565b610dae57600080fd5b6000610db983611638565b905060008167ffffffffffffffff811115610de457634e487b7160e01b600052604160045260246000fd5b604051908082528060200260200182016040528015610e1d57816020015b610e0a611bfd565b815260200190600190039081610e025790505b5090506000610e2f85602001516116bb565b8560200151610e3e9190612396565b90506000805b84811015610eb557610e5583611740565b9150604051806040016040528083815260200184815250848281518110610e8c57634e487b7160e01b600052603260045260246000fd5b6020908102919091010152610ea18284612396565b925080610ead81612581565b915050610e44565b509195945050505050565b805160009015801590610ed557508151602110155b610ede57600080fd5b6000610eed83602001516116bb565b90506000818460000151610f019190612517565b9050600080838660200151610f169190612396565b9050805191506020831015610f3257826020036101000a820491505b50949350505050565b8051606090610f4957600080fd5b6000610f5883602001516116bb565b90506000818460000151610f6c9190612517565b905060008167ffffffffffffffff811115610f9757634e487b7160e01b600052604160045260246000fd5b6040519080825280601f01601f191660200182016040528015610fc1576020820181803683370190505b5090506000816020019050610f32848760200151610fdf9190612396565b82856117e9565b604080516020810190915260008152815160609190156111d75760008061100e600086611863565b60f81c9050600181148061102557508060ff166003145b156110e95760018551600261103a91906124f8565b6110449190612517565b67ffffffffffffffff81111561106a57634e487b7160e01b600052604160045260246000fd5b6040519080825280601f01601f191660200182016040528015611094576020820181803683370190505b50925060006110a4600187611863565b905080846000815181106110c857634e487b7160e01b600052603260045260246000fd5b60200101906001600160f81b031916908160001a905350600192505061115b565b6002855160026110f991906124f8565b6111039190612517565b67ffffffffffffffff81111561112957634e487b7160e01b600052604160045260246000fd5b6040519080825280601f01601f191660200182016040528015611153576020820181803683370190505b509250600091505b60ff82165b83518110156111d35761118a61117960ff851683612517565b611184906002612396565b87611863565b8482815181106111aa57634e487b7160e01b600052603260045260246000fd5b60200101906001600160f81b031916908160001a905350806111cb81612581565b915050611160565b5050505b92915050565b80516000906015146111ee57600080fd5b6111d782610ec0565b60008061120384610d75565b9050600061121082610d9a565b9050606080856000806112228b610fe6565b905080516000141561123e5760009750505050505050506114ee565b60005b86518110156114e5578151831115611264576000985050505050505050506114ee565b61129487828151811061128757634e487b7160e01b600052603260045260246000fd5b6020026020010151611900565b9550858051906020012084146112b5576000985050505050505050506114ee565b6112d887828151811061091c57634e487b7160e01b600052603260045260246000fd5b94508451601114156113d7578151831415611348578c805190602001206113198660108151811061081757634e487b7160e01b600052603260045260246000fd5b805190602001201415611337576001985050505050505050506114ee565b6000985050505050505050506114ee565b600082848151811061136a57634e487b7160e01b600052603260045260246000fd5b016020015160f81c9050601081111561138f57600099505050505050505050506114ee565b6113c2868260ff16815181106113b557634e487b7160e01b600052603260045260246000fd5b6020026020010151611988565b94506113cf600185612396565b9350506114d3565b84516002141561133757600061141161140a8760008151811061081757634e487b7160e01b600052603260045260246000fd5b84866119b6565b83519091506114208286612396565b1415611483578d805190602001206114528760018151811061081757634e487b7160e01b600052603260045260246000fd5b80519060200120141561147157600199505050505050505050506114ee565b600099505050505050505050506114ee565b8061149a57600099505050505050505050506114ee565b6114a48185612396565b93506114ca866001815181106113b557634e487b7160e01b600052603260045260246000fd5b94506114d39050565b806114dd81612581565b915050611241565b50505050505050505b949350505050565b6001546040516320a9cea560e11b81526000918291829182916001600160a01b03909116906341539d4a9061152f908990600401612093565b60a06040518083038186803b15801561154757600080fd5b505afa15801561155b573d6000803e3d6000fd5b505050506040513d601f19601f8201168201806040525081019061157f9190611de4565b50935050925092506115d5828b6115969190612517565b84878d8d8d8d6040516020016115af9493929190611fa7565b60405160208183030381529060405280519060200120611ae9909392919063ffffffff16565b6115f15760405162461bcd60e51b815260040161046890612249565b9998505050505050505050565b805160009061160f57506000610c51565b6020820151805160001a9060c082101561162e57600092505050610c51565b5060019392505050565b805160009061164957506000610c51565b60008061165984602001516116bb565b84602001516116689190612396565b90506000846000015185602001516116809190612396565b90505b808210156116b25761169482611740565b61169e9083612396565b9150826116aa81612581565b935050611683565b50909392505050565b8051600090811a60808110156116d5576000915050610c51565b60b88110806116f0575060c081108015906116f0575060f881105b156116ff576001915050610c51565b60c081101561173457611714600160b861252e565b6117219060ff1682612517565b61172c906001612396565b915050610c51565b611714600160f861252e565b80516000908190811a608081101561175b57600191506117e2565b60b88110156117815761176f608082612517565b61177a906001612396565b91506117e2565b60c08110156117ae5760b78103600185019450806020036101000a855104600182018101935050506117e2565b60f88110156117c25761176f60c082612517565b60f78103600185019450806020036101000a855104600182018101935050505b5092915050565b806117f35761185e565b6020811061182b578251825261180a602084612396565b9250611817602083612396565b9150611824602082612517565b90506117f3565b6000600161183a836020612517565b6118469061010061242a565b6118509190612517565b845184518216911916178352505b505050565b600061187060028461259c565b156118b8576010826118836002866123ae565b815181106118a157634e487b7160e01b600052603260045260246000fd5b01602001516118b3919060f81c6125b0565b6118f6565b6010826118c66002866123ae565b815181106118e457634e487b7160e01b600052603260045260246000fd5b01602001516118f6919060f81c6123c2565b60f81b9392505050565b60606000826000015167ffffffffffffffff81111561192f57634e487b7160e01b600052604160045260246000fd5b6040519080825280601f01601f191660200182016040528015611959576020820181803683370190505b50905080516000141561196d579050610c51565b60008160200190506117e284602001518286600001516117e9565b805160009060211461199957600080fd5b600080836020015160016119ad9190612396565b51949350505050565b600080806119c386610fe6565b90506000815167ffffffffffffffff8111156119ef57634e487b7160e01b600052604160045260246000fd5b6040519080825280601f01601f191660200182016040528015611a19576020820181803683370190505b509050845b8251611a2a9087612396565b811015611ab9576000878281518110611a5357634e487b7160e01b600052603260045260246000fd5b01602001516001600160f81b03191690508083611a708985612517565b81518110611a8e57634e487b7160e01b600052603260045260246000fd5b60200101906001600160f81b031916908160001a905350508080611ab190612581565b915050611a1e565b50808051906020012082805190602001201415611ad95781519250611ade565b600092505b509095945050505050565b600060208251611af9919061259c565b15611b165760405162461bcd60e51b8152600401610468906121ec565b600060208351611b2691906123ae565b9050611b3381600261242a565b8510611b515760405162461bcd60e51b81526004016104689061221a565b60008660205b85518111611bef57858101519250611b7060028961259c565b611ba4578183604051602001611b87929190611f6c565b604051602081830303815290604052805190602001209150611bd0565b8282604051602001611bb7929190611f6c565b6040516020818303038152906040528051906020012091505b611bdb6002896123ae565b9750611be8602082612396565b9050611b57565b509094149695505050505050565b604051806040016040528060008152602001600081525090565b6000611c2a611c258461236e565b612344565b9050828152838383011115611c3e57600080fd5b610293836020830184612551565b600060208284031215611c5d578081fd5b813561029381612614565b60008060008060808587031215611c7d578283fd5b8451611c8881612614565b6020860151909450611c9981612614565b6040860151909350611caa81612614565b6060959095015193969295505050565b600080600060608486031215611cce578283fd5b8335611cd981612614565b92506020840135611ce981612614565b929592945050506040919091013590565b600080600080600060808688031215611d11578081fd5b8535611d1c81612614565b94506020860135611d2c81612614565b935060408601359250606086013567ffffffffffffffff80821115611d4f578283fd5b818801915088601f830112611d62578283fd5b813581811115611d70578384fd5b896020828501011115611d81578384fd5b9699959850939650602001949392505050565b600060208284031215611da5578081fd5b5035919050565b600080600060608486031215611dc0578283fd5b83359250602084013591506040840135611dd981612614565b809150509250925092565b600080600080600060a08688031215611dfb578081fd5b855194506020860151935060408601519250606086015191506080860151611e2281612614565b809150509295509295909350565b600060208284031215611e41578081fd5b813567ffffffffffffffff811115611e57578182fd5b8201601f81018413611e67578182fd5b8035611e75611c258261236e565b818152856020838501011115611e89578384fd5b81602084016020830137908101602001929092525092915050565b600060208284031215611eb5578081fd5b815167ffffffffffffffff811115611ecb578182fd5b8201601f81018413611edb578182fd5b6114ee84825160208401611c17565b60008151808452611f02816020860160208601612551565b601f01601f19169290920160200192915050565b60609190911b6bffffffffffffffffffffffff1916815260140190565b6001600160f81b031994909416845260609290921b6bffffffffffffffffffffffff191660018401526015830152603582015260550190565b918252602082015260400190565b60008482528351611f92816020850160208801612551565b60209201918201929092526040019392505050565b93845260208401929092526040830152606082015260800190565b6001600160a01b0391909116815260200190565b6001600160a01b039485168152928416602084015292166040820152606081019190915260800190565b6001600160a01b039384168152919092166020820152604081019190915260600190565b6001600160a01b03831681526040602082018190526000906114ee90830184611eea565b6001600160a01b038416815260606020820181905260009061206c90830185611eea565b828103604084015261207e8185611eea565b9695505050505050565b901515815260200190565b90815260200190565b6000838252604060208301526114ee6040830184611eea565b6001600160e01b031991909116815260200190565b6020808252602a908201527f467842617365526f6f7454756e6e656c3a204348494c445f54554e4e454c5f4160408201526913149150511657d4d15560b21b606082015260800190565b60208082526023908201527f4678526f6f7454756e6e656c3a20494e56414c49445f524543454950545f505260408201526227a7a360e91b606082015260800190565b60208082526031908201527f46784c696d6547616d654974656d526f6f7454756e6e656c3a20494e56414c496040820152701117d3505414125391d7d3d397d1561255607a1b606082015260800190565b60208082526024908201527f4678526f6f7454756e6e656c3a20455849545f414c52454144595f50524f434560408201526314d4d15160e21b606082015260800190565b602080825260149082015273092dcecc2d8d2c840e0e4dedecc40d8cadccee8d60631b604082015260600190565b6020808252601590820152744c65616620696e64657820697320746f6f2062696760581b604082015260600190565b6020808252601c908201527f4678526f6f7454756e6e656c3a20494e56414c49445f48454144455200000000604082015260600190565b6020808252601f908201527f4678526f6f7454756e6e656c3a20494e56414c49445f5349474e415455524500604082015260600190565b60208082526025908201527f4678526f6f7454756e6e656c3a20494e56414c49445f46585f4348494c445f54604082015264155393915360da1b606082015260800190565b60208082526028908201527f46784c696d6547616d654974656d526f6f7454756e6e656c3a20414c524541446040820152671657d3505414115160c21b606082015260800190565b60405181810167ffffffffffffffff81118282101715612366576123666125fe565b604052919050565b600067ffffffffffffffff821115612388576123886125fe565b50601f01601f191660200190565b600082198211156123a9576123a96125d2565b500190565b6000826123bd576123bd6125e8565b500490565b600060ff8316806123d5576123d56125e8565b8060ff84160491505092915050565b80825b60018086116123f65750612421565b818704821115612408576124086125d2565b8086161561241557918102915b9490941c9380026123e7565b94509492505050565b6000610293600019848460008261244357506001610293565b8161245057506000610293565b816001811461246657600281146124705761249d565b6001915050610293565b60ff841115612481576124816125d2565b6001841b915084821115612497576124976125d2565b50610293565b5060208310610133831016604e8410600b84101617156124d0575081810a838111156124cb576124cb6125d2565b610293565b6124dd84848460016123e4565b8086048211156124ef576124ef6125d2565b02949350505050565b6000816000190483118215151615612512576125126125d2565b500290565b600082821015612529576125296125d2565b500390565b600060ff821660ff841680821015612548576125486125d2565b90039392505050565b60005b8381101561256c578181015183820152602001612554565b8381111561257b576000848401525b50505050565b6000600019821415612595576125956125d2565b5060010190565b6000826125ab576125ab6125e8565b500690565b600060ff8316806125c3576125c36125e8565b8060ff84160691505092915050565b634e487b7160e01b600052601160045260246000fd5b634e487b7160e01b600052601260045260246000fd5b634e487b7160e01b600052604160045260246000fd5b6001600160a01b038116811461262957600080fd5b5056fea2646970667358221220c8c6bf64162de0867eaee7aae003678929597b5b58e273c08a6daa80465840da64736f6c63430008000033",
  "linkReferences": {},
  "deployedLinkReferences": {}
}