{
  "_format": "hh-sol-artifact-1",
  "contractName": "FxLimeGameItemRootTunnel",
  "sourceName": "contracts/FxLimeGameItemRootTunnel.sol",
  "abi": [
    {
      "inputs": [
        {
          "internalType": "address",
          "name": "_checkpointManager",
          "type": "address"
        },
        {
          "internalType": "address",
          "name": "_fxRoot",
          "type": "address"
        }
      ],
      "stateMutability": "nonpayable",
      "type": "constructor"
    },
    {
      "anonymous": false,
      "inputs": [
        {
          "indexed": true,
          "internalType": "address",
          "name": "rootToken",
          "type": "address"
        },
        {
          "indexed": true,
          "internalType": "address",
          "name": "depositor",
          "type": "address"
        },
        {
          "indexed": true,
          "internalType": "address",
          "name": "userAddress",
          "type": "address"
        },
        {
          "indexed": false,
          "internalType": "uint256",
          "name": "id",
          "type": "uint256"
        },
        {
          "indexed": false,
          "internalType": "string",
          "name": "uri",
          "type": "string"
        }
      ],
      "name": "FxDepositERC721",
      "type": "event"
    },
    {
      "anonymous": false,
      "inputs": [
        {
          "indexed": true,
          "internalType": "address",
          "name": "rootToken",
          "type": "address"
        },
        {
          "indexed": true,
          "internalType": "address",
          "name": "childToken",
          "type": "address"
        },
        {
          "indexed": true,
          "internalType": "address",
          "name": "userAddress",
          "type": "address"
        },
        {
          "indexed": false,
          "internalType": "uint256",
          "name": "id",
          "type": "uint256"
        }
      ],
      "name": "FxWithdrawERC721",
      "type": "event"
    },
    {
      "anonymous": false,
      "inputs": [
        {
          "indexed": true,
          "internalType": "string",
          "name": "message",
          "type": "string"
        }
      ],
      "name": "TestMessage",
      "type": "event"
    },
    {
      "inputs": [],
      "name": "DEPOSIT",
      "outputs": [
        {
          "internalType": "bytes32",
          "name": "",
          "type": "bytes32"
        }
      ],
      "stateMutability": "view",
      "type": "function"
    },
    {
      "inputs": [],
      "name": "SEND_MESSAGE_EVENT_SIG",
      "outputs": [
        {
          "internalType": "bytes32",
          "name": "",
          "type": "bytes32"
        }
      ],
      "stateMutability": "view",
      "type": "function"
    },
    {
      "inputs": [],
      "name": "checkpointManager",
      "outputs": [
        {
          "internalType": "contract ICheckpointManager",
          "name": "",
          "type": "address"
        }
      ],
      "stateMutability": "view",
      "type": "function"
    },
    {
      "inputs": [
        {
          "internalType": "address",
          "name": "rootToken",
          "type": "address"
        },
        {
          "internalType": "address",
          "name": "user",
          "type": "address"
        },
        {
          "internalType": "uint256",
          "name": "tokenId",
          "type": "uint256"
        },
        {
          "internalType": "string",
          "name": "uri",
          "type": "string"
        }
      ],
      "name": "deposit",
      "outputs": [],
      "stateMutability": "nonpayable",
      "type": "function"
    },
    {
      "inputs": [],
      "name": "fxChildTunnel",
      "outputs": [
        {
          "internalType": "address",
          "name": "",
          "type": "address"
        }
      ],
      "stateMutability": "view",
      "type": "function"
    },
    {
      "inputs": [],
      "name": "fxRoot",
      "outputs": [
        {
          "internalType": "contract IFxStateSender",
          "name": "",
          "type": "address"
        }
      ],
      "stateMutability": "view",
      "type": "function"
    },
    {
      "inputs": [
        {
          "internalType": "address",
          "name": "",
          "type": "address"
        },
        {
          "internalType": "address",
          "name": "",
          "type": "address"
        },
        {
          "internalType": "uint256",
          "name": "",
          "type": "uint256"
        },
        {
          "internalType": "bytes",
          "name": "",
          "type": "bytes"
        }
      ],
      "name": "onERC721Received",
      "outputs": [
        {
          "internalType": "bytes4",
          "name": "",
          "type": "bytes4"
        }
      ],
      "stateMutability": "pure",
      "type": "function"
    },
    {
      "inputs": [
        {
          "internalType": "bytes32",
          "name": "",
          "type": "bytes32"
        }
      ],
      "name": "processedExits",
      "outputs": [
        {
          "internalType": "bool",
          "name": "",
          "type": "bool"
        }
      ],
      "stateMutability": "view",
      "type": "function"
    },
    {
      "inputs": [
        {
          "internalType": "bytes",
          "name": "inputData",
          "type": "bytes"
        }
      ],
      "name": "receiveMessage",
      "outputs": [],
      "stateMutability": "nonpayable",
      "type": "function"
    },
    {
      "inputs": [
        {
          "internalType": "address",
          "name": "",
          "type": "address"
        }
      ],
      "name": "rootToChildTokens",
      "outputs": [
        {
          "internalType": "address",
          "name": "",
          "type": "address"
        }
      ],
      "stateMutability": "view",
      "type": "function"
    },
    {
      "inputs": [
        {
          "internalType": "address",
          "name": "_fxChildTunnel",
          "type": "address"
        }
      ],
      "name": "setFxChildTunnel",
      "outputs": [],
      "stateMutability": "nonpayable",
      "type": "function"
    }
  ],
  "bytecode": "0x60806040523480156200001157600080fd5b506040516200238138038062002381833981016040819052620000349162000083565b600180546001600160a01b039384166001600160a01b03199182161790915560008054929093169116179055620000ba565b80516001600160a01b03811681146200007e57600080fd5b919050565b6000806040838503121562000096578182fd5b620000a18362000066565b9150620000b16020840162000066565b90509250929050565b6122b780620000ca6000396000f3fe608060405234801561001057600080fd5b50600436106100a95760003560e01c8063972c492811610071578063972c492814610141578063aea4e49e14610149578063c0857ba01461015c578063d81c8e5214610164578063de9b771f1461016c578063f953cec714610174576100a9565b80630e387de6146100ae578063150b7a02146100cc5780631fece7b4146100ec578063607f2d421461010157806388e7006814610121575b600080fd5b6100b6610187565b6040516100c39190611d81565b60405180910390f35b6100df6100da3660046119cf565b6101ab565b6040516100c39190611da3565b6100ff6100fa366004611a69565b6101bc565b005b61011461010f366004611ae6565b6103a4565b6040516100c39190611d76565b61013461012f366004611961565b6103b9565b6040516100c39190611cd4565b6101346103d4565b6100ff610157366004611961565b6103e3565b610134610437565b6100b6610446565b61013461046a565b6100ff610182366004611b4a565b610479565b7f8c5261668696ce22758910d05bab8f186d6eb247ceac2af2e82c7dc17669b03681565b630a85bd0160e11b95945050505050565b604051632142170760e11b81526001600160a01b038516906342842e0e906101ec90339030908790600401611d2e565b600060405180830381600087803b15801561020657600080fd5b505af115801561021a573d6000803e3d6000fd5b5050505060405161022a90611c55565b604051908190038120907f6e7f6f90a1cd2024298ea1288ad084a044ff77bc1efe24c28907b7d2afebdca190600090a260007f87a7811f4bfedea3d341ad165680ae306b01aaeacc205d227629cf157dd9f8218533868686604051602001610296959493929190611ce8565b60408051601f19818403018152908290526102b49291602001611d8a565b60405160208183030381529060405290506040516102d190611c3d565b604051908190038120907f6e7f6f90a1cd2024298ea1288ad084a044ff77bc1efe24c28907b7d2afebdca190600090a261030a81610493565b60405161031690611c6e565b604051908190038120907f6e7f6f90a1cd2024298ea1288ad084a044ff77bc1efe24c28907b7d2afebdca190600090a2836001600160a01b0316336001600160a01b0316866001600160a01b03167f82ad1feb6bf5a6373e0d6d316baa3a1ae1ab0e5da532bfaddc4a2770767bc37e8686604051610395929190611d8a565b60405180910390a45050505050565b60036020526000908152604090205460ff1681565b6004602052600090815260409020546001600160a01b031681565b6002546001600160a01b031681565b6002546001600160a01b0316156104155760405162461bcd60e51b815260040161040c90611db8565b60405180910390fd5b600280546001600160a01b0319166001600160a01b0392909216919091179055565b6001546001600160a01b031681565b7f87a7811f4bfedea3d341ad165680ae306b01aaeacc205d227629cf157dd9f82181565b6000546001600160a01b031681565b6000610484826104fe565b905061048f816109ae565b5050565b60005460025460405163b472047760e01b81526001600160a01b039283169263b4720477926104c9929116908590600401611d52565b600060405180830381600087803b1580156104e357600080fd5b505af11580156104f7573d6000803e3d6000fd5b5050505050565b6060600061051361050e84610a7f565b610aa4565b905060006105488260028151811061053b57634e487b7160e01b600052603260045260246000fd5b6020026020010151610bca565b61058161057c8460088151811061056f57634e487b7160e01b600052603260045260246000fd5b6020026020010151610c45565b610cf0565b6105a58460098151811061053b57634e487b7160e01b600052603260045260246000fd5b6040516020016105b793929190611c8c565b60408051601f1981840301815291815281516020928301206000818152600390935291205490915060ff16156105ff5760405162461bcd60e51b815260040161040c90611e45565b6000818152600360205260408120805460ff19166001179055825161064c9061050e90610647908690600690811061056f57634e487b7160e01b600052603260045260246000fd5b610a7f565b905060006106818260038151811061067457634e487b7160e01b600052603260045260246000fd5b6020026020010151610aa4565b6106a58560098151811061053b57634e487b7160e01b600052603260045260246000fd5b815181106106c357634e487b7160e01b600052603260045260246000fd5b6020026020010151905060006106d882610aa4565b905061070b816000815181106106fe57634e487b7160e01b600052603260045260246000fd5b6020026020010151610ee7565b6002546001600160a01b039081169116146107385760405162461bcd60e51b815260040161040c90611f54565b6107d061075f8660068151811061056f57634e487b7160e01b600052603260045260246000fd5b6107838760088151811061056f57634e487b7160e01b600052603260045260246000fd5b6107a78860078151811061056f57634e487b7160e01b600052603260045260246000fd5b6107cb8960058151811061053b57634e487b7160e01b600052603260045260246000fd5b610f01565b6107ec5760405162461bcd60e51b815260040161040c90611e02565b6108d26108138660028151811061053b57634e487b7160e01b600052603260045260246000fd5b6108378760038151811061053b57634e487b7160e01b600052603260045260246000fd5b61085b8860048151811061053b57634e487b7160e01b600052603260045260246000fd5b60001b6108828960058151811061053b57634e487b7160e01b600052603260045260246000fd5b60001b6108a98a60008151811061053b57634e487b7160e01b600052603260045260246000fd5b6108cd8b60018151811061056f57634e487b7160e01b600052603260045260246000fd5b611200565b5060006108f98260018151811061067457634e487b7160e01b600052603260045260246000fd5b90507f8c5261668696ce22758910d05bab8f186d6eb247ceac2af2e82c7dc17669b03660001b6109438260008151811061053b57634e487b7160e01b600052603260045260246000fd5b146109605760405162461bcd60e51b815260040161040c90611f1d565b60006109868360028151811061056f57634e487b7160e01b600052603260045260246000fd5b905060008180602001905181019061099e9190611b90565b985050505050505050505b919050565b600080600080848060200190518101906109c8919061197d565b9350935093509350836001600160a01b03166342842e0e3084846040518463ffffffff1660e01b8152600401610a0093929190611d2e565b600060405180830381600087803b158015610a1a57600080fd5b505af1158015610a2e573d6000803e3d6000fd5b50505050816001600160a01b0316836001600160a01b0316856001600160a01b03167fdf709ff47fc84022ec81f28321525a93cfb41fac4318bf8a368d685c6f3ea691846040516103959190611d81565b610a87611909565b506040805180820190915281518152602082810190820152919050565b6060610aaf82611308565b610ab857600080fd5b6000610ac383611342565b905060008167ffffffffffffffff811115610aee57634e487b7160e01b600052604160045260246000fd5b604051908082528060200260200182016040528015610b2757816020015b610b14611909565b815260200190600190039081610b0c5790505b5090506000610b3985602001516113c5565b8560200151610b489190611feb565b90506000805b84811015610bbf57610b5f8361144a565b9150604051806040016040528083815260200184815250848281518110610b9657634e487b7160e01b600052603260045260246000fd5b6020908102919091010152610bab8284611feb565b925080610bb7816121d6565b915050610b4e565b509195945050505050565b805160009015801590610bdf57508151602110155b610be857600080fd5b6000610bf783602001516113c5565b90506000818460000151610c0b919061216c565b9050600080838660200151610c209190611feb565b9050805191506020831015610c3c57826020036101000a820491505b50949350505050565b8051606090610c5357600080fd5b6000610c6283602001516113c5565b90506000818460000151610c76919061216c565b905060008167ffffffffffffffff811115610ca157634e487b7160e01b600052604160045260246000fd5b6040519080825280601f01601f191660200182016040528015610ccb576020820181803683370190505b5090506000816020019050610c3c848760200151610ce99190611feb565b82856114f3565b60408051602081019091526000815281516060919015610ee157600080610d1860008661156d565b60f81c90506001811480610d2f57508060ff166003145b15610df357600185516002610d44919061214d565b610d4e919061216c565b67ffffffffffffffff811115610d7457634e487b7160e01b600052604160045260246000fd5b6040519080825280601f01601f191660200182016040528015610d9e576020820181803683370190505b5092506000610dae60018761156d565b90508084600081518110610dd257634e487b7160e01b600052603260045260246000fd5b60200101906001600160f81b031916908160001a9053506001925050610e65565b600285516002610e03919061214d565b610e0d919061216c565b67ffffffffffffffff811115610e3357634e487b7160e01b600052604160045260246000fd5b6040519080825280601f01601f191660200182016040528015610e5d576020820181803683370190505b509250600091505b60ff82165b8351811015610edd57610e94610e8360ff85168361216c565b610e8e906002611feb565b8761156d565b848281518110610eb457634e487b7160e01b600052603260045260246000fd5b60200101906001600160f81b031916908160001a90535080610ed5816121d6565b915050610e6a565b5050505b92915050565b8051600090601514610ef857600080fd5b610ee182610bca565b600080610f0d84610a7f565b90506000610f1a82610aa4565b905060608085600080610f2c8b610cf0565b9050805160001415610f485760009750505050505050506111f8565b60005b86518110156111ef578151831115610f6e576000985050505050505050506111f8565b610f9e878281518110610f9157634e487b7160e01b600052603260045260246000fd5b602002602001015161160a565b955085805190602001208414610fbf576000985050505050505050506111f8565b610fe287828151811061067457634e487b7160e01b600052603260045260246000fd5b94508451601114156110e1578151831415611052578c805190602001206110238660108151811061056f57634e487b7160e01b600052603260045260246000fd5b805190602001201415611041576001985050505050505050506111f8565b6000985050505050505050506111f8565b600082848151811061107457634e487b7160e01b600052603260045260246000fd5b016020015160f81c9050601081111561109957600099505050505050505050506111f8565b6110cc868260ff16815181106110bf57634e487b7160e01b600052603260045260246000fd5b6020026020010151611692565b94506110d9600185611feb565b9350506111dd565b84516002141561104157600061111b6111148760008151811061056f57634e487b7160e01b600052603260045260246000fd5b84866116c0565b835190915061112a8286611feb565b141561118d578d8051906020012061115c8760018151811061056f57634e487b7160e01b600052603260045260246000fd5b80519060200120141561117b57600199505050505050505050506111f8565b600099505050505050505050506111f8565b806111a457600099505050505050505050506111f8565b6111ae8185611feb565b93506111d4866001815181106110bf57634e487b7160e01b600052603260045260246000fd5b94506111dd9050565b806111e7816121d6565b915050610f4b565b50505050505050505b949350505050565b6001546040516320a9cea560e11b81526000918291829182916001600160a01b03909116906341539d4a90611239908990600401611d81565b60a06040518083038186803b15801561125157600080fd5b505afa158015611265573d6000803e3d6000fd5b505050506040513d601f19601f820116820180604052508101906112899190611afe565b50935050925092506112df828b6112a0919061216c565b84878d8d8d8d6040516020016112b99493929190611cb9565b604051602081830303815290604052805190602001206117f5909392919063ffffffff16565b6112fb5760405162461bcd60e51b815260040161040c90611ee6565b9998505050505050505050565b8051600090611319575060006109a9565b6020820151805160001a9060c0821015611338576000925050506109a9565b5060019392505050565b8051600090611353575060006109a9565b60008061136384602001516113c5565b84602001516113729190611feb565b905060008460000151856020015161138a9190611feb565b90505b808210156113bc5761139e8261144a565b6113a89083611feb565b9150826113b4816121d6565b93505061138d565b50909392505050565b8051600090811a60808110156113df5760009150506109a9565b60b88110806113fa575060c081108015906113fa575060f881105b156114095760019150506109a9565b60c081101561143e5761141e600160b8612183565b61142b9060ff168261216c565b611436906001611feb565b9150506109a9565b61141e600160f8612183565b80516000908190811a608081101561146557600191506114ec565b60b881101561148b5761147960808261216c565b611484906001611feb565b91506114ec565b60c08110156114b85760b78103600185019450806020036101000a855104600182018101935050506114ec565b60f88110156114cc5761147960c08261216c565b60f78103600185019450806020036101000a855104600182018101935050505b5092915050565b806114fd57611568565b602081106115355782518252611514602084611feb565b9250611521602083611feb565b915061152e60208261216c565b90506114fd565b6000600161154483602061216c565b6115509061010061207f565b61155a919061216c565b845184518216911916178352505b505050565b600061157a6002846121f1565b156115c25760108261158d600286612003565b815181106115ab57634e487b7160e01b600052603260045260246000fd5b01602001516115bd919060f81c612205565b611600565b6010826115d0600286612003565b815181106115ee57634e487b7160e01b600052603260045260246000fd5b0160200151611600919060f81c612017565b60f81b9392505050565b60606000826000015167ffffffffffffffff81111561163957634e487b7160e01b600052604160045260246000fd5b6040519080825280601f01601f191660200182016040528015611663576020820181803683370190505b5090508051600014156116775790506109a9565b60008160200190506114ec84602001518286600001516114f3565b80516000906021146116a357600080fd5b600080836020015160016116b79190611feb565b51949350505050565b600080806116cd86610cf0565b90506000815167ffffffffffffffff8111156116f957634e487b7160e01b600052604160045260246000fd5b6040519080825280601f01601f191660200182016040528015611723576020820181803683370190505b509050845b82516117349087611feb565b8110156117c357600087828151811061175d57634e487b7160e01b600052603260045260246000fd5b01602001516001600160f81b0319169050808361177a898561216c565b8151811061179857634e487b7160e01b600052603260045260246000fd5b60200101906001600160f81b031916908160001a9053505080806117bb906121d6565b915050611728565b508080519060200120828051906020012014156117e357815192506117e8565b600092505b50909150505b9392505050565b60006020825161180591906121f1565b156118225760405162461bcd60e51b815260040161040c90611e89565b6000602083516118329190612003565b905061183f81600261207f565b851061185d5760405162461bcd60e51b815260040161040c90611eb7565b60008660205b855181116118fb5785810151925061187c6002896121f1565b6118b0578183604051602001611893929190611c2f565b6040516020818303038152906040528051906020012091506118dc565b82826040516020016118c3929190611c2f565b6040516020818303038152906040528051906020012091505b6118e7600289612003565b97506118f4602082611feb565b9050611863565b509094149695505050505050565b604051806040016040528060008152602001600081525090565b600061193661193184611fc3565b611f99565b905082815283838301111561194a57600080fd5b828260208301376000602084830101529392505050565b600060208284031215611972578081fd5b81356117ee81612269565b60008060008060808587031215611992578283fd5b845161199d81612269565b60208601519094506119ae81612269565b60408601519093506119bf81612269565b6060959095015193969295505050565b6000806000806000608086880312156119e6578081fd5b85356119f181612269565b94506020860135611a0181612269565b935060408601359250606086013567ffffffffffffffff80821115611a24578283fd5b818801915088601f830112611a37578283fd5b813581811115611a45578384fd5b896020828501011115611a56578384fd5b9699959850939650602001949392505050565b60008060008060808587031215611a7e578384fd5b8435611a8981612269565b93506020850135611a9981612269565b925060408501359150606085013567ffffffffffffffff811115611abb578182fd5b8501601f81018713611acb578182fd5b611ada87823560208401611923565b91505092959194509250565b600060208284031215611af7578081fd5b5035919050565b600080600080600060a08688031215611b15578081fd5b855194506020860151935060408601519250606086015191506080860151611b3c81612269565b809150509295509295909350565b600060208284031215611b5b578081fd5b813567ffffffffffffffff811115611b71578182fd5b8201601f81018413611b81578182fd5b6111f884823560208401611923565b600060208284031215611ba1578081fd5b815167ffffffffffffffff811115611bb7578182fd5b8201601f81018413611bc7578182fd5b8051611bd561193182611fc3565b818152856020838501011115611be9578384fd5b611bfa8260208301602086016121a6565b95945050505050565b60008151808452611c1b8160208601602086016121a6565b601f01601f19169290920160200192915050565b918252602082015260400190565b6b416674657220656e636f646560a01b8152600c0190565b6c4265666f726520656e636f646560981b8152600d0190565b7110599d195c881b595cdcd859d9481cd95b9960721b815260120190565b60008482528351611ca48160208501602088016121a6565b60209201918201929092526040019392505050565b93845260208401929092526040830152606082015260800190565b6001600160a01b0391909116815260200190565b6001600160a01b0386811682528581166020830152841660408201526060810183905260a060808201819052600090611d2390830184611c03565b979650505050505050565b6001600160a01b039384168152919092166020820152604081019190915260600190565b6001600160a01b03831681526040602082018190526000906111f890830184611c03565b901515815260200190565b90815260200190565b6000838252604060208301526111f86040830184611c03565b6001600160e01b031991909116815260200190565b6020808252602a908201527f467842617365526f6f7454756e6e656c3a204348494c445f54554e4e454c5f4160408201526913149150511657d4d15560b21b606082015260800190565b60208082526023908201527f4678526f6f7454756e6e656c3a20494e56414c49445f524543454950545f505260408201526227a7a360e91b606082015260800190565b60208082526024908201527f4678526f6f7454756e6e656c3a20455849545f414c52454144595f50524f434560408201526314d4d15160e21b606082015260800190565b602080825260149082015273092dcecc2d8d2c840e0e4dedecc40d8cadccee8d60631b604082015260600190565b6020808252601590820152744c65616620696e64657820697320746f6f2062696760581b604082015260600190565b6020808252601c908201527f4678526f6f7454756e6e656c3a20494e56414c49445f48454144455200000000604082015260600190565b6020808252601f908201527f4678526f6f7454756e6e656c3a20494e56414c49445f5349474e415455524500604082015260600190565b60208082526025908201527f4678526f6f7454756e6e656c3a20494e56414c49445f46585f4348494c445f54604082015264155393915360da1b606082015260800190565b60405181810167ffffffffffffffff81118282101715611fbb57611fbb612253565b604052919050565b600067ffffffffffffffff821115611fdd57611fdd612253565b50601f01601f191660200190565b60008219821115611ffe57611ffe612227565b500190565b6000826120125761201261223d565b500490565b600060ff83168061202a5761202a61223d565b8060ff84160491505092915050565b80825b600180861161204b5750612076565b81870482111561205d5761205d612227565b8086161561206a57918102915b9490941c93800261203c565b94509492505050565b60006117ee6000198484600082612098575060016117ee565b816120a5575060006117ee565b81600181146120bb57600281146120c5576120f2565b60019150506117ee565b60ff8411156120d6576120d6612227565b6001841b9150848211156120ec576120ec612227565b506117ee565b5060208310610133831016604e8410600b8410161715612125575081810a8381111561212057612120612227565b6117ee565b6121328484846001612039565b80860482111561214457612144612227565b02949350505050565b600081600019048311821515161561216757612167612227565b500290565b60008282101561217e5761217e612227565b500390565b600060ff821660ff84168082101561219d5761219d612227565b90039392505050565b60005b838110156121c15781810151838201526020016121a9565b838111156121d0576000848401525b50505050565b60006000198214156121ea576121ea612227565b5060010190565b6000826122005761220061223d565b500690565b600060ff8316806122185761221861223d565b8060ff84160691505092915050565b634e487b7160e01b600052601160045260246000fd5b634e487b7160e01b600052601260045260246000fd5b634e487b7160e01b600052604160045260246000fd5b6001600160a01b038116811461227e57600080fd5b5056fea26469706673582212204a31911fc27fdefa3d7c675d85ee1981c84f4f61588a6b19d5f6d4233850ad2064736f6c63430008000033",
  "linkReferences": {},
  "deployedLinkReferences": {}
}