{
  "_format": "hh-sol-artifact-1",
  "contractName": "FxLimeGameItemChildTunnel",
  "sourceName": "contracts/FxLimeGameItemChildTunnel.sol",
  "abi": [
    {
      "inputs": [
        {
          "internalType": "address",
          "name": "_fxChild",
          "type": "address"
        },
        {
          "internalType": "address",
          "name": "_childToken",
          "type": "address"
        }
      ],
      "stateMutability": "nonpayable",
      "type": "constructor"
    },
    {
      "anonymous": false,
      "inputs": [
        {
          "indexed": false,
          "internalType": "bytes",
          "name": "message",
          "type": "bytes"
        }
      ],
      "name": "MessageSent",
      "type": "event"
    },
    {
      "anonymous": false,
      "inputs": [
        {
          "indexed": true,
          "internalType": "string",
          "name": "message",
          "type": "string"
        }
      ],
      "name": "TestMessage",
      "type": "event"
    },
    {
      "anonymous": false,
      "inputs": [
        {
          "indexed": true,
          "internalType": "address",
          "name": "rootToken",
          "type": "address"
        },
        {
          "indexed": true,
          "internalType": "address",
          "name": "childToken",
          "type": "address"
        }
      ],
      "name": "TokenMapped",
      "type": "event"
    },
    {
      "inputs": [],
      "name": "DEPOSIT",
      "outputs": [
        {
          "internalType": "bytes32",
          "name": "",
          "type": "bytes32"
        }
      ],
      "stateMutability": "view",
      "type": "function"
    },
    {
      "inputs": [],
      "name": "MAP_TOKEN",
      "outputs": [
        {
          "internalType": "bytes32",
          "name": "",
          "type": "bytes32"
        }
      ],
      "stateMutability": "view",
      "type": "function"
    },
    {
      "inputs": [],
      "name": "PREFIX_SYMBOL",
      "outputs": [
        {
          "internalType": "string",
          "name": "",
          "type": "string"
        }
      ],
      "stateMutability": "view",
      "type": "function"
    },
    {
      "inputs": [],
      "name": "SUFFIX_NAME",
      "outputs": [
        {
          "internalType": "string",
          "name": "",
          "type": "string"
        }
      ],
      "stateMutability": "view",
      "type": "function"
    },
    {
      "inputs": [],
      "name": "childTokenAddress",
      "outputs": [
        {
          "internalType": "address",
          "name": "",
          "type": "address"
        }
      ],
      "stateMutability": "view",
      "type": "function"
    },
    {
      "inputs": [],
      "name": "fxChild",
      "outputs": [
        {
          "internalType": "address",
          "name": "",
          "type": "address"
        }
      ],
      "stateMutability": "view",
      "type": "function"
    },
    {
      "inputs": [],
      "name": "fxRootTunnel",
      "outputs": [
        {
          "internalType": "address",
          "name": "",
          "type": "address"
        }
      ],
      "stateMutability": "view",
      "type": "function"
    },
    {
      "inputs": [
        {
          "internalType": "address",
          "name": "",
          "type": "address"
        },
        {
          "internalType": "address",
          "name": "",
          "type": "address"
        },
        {
          "internalType": "uint256",
          "name": "",
          "type": "uint256"
        },
        {
          "internalType": "bytes",
          "name": "",
          "type": "bytes"
        }
      ],
      "name": "onERC721Received",
      "outputs": [
        {
          "internalType": "bytes4",
          "name": "",
          "type": "bytes4"
        }
      ],
      "stateMutability": "pure",
      "type": "function"
    },
    {
      "inputs": [
        {
          "internalType": "uint256",
          "name": "stateId",
          "type": "uint256"
        },
        {
          "internalType": "address",
          "name": "rootMessageSender",
          "type": "address"
        },
        {
          "internalType": "bytes",
          "name": "data",
          "type": "bytes"
        }
      ],
      "name": "processMessageFromRoot",
      "outputs": [],
      "stateMutability": "nonpayable",
      "type": "function"
    },
    {
      "inputs": [
        {
          "internalType": "address",
          "name": "_fxRootTunnel",
          "type": "address"
        }
      ],
      "name": "setFxRootTunnel",
      "outputs": [],
      "stateMutability": "nonpayable",
      "type": "function"
    },
    {
      "inputs": [
        {
          "internalType": "address",
          "name": "childToken",
          "type": "address"
        },
        {
          "internalType": "uint256",
          "name": "tokenId",
          "type": "uint256"
        }
      ],
      "name": "withdraw",
      "outputs": [],
      "stateMutability": "nonpayable",
      "type": "function"
    },
    {
      "inputs": [
        {
          "internalType": "address",
          "name": "childToken",
          "type": "address"
        },
        {
          "internalType": "address",
          "name": "receiver",
          "type": "address"
        },
        {
          "internalType": "uint256",
          "name": "tokenId",
          "type": "uint256"
        }
      ],
      "name": "withdrawTo",
      "outputs": [],
      "stateMutability": "nonpayable",
      "type": "function"
    }
  ],
  "bytecode": "0x608060405234801561001057600080fd5b50604051610eba380380610eba83398101604081905261002f9161007c565b600080546001600160a01b039384166001600160a01b031991821617909155600280549290931691161790556100ae565b80516001600160a01b038116811461007757600080fd5b919050565b6000806040838503121561008e578182fd5b61009783610060565b91506100a560208401610060565b90509250929050565b610dfd806100bd6000396000f3fe608060405234801561001057600080fd5b50600436106100b45760003560e01c8063886a69ba11610071578063886a69ba1461012457806388837094146101395780639a7c4b711461014e578063c3b35a7e14610161578063d81c8e5214610174578063f3fef3a31461017c576100b4565b8063150b7a02146100b95780633740d5a0146100e257806339c6c9e0146100f75780633a529b4c146100ff578063450d11f0146101145780637f1e9cb01461011c575b600080fd5b6100cc6100c7366004610922565b61018f565b6040516100d99190610c03565b60405180910390f35b6100ea6101a0565b6040516100d99190610c18565b6100ea6101be565b6101076101e5565b6040516100d99190610b90565b6101076101f4565b610107610203565b61012c610212565b6040516100d99190610bfa565b61014c610147366004610810565b610236565b005b61014c61015c366004610a16565b61028a565b61014c61016f3660046108e2565b6102fb565b61012c61030b565b61014c61018a366004610993565b61032f565b630a85bd0160e11b95945050505050565b604051806040016040528060028152602001610ccf60f31b81525081565b6040518060400160405280600b81526020016a202846584552433732312960a81b81525081565b6002546001600160a01b031681565b6000546001600160a01b031681565b6001546001600160a01b031681565b7f2cef46a936bdc5b7e6e8c71aa04560c41cf7d88bb26901a7e7f4936ff02accad81565b6001546001600160a01b0316156102685760405162461bcd60e51b815260040161025f90610d03565b60405180910390fd5b600180546001600160a01b0319166001600160a01b0392909216919091179055565b6000546001600160a01b031633146102b45760405162461bcd60e51b815260040161025f90610c2b565b6102f5848484848080601f01602080910402602001604051908101604052809392919081815260200183838082843760009201919091525061033e92505050565b50505050565b610306838383610432565b505050565b7f87a7811f4bfedea3d341ad165680ae306b01aaeacc205d227629cf157dd9f82181565b61033a823383610432565b5050565b60015482906001600160a01b0380831691161461036d5760405162461bcd60e51b815260040161025f90610c6c565b60405161037990610b3e565b60405190819003812090600080516020610da883398151915290600090a2600080838060200190518101906103ae91906109be565b915091506040516103be90610b15565b60405190819003812090600080516020610da883398151915290600090a27f87a7811f4bfedea3d341ad165680ae306b01aaeacc205d227629cf157dd9f8218214156104125761040d816105db565b61042a565b60405162461bcd60e51b815260040161025f90610cb7565b505050505050565b60008390506000816001600160a01b0316630a8a49146040518163ffffffff1660e01b8152600401602060405180830381600087803b15801561047457600080fd5b505af1158015610488573d6000803e3d6000fd5b505050506040513d601f19601f820116820180604052508101906104ac9190610833565b6040516331a9108f60e11b81529091506001600160a01b03831690636352211e906104db908690600401610bfa565b60206040518083038186803b1580156104f357600080fd5b505afa158015610507573d6000803e3d6000fd5b505050506040513d601f19601f8201168201806040525081019061052b9190610833565b6001600160a01b0316336001600160a01b03161461054857600080fd5b604051630852cd8d60e31b81526001600160a01b038316906342966c6890610574908690600401610bfa565b600060405180830381600087803b15801561058e57600080fd5b505af11580156105a2573d6000803e3d6000fd5b505050506105d4818686866040516020016105c09493929190610ba4565b604051602081830303815290604052610721565b5050505050565b6040516105e790610afd565b60405190819003812090600080516020610da883398151915290600090a2600080600080600085806020019051810190610621919061084f565b9450945094509450945060405161063790610b67565b60405190819003812090600080516020610da883398151915290600090a26002546040516001600160a01b039091169061067090610ac5565b60405190819003812090600080516020610da883398151915290600090a260405163d0def52160e01b81526001600160a01b0382169063d0def521906106bc9087908690600401610bce565b600060405180830381600087803b1580156106d657600080fd5b505af11580156106ea573d6000803e3d6000fd5b505050506040516106fa90610a9c565b60405190819003812090600080516020610da883398151915290600090a250505050505050565b7f8c5261668696ce22758910d05bab8f186d6eb247ceac2af2e82c7dc17669b036816040516107509190610c18565b60405180910390a150565b600067ffffffffffffffff8084111561077657610776610d79565b604051601f8501601f19168101602001828111828210171561079a5761079a610d79565b6040528481529150818385018610156107b257600080fd5b6107c0856020830186610d4d565b50509392505050565b60008083601f8401126107da578182fd5b50813567ffffffffffffffff8111156107f1578182fd5b60208301915083602082850101111561080957600080fd5b9250929050565b600060208284031215610821578081fd5b813561082c81610d8f565b9392505050565b600060208284031215610844578081fd5b815161082c81610d8f565b600080600080600060a08688031215610866578081fd5b855161087181610d8f565b602087015190955061088281610d8f565b604087015190945061089381610d8f565b60608701516080880151919450925067ffffffffffffffff8111156108b6578182fd5b8601601f810188136108c6578182fd5b6108d58882516020840161075b565b9150509295509295909350565b6000806000606084860312156108f6578283fd5b833561090181610d8f565b9250602084013561091181610d8f565b929592945050506040919091013590565b600080600080600060808688031215610939578081fd5b853561094481610d8f565b9450602086013561095481610d8f565b935060408601359250606086013567ffffffffffffffff811115610976578182fd5b610982888289016107c9565b969995985093965092949392505050565b600080604083850312156109a5578182fd5b82356109b081610d8f565b946020939093013593505050565b600080604083850312156109d0578182fd5b82519150602083015167ffffffffffffffff8111156109ed578182fd5b8301601f810185136109fd578182fd5b610a0c8582516020840161075b565b9150509250929050565b60008060008060608587031215610a2b578384fd5b843593506020850135610a3d81610d8f565b9250604085013567ffffffffffffffff811115610a58578283fd5b610a64878288016107c9565b95989497509550505050565b60008151808452610a88816020860160208601610d4d565b601f01601f19169290920160200192915050565b7f6368696c64546f6b656e436f6e7472616374206166746572206d696e740000008152601d0190565b7f6368696c64546f6b656e436f6e747261637420616674657220696e7374616e7481526534b0ba34b7b760d11b602082015260260190565b6b17dcde5b98d1195c1bdcda5d60a21b8152600c0190565b7f5f70726f636573734d65737361676546726f6d526f6f74206465636f646500008152601e0190565b7f5f70726f636573734d65737361676546726f6d526f6f74000000000000000000815260170190565b7f5f73796e634465706f736974206166746572206465636f646500000000000000815260190190565b6001600160a01b0391909116815260200190565b6001600160a01b039485168152928416602084015292166040820152606081019190915260800190565b6001600160a01b0383168152604060208201819052600090610bf290830184610a70565b949350505050565b90815260200190565b6001600160e01b031991909116815260200190565b60006020825261082c6020830184610a70565b60208082526021908201527f4678426173654368696c6454756e6e656c3a20494e56414c49445f53454e44456040820152602960f91b606082015260800190565b6020808252602b908201527f4678426173654368696c6454756e6e656c3a20494e56414c49445f53454e444560408201526a1497d19493d357d493d3d560aa1b606082015260800190565b6020808252602c908201527f46784c696d6547616d654974656d4368696c6454756e6e656c3a20494e56414c60408201526b49445f53594e435f5459504560a01b606082015260800190565b6020808252602a908201527f4678426173654368696c6454756e6e656c3a20524f4f545f54554e4e454c5f4160408201526913149150511657d4d15560b21b606082015260800190565b60005b83811015610d68578181015183820152602001610d50565b838111156102f55750506000910152565b634e487b7160e01b600052604160045260246000fd5b6001600160a01b0381168114610da457600080fd5b5056fe6e7f6f90a1cd2024298ea1288ad084a044ff77bc1efe24c28907b7d2afebdca1a26469706673582212209c4f95e62a39e793f8355e9fb61a2de192a9b217f3f4bcf3f09193aa7dac520664736f6c63430008000033",
  "linkReferences": {},
  "deployedLinkReferences": {}
}