{
  "_format": "hh-sol-artifact-1",
  "contractName": "FxLimeGameItem",
  "sourceName": "contracts/FxLimeGameItem.sol",
  "abi": [
    {
      "inputs": [],
      "stateMutability": "nonpayable",
      "type": "constructor"
    },
    {
      "anonymous": false,
      "inputs": [
        {
          "indexed": true,
          "internalType": "address",
          "name": "owner",
          "type": "address"
        },
        {
          "indexed": true,
          "internalType": "address",
          "name": "approved",
          "type": "address"
        },
        {
          "indexed": true,
          "internalType": "uint256",
          "name": "tokenId",
          "type": "uint256"
        }
      ],
      "name": "Approval",
      "type": "event"
    },
    {
      "anonymous": false,
      "inputs": [
        {
          "indexed": true,
          "internalType": "address",
          "name": "owner",
          "type": "address"
        },
        {
          "indexed": true,
          "internalType": "address",
          "name": "operator",
          "type": "address"
        },
        {
          "indexed": false,
          "internalType": "bool",
          "name": "approved",
          "type": "bool"
        }
      ],
      "name": "ApprovalForAll",
      "type": "event"
    },
    {
      "anonymous": false,
      "inputs": [
        {
          "indexed": true,
          "internalType": "address",
          "name": "previousOwner",
          "type": "address"
        },
        {
          "indexed": true,
          "internalType": "address",
          "name": "newOwner",
          "type": "address"
        }
      ],
      "name": "OwnershipTransferred",
      "type": "event"
    },
    {
      "anonymous": false,
      "inputs": [
        {
          "indexed": true,
          "internalType": "address",
          "name": "to",
          "type": "address"
        },
        {
          "indexed": true,
          "internalType": "string",
          "name": "uri",
          "type": "string"
        },
        {
          "indexed": true,
          "internalType": "uint256",
          "name": "tokenId",
          "type": "uint256"
        }
      ],
      "name": "TokenMinted",
      "type": "event"
    },
    {
      "anonymous": false,
      "inputs": [
        {
          "indexed": true,
          "internalType": "address",
          "name": "from",
          "type": "address"
        },
        {
          "indexed": true,
          "internalType": "address",
          "name": "to",
          "type": "address"
        },
        {
          "indexed": true,
          "internalType": "uint256",
          "name": "tokenId",
          "type": "uint256"
        }
      ],
      "name": "Transfer",
      "type": "event"
    },
    {
      "inputs": [
        {
          "internalType": "address",
          "name": "to",
          "type": "address"
        },
        {
          "internalType": "uint256",
          "name": "tokenId",
          "type": "uint256"
        }
      ],
      "name": "approve",
      "outputs": [],
      "stateMutability": "nonpayable",
      "type": "function"
    },
    {
      "inputs": [
        {
          "internalType": "address",
          "name": "owner",
          "type": "address"
        }
      ],
      "name": "balanceOf",
      "outputs": [
        {
          "internalType": "uint256",
          "name": "",
          "type": "uint256"
        }
      ],
      "stateMutability": "view",
      "type": "function"
    },
    {
      "inputs": [
        {
          "internalType": "uint256",
          "name": "tokenId",
          "type": "uint256"
        }
      ],
      "name": "burn",
      "outputs": [],
      "stateMutability": "nonpayable",
      "type": "function"
    },
    {
      "inputs": [],
      "name": "fxManager",
      "outputs": [
        {
          "internalType": "address",
          "name": "",
          "type": "address"
        }
      ],
      "stateMutability": "view",
      "type": "function"
    },
    {
      "inputs": [
        {
          "internalType": "uint256",
          "name": "tokenId",
          "type": "uint256"
        }
      ],
      "name": "getApproved",
      "outputs": [
        {
          "internalType": "address",
          "name": "",
          "type": "address"
        }
      ],
      "stateMutability": "view",
      "type": "function"
    },
    {
      "inputs": [
        {
          "internalType": "address",
          "name": "owner",
          "type": "address"
        },
        {
          "internalType": "address",
          "name": "operator",
          "type": "address"
        }
      ],
      "name": "isApprovedForAll",
      "outputs": [
        {
          "internalType": "bool",
          "name": "",
          "type": "bool"
        }
      ],
      "stateMutability": "view",
      "type": "function"
    },
    {
      "inputs": [
        {
          "internalType": "address",
          "name": "to",
          "type": "address"
        },
        {
          "internalType": "string",
          "name": "uri",
          "type": "string"
        },
        {
          "internalType": "uint256",
          "name": "tokenId",
          "type": "uint256"
        }
      ],
      "name": "mint",
      "outputs": [],
      "stateMutability": "nonpayable",
      "type": "function"
    },
    {
      "inputs": [
        {
          "internalType": "address",
          "name": "to",
          "type": "address"
        },
        {
          "internalType": "string",
          "name": "uri",
          "type": "string"
        }
      ],
      "name": "mint",
      "outputs": [],
      "stateMutability": "nonpayable",
      "type": "function"
    },
    {
      "inputs": [],
      "name": "name",
      "outputs": [
        {
          "internalType": "string",
          "name": "",
          "type": "string"
        }
      ],
      "stateMutability": "view",
      "type": "function"
    },
    {
      "inputs": [],
      "name": "owner",
      "outputs": [
        {
          "internalType": "address",
          "name": "",
          "type": "address"
        }
      ],
      "stateMutability": "view",
      "type": "function"
    },
    {
      "inputs": [
        {
          "internalType": "uint256",
          "name": "tokenId",
          "type": "uint256"
        }
      ],
      "name": "ownerOf",
      "outputs": [
        {
          "internalType": "address",
          "name": "",
          "type": "address"
        }
      ],
      "stateMutability": "view",
      "type": "function"
    },
    {
      "inputs": [],
      "name": "renounceOwnership",
      "outputs": [],
      "stateMutability": "nonpayable",
      "type": "function"
    },
    {
      "inputs": [
        {
          "internalType": "address",
          "name": "from",
          "type": "address"
        },
        {
          "internalType": "address",
          "name": "to",
          "type": "address"
        },
        {
          "internalType": "uint256",
          "name": "tokenId",
          "type": "uint256"
        }
      ],
      "name": "safeTransferFrom",
      "outputs": [],
      "stateMutability": "nonpayable",
      "type": "function"
    },
    {
      "inputs": [
        {
          "internalType": "address",
          "name": "from",
          "type": "address"
        },
        {
          "internalType": "address",
          "name": "to",
          "type": "address"
        },
        {
          "internalType": "uint256",
          "name": "tokenId",
          "type": "uint256"
        },
        {
          "internalType": "bytes",
          "name": "_data",
          "type": "bytes"
        }
      ],
      "name": "safeTransferFrom",
      "outputs": [],
      "stateMutability": "nonpayable",
      "type": "function"
    },
    {
      "inputs": [
        {
          "internalType": "address",
          "name": "operator",
          "type": "address"
        },
        {
          "internalType": "bool",
          "name": "approved",
          "type": "bool"
        }
      ],
      "name": "setApprovalForAll",
      "outputs": [],
      "stateMutability": "nonpayable",
      "type": "function"
    },
    {
      "inputs": [
        {
          "internalType": "address",
          "name": "fxManager_",
          "type": "address"
        }
      ],
      "name": "setFxManager",
      "outputs": [],
      "stateMutability": "nonpayable",
      "type": "function"
    },
    {
      "inputs": [
        {
          "internalType": "bytes4",
          "name": "interfaceId",
          "type": "bytes4"
        }
      ],
      "name": "supportsInterface",
      "outputs": [
        {
          "internalType": "bool",
          "name": "",
          "type": "bool"
        }
      ],
      "stateMutability": "view",
      "type": "function"
    },
    {
      "inputs": [],
      "name": "symbol",
      "outputs": [
        {
          "internalType": "string",
          "name": "",
          "type": "string"
        }
      ],
      "stateMutability": "view",
      "type": "function"
    },
    {
      "inputs": [
        {
          "internalType": "uint256",
          "name": "index",
          "type": "uint256"
        }
      ],
      "name": "tokenByIndex",
      "outputs": [
        {
          "internalType": "uint256",
          "name": "",
          "type": "uint256"
        }
      ],
      "stateMutability": "view",
      "type": "function"
    },
    {
      "inputs": [
        {
          "internalType": "address",
          "name": "owner",
          "type": "address"
        },
        {
          "internalType": "uint256",
          "name": "index",
          "type": "uint256"
        }
      ],
      "name": "tokenOfOwnerByIndex",
      "outputs": [
        {
          "internalType": "uint256",
          "name": "",
          "type": "uint256"
        }
      ],
      "stateMutability": "view",
      "type": "function"
    },
    {
      "inputs": [
        {
          "internalType": "uint256",
          "name": "tokenId",
          "type": "uint256"
        }
      ],
      "name": "tokenURI",
      "outputs": [
        {
          "internalType": "string",
          "name": "",
          "type": "string"
        }
      ],
      "stateMutability": "view",
      "type": "function"
    },
    {
      "inputs": [],
      "name": "totalSupply",
      "outputs": [
        {
          "internalType": "uint256",
          "name": "",
          "type": "uint256"
        }
      ],
      "stateMutability": "view",
      "type": "function"
    },
    {
      "inputs": [
        {
          "internalType": "address",
          "name": "from",
          "type": "address"
        },
        {
          "internalType": "address",
          "name": "to",
          "type": "address"
        },
        {
          "internalType": "uint256",
          "name": "tokenId",
          "type": "uint256"
        }
      ],
      "name": "transferFrom",
      "outputs": [],
      "stateMutability": "nonpayable",
      "type": "function"
    },
    {
      "inputs": [
        {
          "internalType": "address",
          "name": "newOwner",
          "type": "address"
        }
      ],
      "name": "transferOwnership",
      "outputs": [],
      "stateMutability": "nonpayable",
      "type": "function"
    }
  ],
  "bytecode": "0x60806040523480156200001157600080fd5b50604080518082018252600c81526b4c696d6547616d654974656d60a01b6020808301918252835180850190945260038452624c474960e81b90840152815191929162000061916000916200011a565b508051620000779060019060208401906200011a565b505050620000946200008e620000c460201b60201c565b620000c8565b6200009e620000c4565b600c80546001600160a01b0319166001600160a01b0392909216919091179055620001fd565b3390565b600b80546001600160a01b038381166001600160a01b0319831681179093556040519116919082907f8be0079c531659141344cd1fd0a4f28419497f9722a3daafe3b4186f6b6457e090600090a35050565b8280546200012890620001c0565b90600052602060002090601f0160209004810192826200014c576000855562000197565b82601f106200016757805160ff191683800117855562000197565b8280016001018555821562000197579182015b82811115620001975782518255916020019190600101906200017a565b50620001a5929150620001a9565b5090565b5b80821115620001a55760008155600101620001aa565b600281046001821680620001d557607f821691505b60208210811415620001f757634e487b7160e01b600052602260045260246000fd5b50919050565b6121b9806200020d6000396000f3fe608060405234801561001057600080fd5b50600436106101585760003560e01c806370a08231116100c3578063b88d4fde1161007c578063b88d4fde146102b0578063ba7aef43146102c3578063c87b56dd146102d6578063d0def521146102e9578063e985e9c5146102fc578063f2fde38b1461030f57610158565b806370a082311461026a578063715018a61461027d5780638da5cb5b1461028557806395d89b411461028d5780639b77915314610295578063a22cb4651461029d57610158565b806323b872dd1161011557806323b872dd146101f85780632f745c591461020b57806342842e0e1461021e57806342966c68146102315780634f6ccce7146102445780636352211e1461025757610158565b806301ffc9a71461015d57806306fdde0314610186578063081812fc1461019b578063095ea7b3146101bb578063115a4689146101d057806318160ddd146101e3575b600080fd5b61017061016b36600461194f565b610322565b60405161017d9190611a67565b60405180910390f35b61018e610335565b60405161017d9190611a72565b6101ae6101a9366004611987565b6103c7565b60405161017d9190611a16565b6101ce6101c9366004611926565b610413565b005b6101ce6101de36600461174b565b6104ab565b6101eb61050c565b60405161017d9190612049565b6101ce610206366004611797565b610512565b6101eb610219366004611926565b61054a565b6101ce61022c366004611797565b61059c565b6101ce61023f366004611987565b6105b7565b6101eb610252366004611987565b6105ed565b6101ae610265366004611987565b610648565b6101eb61027836600461174b565b61067d565b6101ce6106c1565b6101ae61070c565b61018e61071b565b6101ae61072a565b6101ce6102ab36600461184b565b610739565b6101ce6102be3660046117d2565b61074f565b6101ce6102d13660046118d1565b61078e565b61018e6102e4366004611987565b61081b565b6101ce6102f7366004611885565b610826565b61017061030a366004611765565b610868565b6101ce61031d36600461174b565b610896565b600061032d82610904565b90505b919050565b606060008054610344906120c1565b80601f0160208091040260200160405190810160405280929190818152602001828054610370906120c1565b80156103bd5780601f10610392576101008083540402835291602001916103bd565b820191906000526020600020905b8154815290600101906020018083116103a057829003601f168201915b5050505050905090565b60006103d282610929565b6103f75760405162461bcd60e51b81526004016103ee90611e52565b60405180910390fd5b506000908152600460205260409020546001600160a01b031690565b600061041e82610648565b9050806001600160a01b0316836001600160a01b031614156104525760405162461bcd60e51b81526004016103ee90611f6b565b806001600160a01b0316610464610946565b6001600160a01b0316148061048057506104808161030a610946565b61049c5760405162461bcd60e51b81526004016103ee90611c8e565b6104a6838361094a565b505050565b6104b3610946565b6001600160a01b03166104c461070c565b6001600160a01b0316146104ea5760405162461bcd60e51b81526004016103ee90611e9e565b600c80546001600160a01b0319166001600160a01b0392909216919091179055565b60085490565b61052361051d610946565b826109b8565b61053f5760405162461bcd60e51b81526004016103ee90611fac565b6104a6838383610a3d565b60006105558361067d565b82106105735760405162461bcd60e51b81526004016103ee90611a85565b506001600160a01b03919091166000908152600660209081526040808320938352929052205490565b6104a68383836040518060200160405280600081525061074f565b600c546001600160a01b031633146105e15760405162461bcd60e51b81526004016103ee90611c66565b6105ea81610b6a565b50565b60006105f761050c565b82106106155760405162461bcd60e51b81526004016103ee90611ffd565b6008828154811061063657634e487b7160e01b600052603260045260246000fd5b90600052602060002001549050919050565b6000818152600260205260408120546001600160a01b03168061032d5760405162461bcd60e51b81526004016103ee90611d35565b60006001600160a01b0382166106a55760405162461bcd60e51b81526004016103ee90611ceb565b506001600160a01b031660009081526003602052604090205490565b6106c9610946565b6001600160a01b03166106da61070c565b6001600160a01b0316146107005760405162461bcd60e51b81526004016103ee90611e9e565b61070a6000610b73565b565b600b546001600160a01b031690565b606060018054610344906120c1565b600c546001600160a01b031690565b61074b610744610946565b8383610bc5565b5050565b61076061075a610946565b836109b8565b61077c5760405162461bcd60e51b81526004016103ee90611fac565b61078884848484610c68565b50505050565b600c546001600160a01b031633146107b85760405162461bcd60e51b81526004016103ee90611c66565b6107c28382610c9b565b6107cc8183610cb5565b80826040516107db91906119cb565b604051908190038120906001600160a01b038616907f37021d1908eb5d88f0643480d365f74a16995c98633411b11ab6b27f60ddfe1e90600090a4505050565b606061032d82610cf9565b600c546001600160a01b031633146108505760405162461bcd60e51b81526004016103ee90611c66565b600061085c600d610e12565b90506107b8600d610e16565b6001600160a01b03918216600090815260056020908152604080832093909416825291909152205460ff1690565b61089e610946565b6001600160a01b03166108af61070c565b6001600160a01b0316146108d55760405162461bcd60e51b81526004016103ee90611e9e565b6001600160a01b0381166108fb5760405162461bcd60e51b81526004016103ee90611b22565b6105ea81610b73565b60006001600160e01b0319821663780e9d6360e01b148061032d575061032d82610e1f565b6000908152600260205260409020546001600160a01b0316151590565b3390565b600081815260046020526040902080546001600160a01b0319166001600160a01b038416908117909155819061097f82610648565b6001600160a01b03167f8c5be1e5ebec7d5bd14f71427d1e84f3dd0314c0f7b2291e5b200ac8c7c3b92560405160405180910390a45050565b60006109c382610929565b6109df5760405162461bcd60e51b81526004016103ee90611c1a565b60006109ea83610648565b9050806001600160a01b0316846001600160a01b03161480610a255750836001600160a01b0316610a1a846103c7565b6001600160a01b0316145b80610a355750610a358185610868565b949350505050565b826001600160a01b0316610a5082610648565b6001600160a01b031614610a765760405162461bcd60e51b81526004016103ee90611ed3565b6001600160a01b038216610a9c5760405162461bcd60e51b81526004016103ee90611b9f565b610aa7838383610e5f565b610ab260008261094a565b6001600160a01b0383166000908152600360205260408120805460019290610adb90849061207e565b90915550506001600160a01b0382166000908152600360205260408120805460019290610b09908490612052565b909155505060008181526002602052604080822080546001600160a01b0319166001600160a01b0386811691821790925591518493918716917fddf252ad1be2c89b69c2b068fc378daa952ba7f163c4a11628f55a4df523b3ef91a4505050565b6105ea81610e6a565b600b80546001600160a01b038381166001600160a01b0319831681179093556040519116919082907f8be0079c531659141344cd1fd0a4f28419497f9722a3daafe3b4186f6b6457e090600090a35050565b816001600160a01b0316836001600160a01b03161415610bf75760405162461bcd60e51b81526004016103ee90611be3565b6001600160a01b0383811660008181526005602090815260408083209487168084529490915290819020805460ff1916851515179055517f17307eab39ab6107e8899845ad3d59bd9653f200f220920489ca2b5937696c3190610c5b908590611a67565b60405180910390a3505050565b610c73848484610a3d565b610c7f84848484610eaa565b6107885760405162461bcd60e51b81526004016103ee90611ad0565b61074b828260405180602001604052806000815250610fc5565b610cbe82610929565b610cda5760405162461bcd60e51b81526004016103ee90611d7e565b6000828152600a6020908152604090912082516104a6928401906115d4565b6060610d0482610929565b610d205760405162461bcd60e51b81526004016103ee90611e01565b6000828152600a602052604081208054610d39906120c1565b80601f0160208091040260200160405190810160405280929190818152602001828054610d65906120c1565b8015610db25780601f10610d8757610100808354040283529160200191610db2565b820191906000526020600020905b815481529060010190602001808311610d9557829003601f168201915b505050505090506000610dc3610ff8565b9050805160001415610dd757509050610330565b815115610e09578082604051602001610df19291906119e7565b60405160208183030381529060405292505050610330565b610a358461100a565b5490565b80546001019055565b60006001600160e01b031982166380ac58cd60e01b1480610e5057506001600160e01b03198216635b5e139f60e01b145b8061032d575061032d8261108d565b6104a68383836110a6565b610e738161112f565b6000818152600a602052604090208054610e8c906120c1565b1590506105ea576000818152600a602052604081206105ea91611658565b6000610ebe846001600160a01b03166111d6565b15610fba57836001600160a01b031663150b7a02610eda610946565b8786866040518563ffffffff1660e01b8152600401610efc9493929190611a2a565b602060405180830381600087803b158015610f1657600080fd5b505af1925050508015610f46575060408051601f3d908101601f19168201909252610f439181019061196b565b60015b610fa0573d808015610f74576040519150601f19603f3d011682016040523d82523d6000602084013e610f79565b606091505b508051610f985760405162461bcd60e51b81526004016103ee90611ad0565b805181602001fd5b6001600160e01b031916630a85bd0160e11b149050610a35565b506001949350505050565b610fcf83836111dc565b610fdc6000848484610eaa565b6104a65760405162461bcd60e51b81526004016103ee90611ad0565b60408051602081019091526000815290565b606061101582610929565b6110315760405162461bcd60e51b81526004016103ee90611f1c565b600061103b610ff8565b9050600081511161105b5760405180602001604052806000815250611086565b80611065846112bb565b6040516020016110769291906119e7565b6040516020818303038152906040525b9392505050565b6001600160e01b031981166301ffc9a760e01b14919050565b6110b18383836104a6565b6001600160a01b0383166110cd576110c8816113d6565b6110f0565b816001600160a01b0316836001600160a01b0316146110f0576110f0838261141a565b6001600160a01b03821661110c57611107816114b7565b6104a6565b826001600160a01b0316826001600160a01b0316146104a6576104a68282611590565b600061113a82610648565b905061114881600084610e5f565b61115360008361094a565b6001600160a01b038116600090815260036020526040812080546001929061117c90849061207e565b909155505060008281526002602052604080822080546001600160a01b0319169055518391906001600160a01b038416907fddf252ad1be2c89b69c2b068fc378daa952ba7f163c4a11628f55a4df523b3ef908390a45050565b3b151590565b6001600160a01b0382166112025760405162461bcd60e51b81526004016103ee90611dcc565b61120b81610929565b156112285760405162461bcd60e51b81526004016103ee90611b68565b61123460008383610e5f565b6001600160a01b038216600090815260036020526040812080546001929061125d908490612052565b909155505060008181526002602052604080822080546001600160a01b0319166001600160a01b03861690811790915590518392907fddf252ad1be2c89b69c2b068fc378daa952ba7f163c4a11628f55a4df523b3ef908290a45050565b6060816112e057506040805180820190915260018152600360fc1b6020820152610330565b8160005b811561130a57806112f4816120fc565b91506113039050600a8361206a565b91506112e4565b60008167ffffffffffffffff81111561133357634e487b7160e01b600052604160045260246000fd5b6040519080825280601f01601f19166020018201604052801561135d576020820181803683370190505b5090505b8415610a355761137260018361207e565b915061137f600a86612117565b61138a906030612052565b60f81b8183815181106113ad57634e487b7160e01b600052603260045260246000fd5b60200101906001600160f81b031916908160001a9053506113cf600a8661206a565b9450611361565b600880546000838152600960205260408120829055600182018355919091527ff3f7a9fe364faab93b216da50a3214154f22a0a2b415b23a84c8169e8b636ee30155565b600060016114278461067d565b611431919061207e565b600083815260076020526040902054909150808214611484576001600160a01b03841660009081526006602090815260408083208584528252808320548484528184208190558352600790915290208190555b5060009182526007602090815260408084208490556001600160a01b039094168352600681528383209183525290812055565b6008546000906114c99060019061207e565b600083815260096020526040812054600880549394509092849081106114ff57634e487b7160e01b600052603260045260246000fd5b90600052602060002001549050806008838154811061152e57634e487b7160e01b600052603260045260246000fd5b600091825260208083209091019290925582815260099091526040808220849055858252812055600880548061157457634e487b7160e01b600052603160045260246000fd5b6001900381819060005260206000200160009055905550505050565b600061159b8361067d565b6001600160a01b039093166000908152600660209081526040808320868452825280832085905593825260079052919091209190915550565b8280546115e0906120c1565b90600052602060002090601f0160209004810192826116025760008555611648565b82601f1061161b57805160ff1916838001178555611648565b82800160010185558215611648579182015b8281111561164857825182559160200191906001019061162d565b50611654929150611690565b5090565b508054611664906120c1565b6000825580601f1061167657506105ea565b601f0160209004906000526020600020908101906105ea91905b5b808211156116545760008155600101611691565b600067ffffffffffffffff808411156116c0576116c0612157565b604051601f8501601f1916810160200182811182821017156116e4576116e4612157565b6040528481529150818385018610156116fc57600080fd5b8484602083013760006020868301015250509392505050565b80356001600160a01b038116811461033057600080fd5b600082601f83011261173c578081fd5b611086838335602085016116a5565b60006020828403121561175c578081fd5b61108682611715565b60008060408385031215611777578081fd5b61178083611715565b915061178e60208401611715565b90509250929050565b6000806000606084860312156117ab578081fd5b6117b484611715565b92506117c260208501611715565b9150604084013590509250925092565b600080600080608085870312156117e7578081fd5b6117f085611715565b93506117fe60208601611715565b925060408501359150606085013567ffffffffffffffff811115611820578182fd5b8501601f81018713611830578182fd5b61183f878235602084016116a5565b91505092959194509250565b6000806040838503121561185d578182fd5b61186683611715565b91506020830135801515811461187a578182fd5b809150509250929050565b60008060408385031215611897578182fd5b6118a083611715565b9150602083013567ffffffffffffffff8111156118bb578182fd5b6118c78582860161172c565b9150509250929050565b6000806000606084860312156118e5578283fd5b6118ee84611715565b9250602084013567ffffffffffffffff811115611909578283fd5b6119158682870161172c565b925050604084013590509250925092565b60008060408385031215611938578182fd5b61194183611715565b946020939093013593505050565b600060208284031215611960578081fd5b81356110868161216d565b60006020828403121561197c578081fd5b81516110868161216d565b600060208284031215611998578081fd5b5035919050565b600081518084526119b7816020860160208601612095565b601f01601f19169290920160200192915050565b600082516119dd818460208701612095565b9190910192915050565b600083516119f9818460208801612095565b835190830190611a0d818360208801612095565b01949350505050565b6001600160a01b0391909116815260200190565b6001600160a01b0385811682528416602082015260408101839052608060608201819052600090611a5d9083018461199f565b9695505050505050565b901515815260200190565b600060208252611086602083018461199f565b6020808252602b908201527f455243373231456e756d657261626c653a206f776e657220696e646578206f7560408201526a74206f6620626f756e647360a81b606082015260800190565b60208082526032908201527f4552433732313a207472616e7366657220746f206e6f6e20455243373231526560408201527131b2b4bb32b91034b6b83632b6b2b73a32b960711b606082015260800190565b60208082526026908201527f4f776e61626c653a206e6577206f776e657220697320746865207a65726f206160408201526564647265737360d01b606082015260800190565b6020808252601c908201527f4552433732313a20746f6b656e20616c7265616479206d696e74656400000000604082015260600190565b60208082526024908201527f4552433732313a207472616e7366657220746f20746865207a65726f206164646040820152637265737360e01b606082015260800190565b60208082526019908201527f4552433732313a20617070726f766520746f2063616c6c657200000000000000604082015260600190565b6020808252602c908201527f4552433732313a206f70657261746f7220717565727920666f72206e6f6e657860408201526b34b9ba32b73a103a37b5b2b760a11b606082015260800190565b6020808252600e908201526d24b73b30b634b21039b2b73232b960911b604082015260600190565b60208082526038908201527f4552433732313a20617070726f76652063616c6c6572206973206e6f74206f7760408201527f6e6572206e6f7220617070726f76656420666f7220616c6c0000000000000000606082015260800190565b6020808252602a908201527f4552433732313a2062616c616e636520717565727920666f7220746865207a65604082015269726f206164647265737360b01b606082015260800190565b60208082526029908201527f4552433732313a206f776e657220717565727920666f72206e6f6e657869737460408201526832b73a103a37b5b2b760b91b606082015260800190565b6020808252602e908201527f45524337323155524953746f726167653a2055524920736574206f66206e6f6e60408201526d32bc34b9ba32b73a103a37b5b2b760911b606082015260800190565b6020808252818101527f4552433732313a206d696e7420746f20746865207a65726f2061646472657373604082015260600190565b60208082526031908201527f45524337323155524953746f726167653a2055524920717565727920666f72206040820152703737b732bc34b9ba32b73a103a37b5b2b760791b606082015260800190565b6020808252602c908201527f4552433732313a20617070726f76656420717565727920666f72206e6f6e657860408201526b34b9ba32b73a103a37b5b2b760a11b606082015260800190565b6020808252818101527f4f776e61626c653a2063616c6c6572206973206e6f7420746865206f776e6572604082015260600190565b60208082526029908201527f4552433732313a207472616e73666572206f6620746f6b656e2074686174206960408201526839903737ba1037bbb760b91b606082015260800190565b6020808252602f908201527f4552433732314d657461646174613a2055524920717565727920666f72206e6f60408201526e3732bc34b9ba32b73a103a37b5b2b760891b606082015260800190565b60208082526021908201527f4552433732313a20617070726f76616c20746f2063757272656e74206f776e656040820152603960f91b606082015260800190565b60208082526031908201527f4552433732313a207472616e736665722063616c6c6572206973206e6f74206f6040820152701ddb995c881b9bdc88185c1c1c9bdd9959607a1b606082015260800190565b6020808252602c908201527f455243373231456e756d657261626c653a20676c6f62616c20696e646578206f60408201526b7574206f6620626f756e647360a01b606082015260800190565b90815260200190565b600082198211156120655761206561212b565b500190565b60008261207957612079612141565b500490565b6000828210156120905761209061212b565b500390565b60005b838110156120b0578181015183820152602001612098565b838111156107885750506000910152565b6002810460018216806120d557607f821691505b602082108114156120f657634e487b7160e01b600052602260045260246000fd5b50919050565b60006000198214156121105761211061212b565b5060010190565b60008261212657612126612141565b500690565b634e487b7160e01b600052601160045260246000fd5b634e487b7160e01b600052601260045260246000fd5b634e487b7160e01b600052604160045260246000fd5b6001600160e01b0319811681146105ea57600080fdfea2646970667358221220b83f0be18c0a3966743cc51fd97337515a62904ff4428da084040c9c4456161c64736f6c63430008000033",
  "linkReferences": {},
  "deployedLinkReferences": {}
}