{
  "_format": "hh-sol-artifact-1",
  "contractName": "FxLimeGameItem",
  "sourceName": "contracts/FxLimeGameItem.sol",
  "abi": [
    {
      "inputs": [],
      "stateMutability": "nonpayable",
      "type": "constructor"
    },
    {
      "anonymous": false,
      "inputs": [
        {
          "indexed": true,
          "internalType": "address",
          "name": "owner",
          "type": "address"
        },
        {
          "indexed": true,
          "internalType": "address",
          "name": "approved",
          "type": "address"
        },
        {
          "indexed": true,
          "internalType": "uint256",
          "name": "tokenId",
          "type": "uint256"
        }
      ],
      "name": "Approval",
      "type": "event"
    },
    {
      "anonymous": false,
      "inputs": [
        {
          "indexed": true,
          "internalType": "address",
          "name": "owner",
          "type": "address"
        },
        {
          "indexed": true,
          "internalType": "address",
          "name": "operator",
          "type": "address"
        },
        {
          "indexed": false,
          "internalType": "bool",
          "name": "approved",
          "type": "bool"
        }
      ],
      "name": "ApprovalForAll",
      "type": "event"
    },
    {
      "anonymous": false,
      "inputs": [
        {
          "indexed": true,
          "internalType": "address",
          "name": "previousOwner",
          "type": "address"
        },
        {
          "indexed": true,
          "internalType": "address",
          "name": "newOwner",
          "type": "address"
        }
      ],
      "name": "OwnershipTransferred",
      "type": "event"
    },
    {
      "anonymous": false,
      "inputs": [
        {
          "indexed": true,
          "internalType": "address",
          "name": "to",
          "type": "address"
        },
        {
          "indexed": true,
          "internalType": "string",
          "name": "uri",
          "type": "string"
        },
        {
          "indexed": true,
          "internalType": "uint256",
          "name": "tokenId",
          "type": "uint256"
        }
      ],
      "name": "TokenMinted",
      "type": "event"
    },
    {
      "anonymous": false,
      "inputs": [
        {
          "indexed": true,
          "internalType": "address",
          "name": "from",
          "type": "address"
        },
        {
          "indexed": true,
          "internalType": "address",
          "name": "to",
          "type": "address"
        },
        {
          "indexed": true,
          "internalType": "uint256",
          "name": "tokenId",
          "type": "uint256"
        }
      ],
      "name": "Transfer",
      "type": "event"
    },
    {
      "inputs": [
        {
          "internalType": "address",
          "name": "to",
          "type": "address"
        },
        {
          "internalType": "uint256",
          "name": "tokenId",
          "type": "uint256"
        }
      ],
      "name": "approve",
      "outputs": [],
      "stateMutability": "nonpayable",
      "type": "function"
    },
    {
      "inputs": [
        {
          "internalType": "address",
          "name": "owner",
          "type": "address"
        }
      ],
      "name": "balanceOf",
      "outputs": [
        {
          "internalType": "uint256",
          "name": "",
          "type": "uint256"
        }
      ],
      "stateMutability": "view",
      "type": "function"
    },
    {
      "inputs": [
        {
          "internalType": "uint256",
          "name": "tokenId",
          "type": "uint256"
        }
      ],
      "name": "burn",
      "outputs": [],
      "stateMutability": "nonpayable",
      "type": "function"
    },
    {
      "inputs": [],
      "name": "fxManager",
      "outputs": [
        {
          "internalType": "address",
          "name": "",
          "type": "address"
        }
      ],
      "stateMutability": "view",
      "type": "function"
    },
    {
      "inputs": [
        {
          "internalType": "uint256",
          "name": "tokenId",
          "type": "uint256"
        }
      ],
      "name": "getApproved",
      "outputs": [
        {
          "internalType": "address",
          "name": "",
          "type": "address"
        }
      ],
      "stateMutability": "view",
      "type": "function"
    },
    {
      "inputs": [
        {
          "internalType": "address",
          "name": "owner",
          "type": "address"
        },
        {
          "internalType": "address",
          "name": "operator",
          "type": "address"
        }
      ],
      "name": "isApprovedForAll",
      "outputs": [
        {
          "internalType": "bool",
          "name": "",
          "type": "bool"
        }
      ],
      "stateMutability": "view",
      "type": "function"
    },
    {
      "inputs": [
        {
          "internalType": "address",
          "name": "to",
          "type": "address"
        },
        {
          "internalType": "string",
          "name": "uri",
          "type": "string"
        }
      ],
      "name": "mint",
      "outputs": [],
      "stateMutability": "nonpayable",
      "type": "function"
    },
    {
      "inputs": [],
      "name": "name",
      "outputs": [
        {
          "internalType": "string",
          "name": "",
          "type": "string"
        }
      ],
      "stateMutability": "view",
      "type": "function"
    },
    {
      "inputs": [],
      "name": "owner",
      "outputs": [
        {
          "internalType": "address",
          "name": "",
          "type": "address"
        }
      ],
      "stateMutability": "view",
      "type": "function"
    },
    {
      "inputs": [
        {
          "internalType": "uint256",
          "name": "tokenId",
          "type": "uint256"
        }
      ],
      "name": "ownerOf",
      "outputs": [
        {
          "internalType": "address",
          "name": "",
          "type": "address"
        }
      ],
      "stateMutability": "view",
      "type": "function"
    },
    {
      "inputs": [],
      "name": "renounceOwnership",
      "outputs": [],
      "stateMutability": "nonpayable",
      "type": "function"
    },
    {
      "inputs": [
        {
          "internalType": "address",
          "name": "from",
          "type": "address"
        },
        {
          "internalType": "address",
          "name": "to",
          "type": "address"
        },
        {
          "internalType": "uint256",
          "name": "tokenId",
          "type": "uint256"
        }
      ],
      "name": "safeTransferFrom",
      "outputs": [],
      "stateMutability": "nonpayable",
      "type": "function"
    },
    {
      "inputs": [
        {
          "internalType": "address",
          "name": "from",
          "type": "address"
        },
        {
          "internalType": "address",
          "name": "to",
          "type": "address"
        },
        {
          "internalType": "uint256",
          "name": "tokenId",
          "type": "uint256"
        },
        {
          "internalType": "bytes",
          "name": "_data",
          "type": "bytes"
        }
      ],
      "name": "safeTransferFrom",
      "outputs": [],
      "stateMutability": "nonpayable",
      "type": "function"
    },
    {
      "inputs": [
        {
          "internalType": "address",
          "name": "operator",
          "type": "address"
        },
        {
          "internalType": "bool",
          "name": "approved",
          "type": "bool"
        }
      ],
      "name": "setApprovalForAll",
      "outputs": [],
      "stateMutability": "nonpayable",
      "type": "function"
    },
    {
      "inputs": [
        {
          "internalType": "address",
          "name": "fxManager_",
          "type": "address"
        }
      ],
      "name": "setFxManager",
      "outputs": [],
      "stateMutability": "nonpayable",
      "type": "function"
    },
    {
      "inputs": [
        {
          "internalType": "bytes4",
          "name": "interfaceId",
          "type": "bytes4"
        }
      ],
      "name": "supportsInterface",
      "outputs": [
        {
          "internalType": "bool",
          "name": "",
          "type": "bool"
        }
      ],
      "stateMutability": "view",
      "type": "function"
    },
    {
      "inputs": [],
      "name": "symbol",
      "outputs": [
        {
          "internalType": "string",
          "name": "",
          "type": "string"
        }
      ],
      "stateMutability": "view",
      "type": "function"
    },
    {
      "inputs": [
        {
          "internalType": "uint256",
          "name": "index",
          "type": "uint256"
        }
      ],
      "name": "tokenByIndex",
      "outputs": [
        {
          "internalType": "uint256",
          "name": "",
          "type": "uint256"
        }
      ],
      "stateMutability": "view",
      "type": "function"
    },
    {
      "inputs": [
        {
          "internalType": "address",
          "name": "owner",
          "type": "address"
        },
        {
          "internalType": "uint256",
          "name": "index",
          "type": "uint256"
        }
      ],
      "name": "tokenOfOwnerByIndex",
      "outputs": [
        {
          "internalType": "uint256",
          "name": "",
          "type": "uint256"
        }
      ],
      "stateMutability": "view",
      "type": "function"
    },
    {
      "inputs": [
        {
          "internalType": "uint256",
          "name": "tokenId",
          "type": "uint256"
        }
      ],
      "name": "tokenURI",
      "outputs": [
        {
          "internalType": "string",
          "name": "",
          "type": "string"
        }
      ],
      "stateMutability": "view",
      "type": "function"
    },
    {
      "inputs": [],
      "name": "totalSupply",
      "outputs": [
        {
          "internalType": "uint256",
          "name": "",
          "type": "uint256"
        }
      ],
      "stateMutability": "view",
      "type": "function"
    },
    {
      "inputs": [
        {
          "internalType": "address",
          "name": "from",
          "type": "address"
        },
        {
          "internalType": "address",
          "name": "to",
          "type": "address"
        },
        {
          "internalType": "uint256",
          "name": "tokenId",
          "type": "uint256"
        }
      ],
      "name": "transferFrom",
      "outputs": [],
      "stateMutability": "nonpayable",
      "type": "function"
    },
    {
      "inputs": [
        {
          "internalType": "address",
          "name": "newOwner",
          "type": "address"
        }
      ],
      "name": "transferOwnership",
      "outputs": [],
      "stateMutability": "nonpayable",
      "type": "function"
    }
  ],
  "bytecode": "0x60806040523480156200001157600080fd5b50604080518082018252600c81526b4c696d6547616d654974656d60a01b6020808301918252835180850190945260038452624c474960e81b90840152815191929162000061916000916200011a565b508051620000779060019060208401906200011a565b505050620000946200008e620000c460201b60201c565b620000c8565b6200009e620000c4565b600c80546001600160a01b0319166001600160a01b0392909216919091179055620001fd565b3390565b600b80546001600160a01b038381166001600160a01b0319831681179093556040519116919082907f8be0079c531659141344cd1fd0a4f28419497f9722a3daafe3b4186f6b6457e090600090a35050565b8280546200012890620001c0565b90600052602060002090601f0160209004810192826200014c576000855562000197565b82601f106200016757805160ff191683800117855562000197565b8280016001018555821562000197579182015b82811115620001975782518255916020019190600101906200017a565b50620001a5929150620001a9565b5090565b5b80821115620001a55760008155600101620001aa565b600281046001821680620001d557607f821691505b60208210811415620001f757634e487b7160e01b600052602260045260246000fd5b50919050565b612110806200020d6000396000f3fe608060405234801561001057600080fd5b506004361061014d5760003560e01c80636352211e116100c3578063a22cb4651161007c578063a22cb46514610292578063b88d4fde146102a5578063c87b56dd146102b8578063d0def521146102cb578063e985e9c5146102de578063f2fde38b146102f15761014d565b80636352211e1461024c57806370a082311461025f578063715018a6146102725780638da5cb5b1461027a57806395d89b41146102825780639b7791531461028a5761014d565b806318160ddd1161011557806318160ddd146101d857806323b872dd146101ed5780632f745c591461020057806342842e0e1461021357806342966c68146102265780634f6ccce7146102395761014d565b806301ffc9a71461015257806306fdde031461017b578063081812fc14610190578063095ea7b3146101b0578063115a4689146101c5575b600080fd5b6101656101603660046118a6565b610304565b60405161017291906119be565b60405180910390f35b610183610317565b60405161017291906119c9565b6101a361019e3660046118de565b6103a9565b604051610172919061196d565b6101c36101be36600461187d565b6103f5565b005b6101c36101d33660046116e4565b61048d565b6101e06104ee565b6040516101729190611fa0565b6101c36101fb366004611730565b6104f4565b6101e061020e36600461187d565b61052c565b6101c3610221366004611730565b61057e565b6101c36102343660046118de565b610599565b6101e06102473660046118de565b6105cf565b6101a361025a3660046118de565b61062a565b6101e061026d3660046116e4565b61065f565b6101c36106a3565b6101a36106ee565b6101836106fd565b6101a361070c565b6101c36102a03660046117e4565b61071b565b6101c36102b336600461176b565b610731565b6101836102c63660046118de565b610770565b6101c36102d936600461181e565b61077b565b6101656102ec3660046116fe565b610820565b6101c36102ff3660046116e4565b61084e565b600061030f826108bc565b90505b919050565b60606000805461032690612018565b80601f016020809104026020016040519081016040528092919081815260200182805461035290612018565b801561039f5780601f106103745761010080835404028352916020019161039f565b820191906000526020600020905b81548152906001019060200180831161038257829003601f168201915b5050505050905090565b60006103b4826108e1565b6103d95760405162461bcd60e51b81526004016103d090611da9565b60405180910390fd5b506000908152600460205260409020546001600160a01b031690565b60006104008261062a565b9050806001600160a01b0316836001600160a01b031614156104345760405162461bcd60e51b81526004016103d090611ec2565b806001600160a01b03166104466108fe565b6001600160a01b031614806104625750610462816102ec6108fe565b61047e5760405162461bcd60e51b81526004016103d090611be5565b6104888383610902565b505050565b6104956108fe565b6001600160a01b03166104a66106ee565b6001600160a01b0316146104cc5760405162461bcd60e51b81526004016103d090611df5565b600c80546001600160a01b0319166001600160a01b0392909216919091179055565b60085490565b6105056104ff6108fe565b82610970565b6105215760405162461bcd60e51b81526004016103d090611f03565b6104888383836109f5565b60006105378361065f565b82106105555760405162461bcd60e51b81526004016103d0906119dc565b506001600160a01b03919091166000908152600660209081526040808320938352929052205490565b61048883838360405180602001604052806000815250610731565b600c546001600160a01b031633146105c35760405162461bcd60e51b81526004016103d090611bbd565b6105cc81610b22565b50565b60006105d96104ee565b82106105f75760405162461bcd60e51b81526004016103d090611f54565b6008828154811061061857634e487b7160e01b600052603260045260246000fd5b90600052602060002001549050919050565b6000818152600260205260408120546001600160a01b03168061030f5760405162461bcd60e51b81526004016103d090611c8c565b60006001600160a01b0382166106875760405162461bcd60e51b81526004016103d090611c42565b506001600160a01b031660009081526003602052604090205490565b6106ab6108fe565b6001600160a01b03166106bc6106ee565b6001600160a01b0316146106e25760405162461bcd60e51b81526004016103d090611df5565b6106ec6000610b2b565b565b600b546001600160a01b031690565b60606001805461032690612018565b600c546001600160a01b031690565b61072d6107266108fe565b8383610b7d565b5050565b61074261073c6108fe565b83610970565b61075e5760405162461bcd60e51b81526004016103d090611f03565b61076a84848484610c20565b50505050565b606061030f82610c53565b600c546001600160a01b031633146107a55760405162461bcd60e51b81526004016103d090611bbd565b60006107b1600d610d6c565b90506107bd600d610d70565b6107c78382610d79565b6107d18183610d93565b80826040516107e09190611922565b604051908190038120906001600160a01b038616907f37021d1908eb5d88f0643480d365f74a16995c98633411b11ab6b27f60ddfe1e90600090a4505050565b6001600160a01b03918216600090815260056020908152604080832093909416825291909152205460ff1690565b6108566108fe565b6001600160a01b03166108676106ee565b6001600160a01b03161461088d5760405162461bcd60e51b81526004016103d090611df5565b6001600160a01b0381166108b35760405162461bcd60e51b81526004016103d090611a79565b6105cc81610b2b565b60006001600160e01b0319821663780e9d6360e01b148061030f575061030f82610dd7565b6000908152600260205260409020546001600160a01b0316151590565b3390565b600081815260046020526040902080546001600160a01b0319166001600160a01b03841690811790915581906109378261062a565b6001600160a01b03167f8c5be1e5ebec7d5bd14f71427d1e84f3dd0314c0f7b2291e5b200ac8c7c3b92560405160405180910390a45050565b600061097b826108e1565b6109975760405162461bcd60e51b81526004016103d090611b71565b60006109a28361062a565b9050806001600160a01b0316846001600160a01b031614806109dd5750836001600160a01b03166109d2846103a9565b6001600160a01b0316145b806109ed57506109ed8185610820565b949350505050565b826001600160a01b0316610a088261062a565b6001600160a01b031614610a2e5760405162461bcd60e51b81526004016103d090611e2a565b6001600160a01b038216610a545760405162461bcd60e51b81526004016103d090611af6565b610a5f838383610e17565b610a6a600082610902565b6001600160a01b0383166000908152600360205260408120805460019290610a93908490611fd5565b90915550506001600160a01b0382166000908152600360205260408120805460019290610ac1908490611fa9565b909155505060008181526002602052604080822080546001600160a01b0319166001600160a01b0386811691821790925591518493918716917fddf252ad1be2c89b69c2b068fc378daa952ba7f163c4a11628f55a4df523b3ef91a4505050565b6105cc81610e22565b600b80546001600160a01b038381166001600160a01b0319831681179093556040519116919082907f8be0079c531659141344cd1fd0a4f28419497f9722a3daafe3b4186f6b6457e090600090a35050565b816001600160a01b0316836001600160a01b03161415610baf5760405162461bcd60e51b81526004016103d090611b3a565b6001600160a01b0383811660008181526005602090815260408083209487168084529490915290819020805460ff1916851515179055517f17307eab39ab6107e8899845ad3d59bd9653f200f220920489ca2b5937696c3190610c139085906119be565b60405180910390a3505050565b610c2b8484846109f5565b610c3784848484610e62565b61076a5760405162461bcd60e51b81526004016103d090611a27565b6060610c5e826108e1565b610c7a5760405162461bcd60e51b81526004016103d090611d58565b6000828152600a602052604081208054610c9390612018565b80601f0160208091040260200160405190810160405280929190818152602001828054610cbf90612018565b8015610d0c5780601f10610ce157610100808354040283529160200191610d0c565b820191906000526020600020905b815481529060010190602001808311610cef57829003601f168201915b505050505090506000610d1d610f7d565b9050805160001415610d3157509050610312565b815115610d63578082604051602001610d4b92919061193e565b60405160208183030381529060405292505050610312565b6109ed84610f8f565b5490565b80546001019055565b61072d828260405180602001604052806000815250611012565b610d9c826108e1565b610db85760405162461bcd60e51b81526004016103d090611cd5565b6000828152600a6020908152604090912082516104889284019061158c565b60006001600160e01b031982166380ac58cd60e01b1480610e0857506001600160e01b03198216635b5e139f60e01b145b8061030f575061030f82611045565b61048883838361105e565b610e2b816110e7565b6000818152600a602052604090208054610e4490612018565b1590506105cc576000818152600a602052604081206105cc91611610565b6000610e76846001600160a01b031661118e565b15610f7257836001600160a01b031663150b7a02610e926108fe565b8786866040518563ffffffff1660e01b8152600401610eb49493929190611981565b602060405180830381600087803b158015610ece57600080fd5b505af1925050508015610efe575060408051601f3d908101601f19168201909252610efb918101906118c2565b60015b610f58573d808015610f2c576040519150601f19603f3d011682016040523d82523d6000602084013e610f31565b606091505b508051610f505760405162461bcd60e51b81526004016103d090611a27565b805181602001fd5b6001600160e01b031916630a85bd0160e11b1490506109ed565b506001949350505050565b60408051602081019091526000815290565b6060610f9a826108e1565b610fb65760405162461bcd60e51b81526004016103d090611e73565b6000610fc0610f7d565b90506000815111610fe0576040518060200160405280600081525061100b565b80610fea84611194565b604051602001610ffb92919061193e565b6040516020818303038152906040525b9392505050565b61101c83836112af565b6110296000848484610e62565b6104885760405162461bcd60e51b81526004016103d090611a27565b6001600160e01b031981166301ffc9a760e01b14919050565b611069838383610488565b6001600160a01b038316611085576110808161138e565b6110a8565b816001600160a01b0316836001600160a01b0316146110a8576110a883826113d2565b6001600160a01b0382166110c4576110bf8161146f565b610488565b826001600160a01b0316826001600160a01b031614610488576104888282611548565b60006110f28261062a565b905061110081600084610e17565b61110b600083610902565b6001600160a01b0381166000908152600360205260408120805460019290611134908490611fd5565b909155505060008281526002602052604080822080546001600160a01b0319169055518391906001600160a01b038416907fddf252ad1be2c89b69c2b068fc378daa952ba7f163c4a11628f55a4df523b3ef908390a45050565b3b151590565b6060816111b957506040805180820190915260018152600360fc1b6020820152610312565b8160005b81156111e357806111cd81612053565b91506111dc9050600a83611fc1565b91506111bd565b60008167ffffffffffffffff81111561120c57634e487b7160e01b600052604160045260246000fd5b6040519080825280601f01601f191660200182016040528015611236576020820181803683370190505b5090505b84156109ed5761124b600183611fd5565b9150611258600a8661206e565b611263906030611fa9565b60f81b81838151811061128657634e487b7160e01b600052603260045260246000fd5b60200101906001600160f81b031916908160001a9053506112a8600a86611fc1565b945061123a565b6001600160a01b0382166112d55760405162461bcd60e51b81526004016103d090611d23565b6112de816108e1565b156112fb5760405162461bcd60e51b81526004016103d090611abf565b61130760008383610e17565b6001600160a01b0382166000908152600360205260408120805460019290611330908490611fa9565b909155505060008181526002602052604080822080546001600160a01b0319166001600160a01b03861690811790915590518392907fddf252ad1be2c89b69c2b068fc378daa952ba7f163c4a11628f55a4df523b3ef908290a45050565b600880546000838152600960205260408120829055600182018355919091527ff3f7a9fe364faab93b216da50a3214154f22a0a2b415b23a84c8169e8b636ee30155565b600060016113df8461065f565b6113e99190611fd5565b60008381526007602052604090205490915080821461143c576001600160a01b03841660009081526006602090815260408083208584528252808320548484528184208190558352600790915290208190555b5060009182526007602090815260408084208490556001600160a01b039094168352600681528383209183525290812055565b60085460009061148190600190611fd5565b600083815260096020526040812054600880549394509092849081106114b757634e487b7160e01b600052603260045260246000fd5b9060005260206000200154905080600883815481106114e657634e487b7160e01b600052603260045260246000fd5b600091825260208083209091019290925582815260099091526040808220849055858252812055600880548061152c57634e487b7160e01b600052603160045260246000fd5b6001900381819060005260206000200160009055905550505050565b60006115538361065f565b6001600160a01b039093166000908152600660209081526040808320868452825280832085905593825260079052919091209190915550565b82805461159890612018565b90600052602060002090601f0160209004810192826115ba5760008555611600565b82601f106115d357805160ff1916838001178555611600565b82800160010185558215611600579182015b828111156116005782518255916020019190600101906115e5565b5061160c929150611648565b5090565b50805461161c90612018565b6000825580601f1061162e57506105cc565b601f0160209004906000526020600020908101906105cc91905b5b8082111561160c5760008155600101611649565b600067ffffffffffffffff80841115611678576116786120ae565b604051601f8501601f19168101602001828111828210171561169c5761169c6120ae565b6040528481529150818385018610156116b457600080fd5b8484602083013760006020868301015250509392505050565b80356001600160a01b038116811461031257600080fd5b6000602082840312156116f5578081fd5b61100b826116cd565b60008060408385031215611710578081fd5b611719836116cd565b9150611727602084016116cd565b90509250929050565b600080600060608486031215611744578081fd5b61174d846116cd565b925061175b602085016116cd565b9150604084013590509250925092565b60008060008060808587031215611780578081fd5b611789856116cd565b9350611797602086016116cd565b925060408501359150606085013567ffffffffffffffff8111156117b9578182fd5b8501601f810187136117c9578182fd5b6117d88782356020840161165d565b91505092959194509250565b600080604083850312156117f6578182fd5b6117ff836116cd565b915060208301358015158114611813578182fd5b809150509250929050565b60008060408385031215611830578182fd5b611839836116cd565b9150602083013567ffffffffffffffff811115611854578182fd5b8301601f81018513611864578182fd5b6118738582356020840161165d565b9150509250929050565b6000806040838503121561188f578182fd5b611898836116cd565b946020939093013593505050565b6000602082840312156118b7578081fd5b813561100b816120c4565b6000602082840312156118d3578081fd5b815161100b816120c4565b6000602082840312156118ef578081fd5b5035919050565b6000815180845261190e816020860160208601611fec565b601f01601f19169290920160200192915050565b60008251611934818460208701611fec565b9190910192915050565b60008351611950818460208801611fec565b835190830190611964818360208801611fec565b01949350505050565b6001600160a01b0391909116815260200190565b6001600160a01b03858116825284166020820152604081018390526080606082018190526000906119b4908301846118f6565b9695505050505050565b901515815260200190565b60006020825261100b60208301846118f6565b6020808252602b908201527f455243373231456e756d657261626c653a206f776e657220696e646578206f7560408201526a74206f6620626f756e647360a81b606082015260800190565b60208082526032908201527f4552433732313a207472616e7366657220746f206e6f6e20455243373231526560408201527131b2b4bb32b91034b6b83632b6b2b73a32b960711b606082015260800190565b60208082526026908201527f4f776e61626c653a206e6577206f776e657220697320746865207a65726f206160408201526564647265737360d01b606082015260800190565b6020808252601c908201527f4552433732313a20746f6b656e20616c7265616479206d696e74656400000000604082015260600190565b60208082526024908201527f4552433732313a207472616e7366657220746f20746865207a65726f206164646040820152637265737360e01b606082015260800190565b60208082526019908201527f4552433732313a20617070726f766520746f2063616c6c657200000000000000604082015260600190565b6020808252602c908201527f4552433732313a206f70657261746f7220717565727920666f72206e6f6e657860408201526b34b9ba32b73a103a37b5b2b760a11b606082015260800190565b6020808252600e908201526d24b73b30b634b21039b2b73232b960911b604082015260600190565b60208082526038908201527f4552433732313a20617070726f76652063616c6c6572206973206e6f74206f7760408201527f6e6572206e6f7220617070726f76656420666f7220616c6c0000000000000000606082015260800190565b6020808252602a908201527f4552433732313a2062616c616e636520717565727920666f7220746865207a65604082015269726f206164647265737360b01b606082015260800190565b60208082526029908201527f4552433732313a206f776e657220717565727920666f72206e6f6e657869737460408201526832b73a103a37b5b2b760b91b606082015260800190565b6020808252602e908201527f45524337323155524953746f726167653a2055524920736574206f66206e6f6e60408201526d32bc34b9ba32b73a103a37b5b2b760911b606082015260800190565b6020808252818101527f4552433732313a206d696e7420746f20746865207a65726f2061646472657373604082015260600190565b60208082526031908201527f45524337323155524953746f726167653a2055524920717565727920666f72206040820152703737b732bc34b9ba32b73a103a37b5b2b760791b606082015260800190565b6020808252602c908201527f4552433732313a20617070726f76656420717565727920666f72206e6f6e657860408201526b34b9ba32b73a103a37b5b2b760a11b606082015260800190565b6020808252818101527f4f776e61626c653a2063616c6c6572206973206e6f7420746865206f776e6572604082015260600190565b60208082526029908201527f4552433732313a207472616e73666572206f6620746f6b656e2074686174206960408201526839903737ba1037bbb760b91b606082015260800190565b6020808252602f908201527f4552433732314d657461646174613a2055524920717565727920666f72206e6f60408201526e3732bc34b9ba32b73a103a37b5b2b760891b606082015260800190565b60208082526021908201527f4552433732313a20617070726f76616c20746f2063757272656e74206f776e656040820152603960f91b606082015260800190565b60208082526031908201527f4552433732313a207472616e736665722063616c6c6572206973206e6f74206f6040820152701ddb995c881b9bdc88185c1c1c9bdd9959607a1b606082015260800190565b6020808252602c908201527f455243373231456e756d657261626c653a20676c6f62616c20696e646578206f60408201526b7574206f6620626f756e647360a01b606082015260800190565b90815260200190565b60008219821115611fbc57611fbc612082565b500190565b600082611fd057611fd0612098565b500490565b600082821015611fe757611fe7612082565b500390565b60005b83811015612007578181015183820152602001611fef565b8381111561076a5750506000910152565b60028104600182168061202c57607f821691505b6020821081141561204d57634e487b7160e01b600052602260045260246000fd5b50919050565b600060001982141561206757612067612082565b5060010190565b60008261207d5761207d612098565b500690565b634e487b7160e01b600052601160045260246000fd5b634e487b7160e01b600052601260045260246000fd5b634e487b7160e01b600052604160045260246000fd5b6001600160e01b0319811681146105cc57600080fdfea2646970667358221220ef29608b47f8748ce1e1162be6ce31c6e5c7ad787a49902a0dce6ae5648adcf964736f6c63430008000033",
  "linkReferences": {},
  "deployedLinkReferences": {}
}