{
  "_format": "hh-sol-artifact-1",
  "contractName": "FxLimeGameItem",
  "sourceName": "contracts/FxLimeGameItem.sol",
  "abi": [
    {
      "inputs": [],
      "stateMutability": "nonpayable",
      "type": "constructor"
    },
    {
      "anonymous": false,
      "inputs": [
        {
          "indexed": true,
          "internalType": "address",
          "name": "owner",
          "type": "address"
        },
        {
          "indexed": true,
          "internalType": "address",
          "name": "approved",
          "type": "address"
        },
        {
          "indexed": true,
          "internalType": "uint256",
          "name": "tokenId",
          "type": "uint256"
        }
      ],
      "name": "Approval",
      "type": "event"
    },
    {
      "anonymous": false,
      "inputs": [
        {
          "indexed": true,
          "internalType": "address",
          "name": "owner",
          "type": "address"
        },
        {
          "indexed": true,
          "internalType": "address",
          "name": "operator",
          "type": "address"
        },
        {
          "indexed": false,
          "internalType": "bool",
          "name": "approved",
          "type": "bool"
        }
      ],
      "name": "ApprovalForAll",
      "type": "event"
    },
    {
      "anonymous": false,
      "inputs": [
        {
          "indexed": true,
          "internalType": "address",
          "name": "previousOwner",
          "type": "address"
        },
        {
          "indexed": true,
          "internalType": "address",
          "name": "newOwner",
          "type": "address"
        }
      ],
      "name": "OwnershipTransferred",
      "type": "event"
    },
    {
      "anonymous": false,
      "inputs": [
        {
          "indexed": true,
          "internalType": "address",
          "name": "to",
          "type": "address"
        },
        {
          "indexed": true,
          "internalType": "string",
          "name": "uri",
          "type": "string"
        },
        {
          "indexed": true,
          "internalType": "uint256",
          "name": "tokenId",
          "type": "uint256"
        }
      ],
      "name": "TokenMinted",
      "type": "event"
    },
    {
      "anonymous": false,
      "inputs": [
        {
          "indexed": true,
          "internalType": "address",
          "name": "from",
          "type": "address"
        },
        {
          "indexed": true,
          "internalType": "address",
          "name": "to",
          "type": "address"
        },
        {
          "indexed": true,
          "internalType": "uint256",
          "name": "tokenId",
          "type": "uint256"
        }
      ],
      "name": "Transfer",
      "type": "event"
    },
    {
      "inputs": [
        {
          "internalType": "address",
          "name": "to",
          "type": "address"
        },
        {
          "internalType": "uint256",
          "name": "tokenId",
          "type": "uint256"
        }
      ],
      "name": "approve",
      "outputs": [],
      "stateMutability": "nonpayable",
      "type": "function"
    },
    {
      "inputs": [
        {
          "internalType": "address",
          "name": "owner",
          "type": "address"
        }
      ],
      "name": "balanceOf",
      "outputs": [
        {
          "internalType": "uint256",
          "name": "",
          "type": "uint256"
        }
      ],
      "stateMutability": "view",
      "type": "function"
    },
    {
      "inputs": [
        {
          "internalType": "uint256",
          "name": "tokenId",
          "type": "uint256"
        }
      ],
      "name": "burn",
      "outputs": [],
      "stateMutability": "nonpayable",
      "type": "function"
    },
    {
      "inputs": [],
      "name": "connectedToken",
      "outputs": [
        {
          "internalType": "address",
          "name": "",
          "type": "address"
        }
      ],
      "stateMutability": "view",
      "type": "function"
    },
    {
      "inputs": [],
      "name": "fxManager",
      "outputs": [
        {
          "internalType": "address",
          "name": "",
          "type": "address"
        }
      ],
      "stateMutability": "view",
      "type": "function"
    },
    {
      "inputs": [
        {
          "internalType": "uint256",
          "name": "tokenId",
          "type": "uint256"
        }
      ],
      "name": "getApproved",
      "outputs": [
        {
          "internalType": "address",
          "name": "",
          "type": "address"
        }
      ],
      "stateMutability": "view",
      "type": "function"
    },
    {
      "inputs": [
        {
          "internalType": "address",
          "name": "fxManager_",
          "type": "address"
        },
        {
          "internalType": "address",
          "name": "connectedToken_",
          "type": "address"
        }
      ],
      "name": "initialize",
      "outputs": [],
      "stateMutability": "nonpayable",
      "type": "function"
    },
    {
      "inputs": [
        {
          "internalType": "address",
          "name": "owner",
          "type": "address"
        },
        {
          "internalType": "address",
          "name": "operator",
          "type": "address"
        }
      ],
      "name": "isApprovedForAll",
      "outputs": [
        {
          "internalType": "bool",
          "name": "",
          "type": "bool"
        }
      ],
      "stateMutability": "view",
      "type": "function"
    },
    {
      "inputs": [
        {
          "internalType": "address",
          "name": "to",
          "type": "address"
        },
        {
          "internalType": "string",
          "name": "uri",
          "type": "string"
        }
      ],
      "name": "mint",
      "outputs": [],
      "stateMutability": "nonpayable",
      "type": "function"
    },
    {
      "inputs": [],
      "name": "name",
      "outputs": [
        {
          "internalType": "string",
          "name": "",
          "type": "string"
        }
      ],
      "stateMutability": "view",
      "type": "function"
    },
    {
      "inputs": [],
      "name": "owner",
      "outputs": [
        {
          "internalType": "address",
          "name": "",
          "type": "address"
        }
      ],
      "stateMutability": "view",
      "type": "function"
    },
    {
      "inputs": [
        {
          "internalType": "uint256",
          "name": "tokenId",
          "type": "uint256"
        }
      ],
      "name": "ownerOf",
      "outputs": [
        {
          "internalType": "address",
          "name": "",
          "type": "address"
        }
      ],
      "stateMutability": "view",
      "type": "function"
    },
    {
      "inputs": [],
      "name": "renounceOwnership",
      "outputs": [],
      "stateMutability": "nonpayable",
      "type": "function"
    },
    {
      "inputs": [
        {
          "internalType": "address",
          "name": "from",
          "type": "address"
        },
        {
          "internalType": "address",
          "name": "to",
          "type": "address"
        },
        {
          "internalType": "uint256",
          "name": "tokenId",
          "type": "uint256"
        }
      ],
      "name": "safeTransferFrom",
      "outputs": [],
      "stateMutability": "nonpayable",
      "type": "function"
    },
    {
      "inputs": [
        {
          "internalType": "address",
          "name": "from",
          "type": "address"
        },
        {
          "internalType": "address",
          "name": "to",
          "type": "address"
        },
        {
          "internalType": "uint256",
          "name": "tokenId",
          "type": "uint256"
        },
        {
          "internalType": "bytes",
          "name": "_data",
          "type": "bytes"
        }
      ],
      "name": "safeTransferFrom",
      "outputs": [],
      "stateMutability": "nonpayable",
      "type": "function"
    },
    {
      "inputs": [
        {
          "internalType": "address",
          "name": "operator",
          "type": "address"
        },
        {
          "internalType": "bool",
          "name": "approved",
          "type": "bool"
        }
      ],
      "name": "setApprovalForAll",
      "outputs": [],
      "stateMutability": "nonpayable",
      "type": "function"
    },
    {
      "inputs": [
        {
          "internalType": "bytes4",
          "name": "interfaceId",
          "type": "bytes4"
        }
      ],
      "name": "supportsInterface",
      "outputs": [
        {
          "internalType": "bool",
          "name": "",
          "type": "bool"
        }
      ],
      "stateMutability": "view",
      "type": "function"
    },
    {
      "inputs": [],
      "name": "symbol",
      "outputs": [
        {
          "internalType": "string",
          "name": "",
          "type": "string"
        }
      ],
      "stateMutability": "view",
      "type": "function"
    },
    {
      "inputs": [
        {
          "internalType": "uint256",
          "name": "index",
          "type": "uint256"
        }
      ],
      "name": "tokenByIndex",
      "outputs": [
        {
          "internalType": "uint256",
          "name": "",
          "type": "uint256"
        }
      ],
      "stateMutability": "view",
      "type": "function"
    },
    {
      "inputs": [
        {
          "internalType": "address",
          "name": "owner",
          "type": "address"
        },
        {
          "internalType": "uint256",
          "name": "index",
          "type": "uint256"
        }
      ],
      "name": "tokenOfOwnerByIndex",
      "outputs": [
        {
          "internalType": "uint256",
          "name": "",
          "type": "uint256"
        }
      ],
      "stateMutability": "view",
      "type": "function"
    },
    {
      "inputs": [
        {
          "internalType": "uint256",
          "name": "tokenId",
          "type": "uint256"
        }
      ],
      "name": "tokenURI",
      "outputs": [
        {
          "internalType": "string",
          "name": "",
          "type": "string"
        }
      ],
      "stateMutability": "view",
      "type": "function"
    },
    {
      "inputs": [],
      "name": "totalSupply",
      "outputs": [
        {
          "internalType": "uint256",
          "name": "",
          "type": "uint256"
        }
      ],
      "stateMutability": "view",
      "type": "function"
    },
    {
      "inputs": [
        {
          "internalType": "address",
          "name": "from",
          "type": "address"
        },
        {
          "internalType": "address",
          "name": "to",
          "type": "address"
        },
        {
          "internalType": "uint256",
          "name": "tokenId",
          "type": "uint256"
        }
      ],
      "name": "transferFrom",
      "outputs": [],
      "stateMutability": "nonpayable",
      "type": "function"
    },
    {
      "inputs": [
        {
          "internalType": "address",
          "name": "newOwner",
          "type": "address"
        }
      ],
      "name": "transferOwnership",
      "outputs": [],
      "stateMutability": "nonpayable",
      "type": "function"
    }
  ],
  "bytecode": "0x60806040523480156200001157600080fd5b50604080518082018252600c81526b4c696d6547616d654974656d60a01b6020808301918252835180850190945260038452624c474960e81b9084015281519192916200006191600091620000f0565b50805162000077906001906020840190620000f0565b505050620000946200008e6200009a60201b60201c565b6200009e565b620001d3565b3390565b600b80546001600160a01b038381166001600160a01b0319831681179093556040519116919082907f8be0079c531659141344cd1fd0a4f28419497f9722a3daafe3b4186f6b6457e090600090a35050565b828054620000fe9062000196565b90600052602060002090601f0160209004810192826200012257600085556200016d565b82601f106200013d57805160ff19168380011785556200016d565b828001600101855582156200016d579182015b828111156200016d57825182559160200191906001019062000150565b506200017b9291506200017f565b5090565b5b808211156200017b576000815560010162000180565b600281046001821680620001ab57607f821691505b60208210811415620001cd57634e487b7160e01b600052602260045260246000fd5b50919050565b6121ba80620001e36000396000f3fe608060405234801561001057600080fd5b50600436106101585760003560e01c80636352211e116100c3578063a22cb4651161007c578063a22cb465146102a5578063b88d4fde146102b8578063c87b56dd146102cb578063d0def521146102de578063e985e9c5146102f1578063f2fde38b1461030457610158565b80636352211e1461025f57806370a0823114610272578063715018a6146102855780638da5cb5b1461028d57806395d89b41146102955780639b7791531461029d57610158565b806323b872dd1161011557806323b872dd146101ed5780632f745c591461020057806342842e0e1461021357806342966c6814610226578063485cc955146102395780634f6ccce71461024c57610158565b806301ffc9a71461015d57806306fdde0314610186578063081812fc1461019b578063095ea7b3146101bb5780630a8a4914146101d057806318160ddd146101d8575b600080fd5b61017061016b366004611919565b610317565b60405161017d9190611a31565b60405180910390f35b61018e61032a565b60405161017d9190611a3c565b6101ae6101a9366004611951565b6103bc565b60405161017d91906119e0565b6101ce6101c93660046118f0565b610408565b005b6101ae6104a0565b6101e06104af565b60405161017d919061204a565b6101ce6101fb3660046117a3565b6104b5565b6101e061020e3660046118f0565b6104ed565b6101ce6102213660046117a3565b61053f565b6101ce610234366004611951565b61055a565b6101ce610247366004611771565b6105b3565b6101e061025a366004611951565b61061f565b6101ae61026d366004611951565b61067a565b6101e0610280366004611757565b6106af565b6101ce6106f3565b6101ae61073e565b61018e61074d565b6101ae61075c565b6101ce6102b3366004611857565b61076b565b6101ce6102c63660046117de565b610781565b61018e6102d9366004611951565b6107c0565b6101ce6102ec366004611891565b6107cb565b6101706102ff366004611771565b610893565b6101ce610312366004611757565b6108c1565b60006103228261092f565b90505b919050565b606060008054610339906120c2565b80601f0160208091040260200160405190810160405280929190818152602001828054610365906120c2565b80156103b25780601f10610387576101008083540402835291602001916103b2565b820191906000526020600020905b81548152906001019060200180831161039557829003601f168201915b5050505050905090565b60006103c782610954565b6103ec5760405162461bcd60e51b81526004016103e390611e1c565b60405180910390fd5b506000908152600460205260409020546001600160a01b031690565b60006104138261067a565b9050806001600160a01b0316836001600160a01b031614156104475760405162461bcd60e51b81526004016103e390611f6c565b806001600160a01b0316610459610971565b6001600160a01b031614806104755750610475816102ff610971565b6104915760405162461bcd60e51b81526004016103e390611c58565b61049b8383610975565b505050565b600d546001600160a01b031690565b60085490565b6104c66104c0610971565b826109e3565b6104e25760405162461bcd60e51b81526004016103e390611fad565b61049b838383610a68565b60006104f8836106af565b82106105165760405162461bcd60e51b81526004016103e390611a4f565b506001600160a01b03919091166000908152600660209081526040808320938352929052205490565b61049b83838360405180602001604052806000815250610781565b600c546001600160a01b031633148061058b575061057661073e565b6001600160a01b0316336001600160a01b0316145b6105a75760405162461bcd60e51b81526004016103e390611c30565b6105b081610b95565b50565b600c546001600160a01b03161580156105d55750600d546001600160a01b0316155b6105f15760405162461bcd60e51b81526004016103e390611f35565b600c80546001600160a01b039384166001600160a01b031991821617909155600d8054929093169116179055565b60006106296104af565b82106106475760405162461bcd60e51b81526004016103e390611ffe565b6008828154811061066857634e487b7160e01b600052603260045260246000fd5b90600052602060002001549050919050565b6000818152600260205260408120546001600160a01b0316806103225760405162461bcd60e51b81526004016103e390611cff565b60006001600160a01b0382166106d75760405162461bcd60e51b81526004016103e390611cb5565b506001600160a01b031660009081526003602052604090205490565b6106fb610971565b6001600160a01b031661070c61073e565b6001600160a01b0316146107325760405162461bcd60e51b81526004016103e390611e68565b61073c6000610b9e565b565b600b546001600160a01b031690565b606060018054610339906120c2565b600c546001600160a01b031690565b61077d610776610971565b8383610bf0565b5050565b61079261078c610971565b836109e3565b6107ae5760405162461bcd60e51b81526004016103e390611fad565b6107ba84848484610c93565b50505050565b606061032282610cc6565b600c546001600160a01b03163314806107fc57506107e761073e565b6001600160a01b0316336001600160a01b0316145b6108185760405162461bcd60e51b81526004016103e390611c30565b6000610824600e610ddf565b9050610830600e610de3565b61083a8382610dec565b6108448183610e06565b80826040516108539190611995565b604051908190038120906001600160a01b038616907f37021d1908eb5d88f0643480d365f74a16995c98633411b11ab6b27f60ddfe1e90600090a4505050565b6001600160a01b03918216600090815260056020908152604080832093909416825291909152205460ff1690565b6108c9610971565b6001600160a01b03166108da61073e565b6001600160a01b0316146109005760405162461bcd60e51b81526004016103e390611e68565b6001600160a01b0381166109265760405162461bcd60e51b81526004016103e390611aec565b6105b081610b9e565b60006001600160e01b0319821663780e9d6360e01b1480610322575061032282610e4a565b6000908152600260205260409020546001600160a01b0316151590565b3390565b600081815260046020526040902080546001600160a01b0319166001600160a01b03841690811790915581906109aa8261067a565b6001600160a01b03167f8c5be1e5ebec7d5bd14f71427d1e84f3dd0314c0f7b2291e5b200ac8c7c3b92560405160405180910390a45050565b60006109ee82610954565b610a0a5760405162461bcd60e51b81526004016103e390611be4565b6000610a158361067a565b9050806001600160a01b0316846001600160a01b03161480610a505750836001600160a01b0316610a45846103bc565b6001600160a01b0316145b80610a605750610a608185610893565b949350505050565b826001600160a01b0316610a7b8261067a565b6001600160a01b031614610aa15760405162461bcd60e51b81526004016103e390611e9d565b6001600160a01b038216610ac75760405162461bcd60e51b81526004016103e390611b69565b610ad2838383610e8a565b610add600082610975565b6001600160a01b0383166000908152600360205260408120805460019290610b0690849061207f565b90915550506001600160a01b0382166000908152600360205260408120805460019290610b34908490612053565b909155505060008181526002602052604080822080546001600160a01b0319166001600160a01b0386811691821790925591518493918716917fddf252ad1be2c89b69c2b068fc378daa952ba7f163c4a11628f55a4df523b3ef91a4505050565b6105b081610e95565b600b80546001600160a01b038381166001600160a01b0319831681179093556040519116919082907f8be0079c531659141344cd1fd0a4f28419497f9722a3daafe3b4186f6b6457e090600090a35050565b816001600160a01b0316836001600160a01b03161415610c225760405162461bcd60e51b81526004016103e390611bad565b6001600160a01b0383811660008181526005602090815260408083209487168084529490915290819020805460ff1916851515179055517f17307eab39ab6107e8899845ad3d59bd9653f200f220920489ca2b5937696c3190610c86908590611a31565b60405180910390a3505050565b610c9e848484610a68565b610caa84848484610ed5565b6107ba5760405162461bcd60e51b81526004016103e390611a9a565b6060610cd182610954565b610ced5760405162461bcd60e51b81526004016103e390611dcb565b6000828152600a602052604081208054610d06906120c2565b80601f0160208091040260200160405190810160405280929190818152602001828054610d32906120c2565b8015610d7f5780601f10610d5457610100808354040283529160200191610d7f565b820191906000526020600020905b815481529060010190602001808311610d6257829003601f168201915b505050505090506000610d90610ff0565b9050805160001415610da457509050610325565b815115610dd6578082604051602001610dbe9291906119b1565b60405160208183030381529060405292505050610325565b610a6084611002565b5490565b80546001019055565b61077d828260405180602001604052806000815250611085565b610e0f82610954565b610e2b5760405162461bcd60e51b81526004016103e390611d48565b6000828152600a60209081526040909120825161049b928401906115ff565b60006001600160e01b031982166380ac58cd60e01b1480610e7b57506001600160e01b03198216635b5e139f60e01b145b806103225750610322826110b8565b61049b8383836110d1565b610e9e8161115a565b6000818152600a602052604090208054610eb7906120c2565b1590506105b0576000818152600a602052604081206105b091611683565b6000610ee9846001600160a01b0316611201565b15610fe557836001600160a01b031663150b7a02610f05610971565b8786866040518563ffffffff1660e01b8152600401610f2794939291906119f4565b602060405180830381600087803b158015610f4157600080fd5b505af1925050508015610f71575060408051601f3d908101601f19168201909252610f6e91810190611935565b60015b610fcb573d808015610f9f576040519150601f19603f3d011682016040523d82523d6000602084013e610fa4565b606091505b508051610fc35760405162461bcd60e51b81526004016103e390611a9a565b805181602001fd5b6001600160e01b031916630a85bd0160e11b149050610a60565b506001949350505050565b60408051602081019091526000815290565b606061100d82610954565b6110295760405162461bcd60e51b81526004016103e390611ee6565b6000611033610ff0565b90506000815111611053576040518060200160405280600081525061107e565b8061105d84611207565b60405160200161106e9291906119b1565b6040516020818303038152906040525b9392505050565b61108f8383611322565b61109c6000848484610ed5565b61049b5760405162461bcd60e51b81526004016103e390611a9a565b6001600160e01b031981166301ffc9a760e01b14919050565b6110dc83838361049b565b6001600160a01b0383166110f8576110f381611401565b61111b565b816001600160a01b0316836001600160a01b03161461111b5761111b8382611445565b6001600160a01b03821661113757611132816114e2565b61049b565b826001600160a01b0316826001600160a01b03161461049b5761049b82826115bb565b60006111658261067a565b905061117381600084610e8a565b61117e600083610975565b6001600160a01b03811660009081526003602052604081208054600192906111a790849061207f565b909155505060008281526002602052604080822080546001600160a01b0319169055518391906001600160a01b038416907fddf252ad1be2c89b69c2b068fc378daa952ba7f163c4a11628f55a4df523b3ef908390a45050565b3b151590565b60608161122c57506040805180820190915260018152600360fc1b6020820152610325565b8160005b81156112565780611240816120fd565b915061124f9050600a8361206b565b9150611230565b60008167ffffffffffffffff81111561127f57634e487b7160e01b600052604160045260246000fd5b6040519080825280601f01601f1916602001820160405280156112a9576020820181803683370190505b5090505b8415610a60576112be60018361207f565b91506112cb600a86612118565b6112d6906030612053565b60f81b8183815181106112f957634e487b7160e01b600052603260045260246000fd5b60200101906001600160f81b031916908160001a90535061131b600a8661206b565b94506112ad565b6001600160a01b0382166113485760405162461bcd60e51b81526004016103e390611d96565b61135181610954565b1561136e5760405162461bcd60e51b81526004016103e390611b32565b61137a60008383610e8a565b6001600160a01b03821660009081526003602052604081208054600192906113a3908490612053565b909155505060008181526002602052604080822080546001600160a01b0319166001600160a01b03861690811790915590518392907fddf252ad1be2c89b69c2b068fc378daa952ba7f163c4a11628f55a4df523b3ef908290a45050565b600880546000838152600960205260408120829055600182018355919091527ff3f7a9fe364faab93b216da50a3214154f22a0a2b415b23a84c8169e8b636ee30155565b60006001611452846106af565b61145c919061207f565b6000838152600760205260409020549091508082146114af576001600160a01b03841660009081526006602090815260408083208584528252808320548484528184208190558352600790915290208190555b5060009182526007602090815260408084208490556001600160a01b039094168352600681528383209183525290812055565b6008546000906114f49060019061207f565b6000838152600960205260408120546008805493945090928490811061152a57634e487b7160e01b600052603260045260246000fd5b90600052602060002001549050806008838154811061155957634e487b7160e01b600052603260045260246000fd5b600091825260208083209091019290925582815260099091526040808220849055858252812055600880548061159f57634e487b7160e01b600052603160045260246000fd5b6001900381819060005260206000200160009055905550505050565b60006115c6836106af565b6001600160a01b039093166000908152600660209081526040808320868452825280832085905593825260079052919091209190915550565b82805461160b906120c2565b90600052602060002090601f01602090048101928261162d5760008555611673565b82601f1061164657805160ff1916838001178555611673565b82800160010185558215611673579182015b82811115611673578251825591602001919060010190611658565b5061167f9291506116bb565b5090565b50805461168f906120c2565b6000825580601f106116a157506105b0565b601f0160209004906000526020600020908101906105b091905b5b8082111561167f57600081556001016116bc565b600067ffffffffffffffff808411156116eb576116eb612158565b604051601f8501601f19168101602001828111828210171561170f5761170f612158565b60405284815291508183850186101561172757600080fd5b8484602083013760006020868301015250509392505050565b80356001600160a01b038116811461032557600080fd5b600060208284031215611768578081fd5b61107e82611740565b60008060408385031215611783578081fd5b61178c83611740565b915061179a60208401611740565b90509250929050565b6000806000606084860312156117b7578081fd5b6117c084611740565b92506117ce60208501611740565b9150604084013590509250925092565b600080600080608085870312156117f3578081fd5b6117fc85611740565b935061180a60208601611740565b925060408501359150606085013567ffffffffffffffff81111561182c578182fd5b8501601f8101871361183c578182fd5b61184b878235602084016116d0565b91505092959194509250565b60008060408385031215611869578182fd5b61187283611740565b915060208301358015158114611886578182fd5b809150509250929050565b600080604083850312156118a3578182fd5b6118ac83611740565b9150602083013567ffffffffffffffff8111156118c7578182fd5b8301601f810185136118d7578182fd5b6118e6858235602084016116d0565b9150509250929050565b60008060408385031215611902578182fd5b61190b83611740565b946020939093013593505050565b60006020828403121561192a578081fd5b813561107e8161216e565b600060208284031215611946578081fd5b815161107e8161216e565b600060208284031215611962578081fd5b5035919050565b60008151808452611981816020860160208601612096565b601f01601f19169290920160200192915050565b600082516119a7818460208701612096565b9190910192915050565b600083516119c3818460208801612096565b8351908301906119d7818360208801612096565b01949350505050565b6001600160a01b0391909116815260200190565b6001600160a01b0385811682528416602082015260408101839052608060608201819052600090611a2790830184611969565b9695505050505050565b901515815260200190565b60006020825261107e6020830184611969565b6020808252602b908201527f455243373231456e756d657261626c653a206f776e657220696e646578206f7560408201526a74206f6620626f756e647360a81b606082015260800190565b60208082526032908201527f4552433732313a207472616e7366657220746f206e6f6e20455243373231526560408201527131b2b4bb32b91034b6b83632b6b2b73a32b960711b606082015260800190565b60208082526026908201527f4f776e61626c653a206e6577206f776e657220697320746865207a65726f206160408201526564647265737360d01b606082015260800190565b6020808252601c908201527f4552433732313a20746f6b656e20616c7265616479206d696e74656400000000604082015260600190565b60208082526024908201527f4552433732313a207472616e7366657220746f20746865207a65726f206164646040820152637265737360e01b606082015260800190565b60208082526019908201527f4552433732313a20617070726f766520746f2063616c6c657200000000000000604082015260600190565b6020808252602c908201527f4552433732313a206f70657261746f7220717565727920666f72206e6f6e657860408201526b34b9ba32b73a103a37b5b2b760a11b606082015260800190565b6020808252600e908201526d24b73b30b634b21039b2b73232b960911b604082015260600190565b60208082526038908201527f4552433732313a20617070726f76652063616c6c6572206973206e6f74206f7760408201527f6e6572206e6f7220617070726f76656420666f7220616c6c0000000000000000606082015260800190565b6020808252602a908201527f4552433732313a2062616c616e636520717565727920666f7220746865207a65604082015269726f206164647265737360b01b606082015260800190565b60208082526029908201527f4552433732313a206f776e657220717565727920666f72206e6f6e657869737460408201526832b73a103a37b5b2b760b91b606082015260800190565b6020808252602e908201527f45524337323155524953746f726167653a2055524920736574206f66206e6f6e60408201526d32bc34b9ba32b73a103a37b5b2b760911b606082015260800190565b6020808252818101527f4552433732313a206d696e7420746f20746865207a65726f2061646472657373604082015260600190565b60208082526031908201527f45524337323155524953746f726167653a2055524920717565727920666f72206040820152703737b732bc34b9ba32b73a103a37b5b2b760791b606082015260800190565b6020808252602c908201527f4552433732313a20617070726f76656420717565727920666f72206e6f6e657860408201526b34b9ba32b73a103a37b5b2b760a11b606082015260800190565b6020808252818101527f4f776e61626c653a2063616c6c6572206973206e6f7420746865206f776e6572604082015260600190565b60208082526029908201527f4552433732313a207472616e73666572206f6620746f6b656e2074686174206960408201526839903737ba1037bbb760b91b606082015260800190565b6020808252602f908201527f4552433732314d657461646174613a2055524920717565727920666f72206e6f60408201526e3732bc34b9ba32b73a103a37b5b2b760891b606082015260800190565b6020808252601c908201527f546f6b656e20697320616c726561647920696e697469616c697a656400000000604082015260600190565b60208082526021908201527f4552433732313a20617070726f76616c20746f2063757272656e74206f776e656040820152603960f91b606082015260800190565b60208082526031908201527f4552433732313a207472616e736665722063616c6c6572206973206e6f74206f6040820152701ddb995c881b9bdc88185c1c1c9bdd9959607a1b606082015260800190565b6020808252602c908201527f455243373231456e756d657261626c653a20676c6f62616c20696e646578206f60408201526b7574206f6620626f756e647360a01b606082015260800190565b90815260200190565b600082198211156120665761206661212c565b500190565b60008261207a5761207a612142565b500490565b6000828210156120915761209161212c565b500390565b60005b838110156120b1578181015183820152602001612099565b838111156107ba5750506000910152565b6002810460018216806120d657607f821691505b602082108114156120f757634e487b7160e01b600052602260045260246000fd5b50919050565b60006000198214156121115761211161212c565b5060010190565b60008261212757612127612142565b500690565b634e487b7160e01b600052601160045260246000fd5b634e487b7160e01b600052601260045260246000fd5b634e487b7160e01b600052604160045260246000fd5b6001600160e01b0319811681146105b057600080fdfea2646970667358221220502e19d97850e78f2c49011b33ea85e9b724e4f874cee2c849d6baa58abe7ca664736f6c63430008000033",
  "linkReferences": {},
  "deployedLinkReferences": {}
}