{
  "_format": "hh-sol-artifact-1",
  "contractName": "FxLimeGameItem",
  "sourceName": "contracts/FxLimeGameItem.sol",
  "abi": [
    {
      "inputs": [],
      "stateMutability": "nonpayable",
      "type": "constructor"
    },
    {
      "anonymous": false,
      "inputs": [
        {
          "indexed": true,
          "internalType": "address",
          "name": "owner",
          "type": "address"
        },
        {
          "indexed": true,
          "internalType": "address",
          "name": "approved",
          "type": "address"
        },
        {
          "indexed": true,
          "internalType": "uint256",
          "name": "tokenId",
          "type": "uint256"
        }
      ],
      "name": "Approval",
      "type": "event"
    },
    {
      "anonymous": false,
      "inputs": [
        {
          "indexed": true,
          "internalType": "address",
          "name": "owner",
          "type": "address"
        },
        {
          "indexed": true,
          "internalType": "address",
          "name": "operator",
          "type": "address"
        },
        {
          "indexed": false,
          "internalType": "bool",
          "name": "approved",
          "type": "bool"
        }
      ],
      "name": "ApprovalForAll",
      "type": "event"
    },
    {
      "anonymous": false,
      "inputs": [
        {
          "indexed": true,
          "internalType": "address",
          "name": "previousOwner",
          "type": "address"
        },
        {
          "indexed": true,
          "internalType": "address",
          "name": "newOwner",
          "type": "address"
        }
      ],
      "name": "OwnershipTransferred",
      "type": "event"
    },
    {
      "anonymous": false,
      "inputs": [
        {
          "indexed": true,
          "internalType": "address",
          "name": "to",
          "type": "address"
        },
        {
          "indexed": true,
          "internalType": "string",
          "name": "uri",
          "type": "string"
        },
        {
          "indexed": true,
          "internalType": "uint256",
          "name": "tokenId",
          "type": "uint256"
        }
      ],
      "name": "TokenMinted",
      "type": "event"
    },
    {
      "anonymous": false,
      "inputs": [
        {
          "indexed": true,
          "internalType": "address",
          "name": "from",
          "type": "address"
        },
        {
          "indexed": true,
          "internalType": "address",
          "name": "to",
          "type": "address"
        },
        {
          "indexed": true,
          "internalType": "uint256",
          "name": "tokenId",
          "type": "uint256"
        }
      ],
      "name": "Transfer",
      "type": "event"
    },
    {
      "inputs": [
        {
          "internalType": "address",
          "name": "to",
          "type": "address"
        },
        {
          "internalType": "uint256",
          "name": "tokenId",
          "type": "uint256"
        }
      ],
      "name": "approve",
      "outputs": [],
      "stateMutability": "nonpayable",
      "type": "function"
    },
    {
      "inputs": [
        {
          "internalType": "address",
          "name": "owner",
          "type": "address"
        }
      ],
      "name": "balanceOf",
      "outputs": [
        {
          "internalType": "uint256",
          "name": "",
          "type": "uint256"
        }
      ],
      "stateMutability": "view",
      "type": "function"
    },
    {
      "inputs": [
        {
          "internalType": "uint256",
          "name": "tokenId",
          "type": "uint256"
        }
      ],
      "name": "burn",
      "outputs": [],
      "stateMutability": "nonpayable",
      "type": "function"
    },
    {
      "inputs": [],
      "name": "fxManager",
      "outputs": [
        {
          "internalType": "address",
          "name": "",
          "type": "address"
        }
      ],
      "stateMutability": "view",
      "type": "function"
    },
    {
      "inputs": [
        {
          "internalType": "uint256",
          "name": "tokenId",
          "type": "uint256"
        }
      ],
      "name": "getApproved",
      "outputs": [
        {
          "internalType": "address",
          "name": "",
          "type": "address"
        }
      ],
      "stateMutability": "view",
      "type": "function"
    },
    {
      "inputs": [
        {
          "internalType": "address",
          "name": "owner",
          "type": "address"
        },
        {
          "internalType": "address",
          "name": "operator",
          "type": "address"
        }
      ],
      "name": "isApprovedForAll",
      "outputs": [
        {
          "internalType": "bool",
          "name": "",
          "type": "bool"
        }
      ],
      "stateMutability": "view",
      "type": "function"
    },
    {
      "inputs": [
        {
          "internalType": "address",
          "name": "to",
          "type": "address"
        },
        {
          "internalType": "string",
          "name": "uri",
          "type": "string"
        }
      ],
      "name": "mint",
      "outputs": [],
      "stateMutability": "nonpayable",
      "type": "function"
    },
    {
      "inputs": [],
      "name": "name",
      "outputs": [
        {
          "internalType": "string",
          "name": "",
          "type": "string"
        }
      ],
      "stateMutability": "view",
      "type": "function"
    },
    {
      "inputs": [],
      "name": "owner",
      "outputs": [
        {
          "internalType": "address",
          "name": "",
          "type": "address"
        }
      ],
      "stateMutability": "view",
      "type": "function"
    },
    {
      "inputs": [
        {
          "internalType": "uint256",
          "name": "tokenId",
          "type": "uint256"
        }
      ],
      "name": "ownerOf",
      "outputs": [
        {
          "internalType": "address",
          "name": "",
          "type": "address"
        }
      ],
      "stateMutability": "view",
      "type": "function"
    },
    {
      "inputs": [],
      "name": "renounceOwnership",
      "outputs": [],
      "stateMutability": "nonpayable",
      "type": "function"
    },
    {
      "inputs": [
        {
          "internalType": "address",
          "name": "from",
          "type": "address"
        },
        {
          "internalType": "address",
          "name": "to",
          "type": "address"
        },
        {
          "internalType": "uint256",
          "name": "tokenId",
          "type": "uint256"
        }
      ],
      "name": "safeTransferFrom",
      "outputs": [],
      "stateMutability": "nonpayable",
      "type": "function"
    },
    {
      "inputs": [
        {
          "internalType": "address",
          "name": "from",
          "type": "address"
        },
        {
          "internalType": "address",
          "name": "to",
          "type": "address"
        },
        {
          "internalType": "uint256",
          "name": "tokenId",
          "type": "uint256"
        },
        {
          "internalType": "bytes",
          "name": "_data",
          "type": "bytes"
        }
      ],
      "name": "safeTransferFrom",
      "outputs": [],
      "stateMutability": "nonpayable",
      "type": "function"
    },
    {
      "inputs": [
        {
          "internalType": "address",
          "name": "operator",
          "type": "address"
        },
        {
          "internalType": "bool",
          "name": "approved",
          "type": "bool"
        }
      ],
      "name": "setApprovalForAll",
      "outputs": [],
      "stateMutability": "nonpayable",
      "type": "function"
    },
    {
      "inputs": [
        {
          "internalType": "address",
          "name": "fxManager_",
          "type": "address"
        }
      ],
      "name": "setFxManager",
      "outputs": [],
      "stateMutability": "nonpayable",
      "type": "function"
    },
    {
      "inputs": [
        {
          "internalType": "bytes4",
          "name": "interfaceId",
          "type": "bytes4"
        }
      ],
      "name": "supportsInterface",
      "outputs": [
        {
          "internalType": "bool",
          "name": "",
          "type": "bool"
        }
      ],
      "stateMutability": "view",
      "type": "function"
    },
    {
      "inputs": [],
      "name": "symbol",
      "outputs": [
        {
          "internalType": "string",
          "name": "",
          "type": "string"
        }
      ],
      "stateMutability": "view",
      "type": "function"
    },
    {
      "inputs": [
        {
          "internalType": "uint256",
          "name": "index",
          "type": "uint256"
        }
      ],
      "name": "tokenByIndex",
      "outputs": [
        {
          "internalType": "uint256",
          "name": "",
          "type": "uint256"
        }
      ],
      "stateMutability": "view",
      "type": "function"
    },
    {
      "inputs": [
        {
          "internalType": "address",
          "name": "owner",
          "type": "address"
        },
        {
          "internalType": "uint256",
          "name": "index",
          "type": "uint256"
        }
      ],
      "name": "tokenOfOwnerByIndex",
      "outputs": [
        {
          "internalType": "uint256",
          "name": "",
          "type": "uint256"
        }
      ],
      "stateMutability": "view",
      "type": "function"
    },
    {
      "inputs": [
        {
          "internalType": "uint256",
          "name": "tokenId",
          "type": "uint256"
        }
      ],
      "name": "tokenURI",
      "outputs": [
        {
          "internalType": "string",
          "name": "",
          "type": "string"
        }
      ],
      "stateMutability": "view",
      "type": "function"
    },
    {
      "inputs": [],
      "name": "totalSupply",
      "outputs": [
        {
          "internalType": "uint256",
          "name": "",
          "type": "uint256"
        }
      ],
      "stateMutability": "view",
      "type": "function"
    },
    {
      "inputs": [
        {
          "internalType": "address",
          "name": "from",
          "type": "address"
        },
        {
          "internalType": "address",
          "name": "to",
          "type": "address"
        },
        {
          "internalType": "uint256",
          "name": "tokenId",
          "type": "uint256"
        }
      ],
      "name": "transferFrom",
      "outputs": [],
      "stateMutability": "nonpayable",
      "type": "function"
    },
    {
      "inputs": [
        {
          "internalType": "address",
          "name": "newOwner",
          "type": "address"
        }
      ],
      "name": "transferOwnership",
      "outputs": [],
      "stateMutability": "nonpayable",
      "type": "function"
    }
  ],
  "bytecode": "0x60806040523480156200001157600080fd5b50604080518082018252600c81526b4c696d6547616d654974656d60a01b6020808301918252835180850190945260038452624c474960e81b90840152815191929162000061916000916200011a565b508051620000779060019060208401906200011a565b505050620000946200008e620000c460201b60201c565b620000c8565b6200009e620000c4565b600c80546001600160a01b0319166001600160a01b0392909216919091179055620001fd565b3390565b600b80546001600160a01b038381166001600160a01b0319831681179093556040519116919082907f8be0079c531659141344cd1fd0a4f28419497f9722a3daafe3b4186f6b6457e090600090a35050565b8280546200012890620001c0565b90600052602060002090601f0160209004810192826200014c576000855562000197565b82601f106200016757805160ff191683800117855562000197565b8280016001018555821562000197579182015b82811115620001975782518255916020019190600101906200017a565b50620001a5929150620001a9565b5090565b5b80821115620001a55760008155600101620001aa565b600281046001821680620001d557607f821691505b60208210811415620001f757634e487b7160e01b600052602260045260246000fd5b50919050565b6120e6806200020d6000396000f3fe608060405234801561001057600080fd5b506004361061014d5760003560e01c80636352211e116100c3578063a22cb4651161007c578063a22cb46514610292578063b88d4fde146102a5578063c87b56dd146102b8578063d0def521146102cb578063e985e9c5146102de578063f2fde38b146102f15761014d565b80636352211e1461024c57806370a082311461025f578063715018a6146102725780638da5cb5b1461027a57806395d89b41146102825780639b7791531461028a5761014d565b806318160ddd1161011557806318160ddd146101d857806323b872dd146101ed5780632f745c591461020057806342842e0e1461021357806342966c68146102265780634f6ccce7146102395761014d565b806301ffc9a71461015257806306fdde031461017b578063081812fc14610190578063095ea7b3146101b0578063115a4689146101c5575b600080fd5b61016561016036600461187c565b610304565b6040516101729190611994565b60405180910390f35b610183610317565b604051610172919061199f565b6101a361019e3660046118b4565b6103a9565b6040516101729190611943565b6101c36101be366004611853565b6103f5565b005b6101c36101d33660046116ba565b61048d565b6101e06104ee565b6040516101729190611f76565b6101c36101fb366004611706565b6104f4565b6101e061020e366004611853565b61052c565b6101c3610221366004611706565b61057e565b6101c36102343660046118b4565b610599565b6101e06102473660046118b4565b6105a5565b6101a361025a3660046118b4565b610600565b6101e061026d3660046116ba565b610635565b6101c3610679565b6101a36106c4565b6101836106d3565b6101a36106e2565b6101c36102a03660046117ba565b6106f1565b6101c36102b3366004611741565b610707565b6101836102c63660046118b4565b610746565b6101c36102d93660046117f4565b610751565b6101656102ec3660046116d4565b6107f6565b6101c36102ff3660046116ba565b610824565b600061030f82610892565b90505b919050565b60606000805461032690611fee565b80601f016020809104026020016040519081016040528092919081815260200182805461035290611fee565b801561039f5780601f106103745761010080835404028352916020019161039f565b820191906000526020600020905b81548152906001019060200180831161038257829003601f168201915b5050505050905090565b60006103b4826108b7565b6103d95760405162461bcd60e51b81526004016103d090611d7f565b60405180910390fd5b506000908152600460205260409020546001600160a01b031690565b600061040082610600565b9050806001600160a01b0316836001600160a01b031614156104345760405162461bcd60e51b81526004016103d090611e98565b806001600160a01b03166104466108d4565b6001600160a01b031614806104625750610462816102ec6108d4565b61047e5760405162461bcd60e51b81526004016103d090611bbb565b61048883836108d8565b505050565b6104956108d4565b6001600160a01b03166104a66106c4565b6001600160a01b0316146104cc5760405162461bcd60e51b81526004016103d090611dcb565b600c80546001600160a01b0319166001600160a01b0392909216919091179055565b60085490565b6105056104ff6108d4565b82610946565b6105215760405162461bcd60e51b81526004016103d090611ed9565b6104888383836109cb565b600061053783610635565b82106105555760405162461bcd60e51b81526004016103d0906119b2565b506001600160a01b03919091166000908152600660209081526040808320938352929052205490565b61048883838360405180602001604052806000815250610707565b6105a281610af8565b50565b60006105af6104ee565b82106105cd5760405162461bcd60e51b81526004016103d090611f2a565b600882815481106105ee57634e487b7160e01b600052603260045260246000fd5b90600052602060002001549050919050565b6000818152600260205260408120546001600160a01b03168061030f5760405162461bcd60e51b81526004016103d090611c62565b60006001600160a01b03821661065d5760405162461bcd60e51b81526004016103d090611c18565b506001600160a01b031660009081526003602052604090205490565b6106816108d4565b6001600160a01b03166106926106c4565b6001600160a01b0316146106b85760405162461bcd60e51b81526004016103d090611dcb565b6106c26000610b01565b565b600b546001600160a01b031690565b60606001805461032690611fee565b600c546001600160a01b031690565b6107036106fc6108d4565b8383610b53565b5050565b6107186107126108d4565b83610946565b6107345760405162461bcd60e51b81526004016103d090611ed9565b61074084848484610bf6565b50505050565b606061030f82610c29565b600c546001600160a01b0316331461077b5760405162461bcd60e51b81526004016103d090611b93565b6000610787600d610d42565b9050610793600d610d46565b61079d8382610d4f565b6107a78183610d69565b80826040516107b691906118f8565b604051908190038120906001600160a01b038616907f37021d1908eb5d88f0643480d365f74a16995c98633411b11ab6b27f60ddfe1e90600090a4505050565b6001600160a01b03918216600090815260056020908152604080832093909416825291909152205460ff1690565b61082c6108d4565b6001600160a01b031661083d6106c4565b6001600160a01b0316146108635760405162461bcd60e51b81526004016103d090611dcb565b6001600160a01b0381166108895760405162461bcd60e51b81526004016103d090611a4f565b6105a281610b01565b60006001600160e01b0319821663780e9d6360e01b148061030f575061030f82610dad565b6000908152600260205260409020546001600160a01b0316151590565b3390565b600081815260046020526040902080546001600160a01b0319166001600160a01b038416908117909155819061090d82610600565b6001600160a01b03167f8c5be1e5ebec7d5bd14f71427d1e84f3dd0314c0f7b2291e5b200ac8c7c3b92560405160405180910390a45050565b6000610951826108b7565b61096d5760405162461bcd60e51b81526004016103d090611b47565b600061097883610600565b9050806001600160a01b0316846001600160a01b031614806109b35750836001600160a01b03166109a8846103a9565b6001600160a01b0316145b806109c357506109c381856107f6565b949350505050565b826001600160a01b03166109de82610600565b6001600160a01b031614610a045760405162461bcd60e51b81526004016103d090611e00565b6001600160a01b038216610a2a5760405162461bcd60e51b81526004016103d090611acc565b610a35838383610ded565b610a406000826108d8565b6001600160a01b0383166000908152600360205260408120805460019290610a69908490611fab565b90915550506001600160a01b0382166000908152600360205260408120805460019290610a97908490611f7f565b909155505060008181526002602052604080822080546001600160a01b0319166001600160a01b0386811691821790925591518493918716917fddf252ad1be2c89b69c2b068fc378daa952ba7f163c4a11628f55a4df523b3ef91a4505050565b6105a281610df8565b600b80546001600160a01b038381166001600160a01b0319831681179093556040519116919082907f8be0079c531659141344cd1fd0a4f28419497f9722a3daafe3b4186f6b6457e090600090a35050565b816001600160a01b0316836001600160a01b03161415610b855760405162461bcd60e51b81526004016103d090611b10565b6001600160a01b0383811660008181526005602090815260408083209487168084529490915290819020805460ff1916851515179055517f17307eab39ab6107e8899845ad3d59bd9653f200f220920489ca2b5937696c3190610be9908590611994565b60405180910390a3505050565b610c018484846109cb565b610c0d84848484610e38565b6107405760405162461bcd60e51b81526004016103d0906119fd565b6060610c34826108b7565b610c505760405162461bcd60e51b81526004016103d090611d2e565b6000828152600a602052604081208054610c6990611fee565b80601f0160208091040260200160405190810160405280929190818152602001828054610c9590611fee565b8015610ce25780601f10610cb757610100808354040283529160200191610ce2565b820191906000526020600020905b815481529060010190602001808311610cc557829003601f168201915b505050505090506000610cf3610f53565b9050805160001415610d0757509050610312565b815115610d39578082604051602001610d21929190611914565b60405160208183030381529060405292505050610312565b6109c384610f65565b5490565b80546001019055565b610703828260405180602001604052806000815250610fe8565b610d72826108b7565b610d8e5760405162461bcd60e51b81526004016103d090611cab565b6000828152600a60209081526040909120825161048892840190611562565b60006001600160e01b031982166380ac58cd60e01b1480610dde57506001600160e01b03198216635b5e139f60e01b145b8061030f575061030f8261101b565b610488838383611034565b610e01816110bd565b6000818152600a602052604090208054610e1a90611fee565b1590506105a2576000818152600a602052604081206105a2916115e6565b6000610e4c846001600160a01b0316611164565b15610f4857836001600160a01b031663150b7a02610e686108d4565b8786866040518563ffffffff1660e01b8152600401610e8a9493929190611957565b602060405180830381600087803b158015610ea457600080fd5b505af1925050508015610ed4575060408051601f3d908101601f19168201909252610ed191810190611898565b60015b610f2e573d808015610f02576040519150601f19603f3d011682016040523d82523d6000602084013e610f07565b606091505b508051610f265760405162461bcd60e51b81526004016103d0906119fd565b805181602001fd5b6001600160e01b031916630a85bd0160e11b1490506109c3565b506001949350505050565b60408051602081019091526000815290565b6060610f70826108b7565b610f8c5760405162461bcd60e51b81526004016103d090611e49565b6000610f96610f53565b90506000815111610fb65760405180602001604052806000815250610fe1565b80610fc08461116a565b604051602001610fd1929190611914565b6040516020818303038152906040525b9392505050565b610ff28383611285565b610fff6000848484610e38565b6104885760405162461bcd60e51b81526004016103d0906119fd565b6001600160e01b031981166301ffc9a760e01b14919050565b61103f838383610488565b6001600160a01b03831661105b5761105681611364565b61107e565b816001600160a01b0316836001600160a01b03161461107e5761107e83826113a8565b6001600160a01b03821661109a5761109581611445565b610488565b826001600160a01b0316826001600160a01b03161461048857610488828261151e565b60006110c882610600565b90506110d681600084610ded565b6110e16000836108d8565b6001600160a01b038116600090815260036020526040812080546001929061110a908490611fab565b909155505060008281526002602052604080822080546001600160a01b0319169055518391906001600160a01b038416907fddf252ad1be2c89b69c2b068fc378daa952ba7f163c4a11628f55a4df523b3ef908390a45050565b3b151590565b60608161118f57506040805180820190915260018152600360fc1b6020820152610312565b8160005b81156111b957806111a381612029565b91506111b29050600a83611f97565b9150611193565b60008167ffffffffffffffff8111156111e257634e487b7160e01b600052604160045260246000fd5b6040519080825280601f01601f19166020018201604052801561120c576020820181803683370190505b5090505b84156109c357611221600183611fab565b915061122e600a86612044565b611239906030611f7f565b60f81b81838151811061125c57634e487b7160e01b600052603260045260246000fd5b60200101906001600160f81b031916908160001a90535061127e600a86611f97565b9450611210565b6001600160a01b0382166112ab5760405162461bcd60e51b81526004016103d090611cf9565b6112b4816108b7565b156112d15760405162461bcd60e51b81526004016103d090611a95565b6112dd60008383610ded565b6001600160a01b0382166000908152600360205260408120805460019290611306908490611f7f565b909155505060008181526002602052604080822080546001600160a01b0319166001600160a01b03861690811790915590518392907fddf252ad1be2c89b69c2b068fc378daa952ba7f163c4a11628f55a4df523b3ef908290a45050565b600880546000838152600960205260408120829055600182018355919091527ff3f7a9fe364faab93b216da50a3214154f22a0a2b415b23a84c8169e8b636ee30155565b600060016113b584610635565b6113bf9190611fab565b600083815260076020526040902054909150808214611412576001600160a01b03841660009081526006602090815260408083208584528252808320548484528184208190558352600790915290208190555b5060009182526007602090815260408084208490556001600160a01b039094168352600681528383209183525290812055565b60085460009061145790600190611fab565b6000838152600960205260408120546008805493945090928490811061148d57634e487b7160e01b600052603260045260246000fd5b9060005260206000200154905080600883815481106114bc57634e487b7160e01b600052603260045260246000fd5b600091825260208083209091019290925582815260099091526040808220849055858252812055600880548061150257634e487b7160e01b600052603160045260246000fd5b6001900381819060005260206000200160009055905550505050565b600061152983610635565b6001600160a01b039093166000908152600660209081526040808320868452825280832085905593825260079052919091209190915550565b82805461156e90611fee565b90600052602060002090601f01602090048101928261159057600085556115d6565b82601f106115a957805160ff19168380011785556115d6565b828001600101855582156115d6579182015b828111156115d65782518255916020019190600101906115bb565b506115e292915061161e565b5090565b5080546115f290611fee565b6000825580601f1061160457506105a2565b601f0160209004906000526020600020908101906105a291905b5b808211156115e2576000815560010161161f565b600067ffffffffffffffff8084111561164e5761164e612084565b604051601f8501601f19168101602001828111828210171561167257611672612084565b60405284815291508183850186101561168a57600080fd5b8484602083013760006020868301015250509392505050565b80356001600160a01b038116811461031257600080fd5b6000602082840312156116cb578081fd5b610fe1826116a3565b600080604083850312156116e6578081fd5b6116ef836116a3565b91506116fd602084016116a3565b90509250929050565b60008060006060848603121561171a578081fd5b611723846116a3565b9250611731602085016116a3565b9150604084013590509250925092565b60008060008060808587031215611756578081fd5b61175f856116a3565b935061176d602086016116a3565b925060408501359150606085013567ffffffffffffffff81111561178f578182fd5b8501601f8101871361179f578182fd5b6117ae87823560208401611633565b91505092959194509250565b600080604083850312156117cc578182fd5b6117d5836116a3565b9150602083013580151581146117e9578182fd5b809150509250929050565b60008060408385031215611806578182fd5b61180f836116a3565b9150602083013567ffffffffffffffff81111561182a578182fd5b8301601f8101851361183a578182fd5b61184985823560208401611633565b9150509250929050565b60008060408385031215611865578182fd5b61186e836116a3565b946020939093013593505050565b60006020828403121561188d578081fd5b8135610fe18161209a565b6000602082840312156118a9578081fd5b8151610fe18161209a565b6000602082840312156118c5578081fd5b5035919050565b600081518084526118e4816020860160208601611fc2565b601f01601f19169290920160200192915050565b6000825161190a818460208701611fc2565b9190910192915050565b60008351611926818460208801611fc2565b83519083019061193a818360208801611fc2565b01949350505050565b6001600160a01b0391909116815260200190565b6001600160a01b038581168252841660208201526040810183905260806060820181905260009061198a908301846118cc565b9695505050505050565b901515815260200190565b600060208252610fe160208301846118cc565b6020808252602b908201527f455243373231456e756d657261626c653a206f776e657220696e646578206f7560408201526a74206f6620626f756e647360a81b606082015260800190565b60208082526032908201527f4552433732313a207472616e7366657220746f206e6f6e20455243373231526560408201527131b2b4bb32b91034b6b83632b6b2b73a32b960711b606082015260800190565b60208082526026908201527f4f776e61626c653a206e6577206f776e657220697320746865207a65726f206160408201526564647265737360d01b606082015260800190565b6020808252601c908201527f4552433732313a20746f6b656e20616c7265616479206d696e74656400000000604082015260600190565b60208082526024908201527f4552433732313a207472616e7366657220746f20746865207a65726f206164646040820152637265737360e01b606082015260800190565b60208082526019908201527f4552433732313a20617070726f766520746f2063616c6c657200000000000000604082015260600190565b6020808252602c908201527f4552433732313a206f70657261746f7220717565727920666f72206e6f6e657860408201526b34b9ba32b73a103a37b5b2b760a11b606082015260800190565b6020808252600e908201526d24b73b30b634b21039b2b73232b960911b604082015260600190565b60208082526038908201527f4552433732313a20617070726f76652063616c6c6572206973206e6f74206f7760408201527f6e6572206e6f7220617070726f76656420666f7220616c6c0000000000000000606082015260800190565b6020808252602a908201527f4552433732313a2062616c616e636520717565727920666f7220746865207a65604082015269726f206164647265737360b01b606082015260800190565b60208082526029908201527f4552433732313a206f776e657220717565727920666f72206e6f6e657869737460408201526832b73a103a37b5b2b760b91b606082015260800190565b6020808252602e908201527f45524337323155524953746f726167653a2055524920736574206f66206e6f6e60408201526d32bc34b9ba32b73a103a37b5b2b760911b606082015260800190565b6020808252818101527f4552433732313a206d696e7420746f20746865207a65726f2061646472657373604082015260600190565b60208082526031908201527f45524337323155524953746f726167653a2055524920717565727920666f72206040820152703737b732bc34b9ba32b73a103a37b5b2b760791b606082015260800190565b6020808252602c908201527f4552433732313a20617070726f76656420717565727920666f72206e6f6e657860408201526b34b9ba32b73a103a37b5b2b760a11b606082015260800190565b6020808252818101527f4f776e61626c653a2063616c6c6572206973206e6f7420746865206f776e6572604082015260600190565b60208082526029908201527f4552433732313a207472616e73666572206f6620746f6b656e2074686174206960408201526839903737ba1037bbb760b91b606082015260800190565b6020808252602f908201527f4552433732314d657461646174613a2055524920717565727920666f72206e6f60408201526e3732bc34b9ba32b73a103a37b5b2b760891b606082015260800190565b60208082526021908201527f4552433732313a20617070726f76616c20746f2063757272656e74206f776e656040820152603960f91b606082015260800190565b60208082526031908201527f4552433732313a207472616e736665722063616c6c6572206973206e6f74206f6040820152701ddb995c881b9bdc88185c1c1c9bdd9959607a1b606082015260800190565b6020808252602c908201527f455243373231456e756d657261626c653a20676c6f62616c20696e646578206f60408201526b7574206f6620626f756e647360a01b606082015260800190565b90815260200190565b60008219821115611f9257611f92612058565b500190565b600082611fa657611fa661206e565b500490565b600082821015611fbd57611fbd612058565b500390565b60005b83811015611fdd578181015183820152602001611fc5565b838111156107405750506000910152565b60028104600182168061200257607f821691505b6020821081141561202357634e487b7160e01b600052602260045260246000fd5b50919050565b600060001982141561203d5761203d612058565b5060010190565b6000826120535761205361206e565b500690565b634e487b7160e01b600052601160045260246000fd5b634e487b7160e01b600052601260045260246000fd5b634e487b7160e01b600052604160045260246000fd5b6001600160e01b0319811681146105a257600080fdfea26469706673582212203d2ef96ecdf68a2dd4ed61741d2c18cde87a7a03a4bb4353da76523d1d52393b64736f6c63430008000033",
  "linkReferences": {},
  "deployedLinkReferences": {}
}