{
  "_format": "hh-sol-artifact-1",
  "contractName": "RootTunnel",
  "sourceName": "contracts/RootTunnel.sol",
  "abi": [
    {
      "inputs": [
        {
          "internalType": "address",
          "name": "_checkpointManager",
          "type": "address"
        },
        {
          "internalType": "address",
          "name": "_fxRoot",
          "type": "address"
        }
      ],
      "stateMutability": "nonpayable",
      "type": "constructor"
    },
    {
      "anonymous": false,
      "inputs": [
        {
          "indexed": true,
          "internalType": "address",
          "name": "rootToken",
          "type": "address"
        },
        {
          "indexed": true,
          "internalType": "address",
          "name": "depositor",
          "type": "address"
        },
        {
          "indexed": true,
          "internalType": "address",
          "name": "userAddress",
          "type": "address"
        },
        {
          "indexed": false,
          "internalType": "uint256",
          "name": "id",
          "type": "uint256"
        },
        {
          "indexed": false,
          "internalType": "string",
          "name": "uri",
          "type": "string"
        }
      ],
      "name": "FxDepositERC721",
      "type": "event"
    },
    {
      "inputs": [],
      "name": "DEPOSIT",
      "outputs": [
        {
          "internalType": "bytes32",
          "name": "",
          "type": "bytes32"
        }
      ],
      "stateMutability": "view",
      "type": "function"
    },
    {
      "inputs": [],
      "name": "SEND_MESSAGE_EVENT_SIG",
      "outputs": [
        {
          "internalType": "bytes32",
          "name": "",
          "type": "bytes32"
        }
      ],
      "stateMutability": "view",
      "type": "function"
    },
    {
      "inputs": [],
      "name": "checkpointManager",
      "outputs": [
        {
          "internalType": "contract ICheckpointManager",
          "name": "",
          "type": "address"
        }
      ],
      "stateMutability": "view",
      "type": "function"
    },
    {
      "inputs": [
        {
          "internalType": "address",
          "name": "rootToken",
          "type": "address"
        },
        {
          "internalType": "address",
          "name": "user",
          "type": "address"
        },
        {
          "internalType": "uint256",
          "name": "tokenId",
          "type": "uint256"
        },
        {
          "internalType": "string",
          "name": "uri",
          "type": "string"
        }
      ],
      "name": "deposit",
      "outputs": [],
      "stateMutability": "nonpayable",
      "type": "function"
    },
    {
      "inputs": [],
      "name": "fxChildTunnel",
      "outputs": [
        {
          "internalType": "address",
          "name": "",
          "type": "address"
        }
      ],
      "stateMutability": "view",
      "type": "function"
    },
    {
      "inputs": [],
      "name": "fxRoot",
      "outputs": [
        {
          "internalType": "contract IFxStateSender",
          "name": "",
          "type": "address"
        }
      ],
      "stateMutability": "view",
      "type": "function"
    },
    {
      "inputs": [],
      "name": "number",
      "outputs": [
        {
          "internalType": "uint256",
          "name": "",
          "type": "uint256"
        }
      ],
      "stateMutability": "view",
      "type": "function"
    },
    {
      "inputs": [
        {
          "internalType": "address",
          "name": "",
          "type": "address"
        },
        {
          "internalType": "address",
          "name": "",
          "type": "address"
        },
        {
          "internalType": "uint256",
          "name": "",
          "type": "uint256"
        },
        {
          "internalType": "bytes",
          "name": "",
          "type": "bytes"
        }
      ],
      "name": "onERC721Received",
      "outputs": [
        {
          "internalType": "bytes4",
          "name": "",
          "type": "bytes4"
        }
      ],
      "stateMutability": "pure",
      "type": "function"
    },
    {
      "inputs": [
        {
          "internalType": "bytes32",
          "name": "",
          "type": "bytes32"
        }
      ],
      "name": "processedExits",
      "outputs": [
        {
          "internalType": "bool",
          "name": "",
          "type": "bool"
        }
      ],
      "stateMutability": "view",
      "type": "function"
    },
    {
      "inputs": [
        {
          "internalType": "bytes",
          "name": "inputData",
          "type": "bytes"
        }
      ],
      "name": "receiveMessage",
      "outputs": [],
      "stateMutability": "nonpayable",
      "type": "function"
    },
    {
      "inputs": [
        {
          "internalType": "address",
          "name": "_fxChildTunnel",
          "type": "address"
        }
      ],
      "name": "setFxChildTunnel",
      "outputs": [],
      "stateMutability": "nonpayable",
      "type": "function"
    }
  ],
  "bytecode": "0x60806040526107c76004553480156200001757600080fd5b506040516200218e3803806200218e8339810160408190526200003a9162000089565b600180546001600160a01b039384166001600160a01b03199182161790915560008054929093169116179055620000c0565b80516001600160a01b03811681146200008457600080fd5b919050565b600080604083850312156200009c578182fd5b620000a7836200006c565b9150620000b7602084016200006c565b90509250929050565b6120be80620000d06000396000f3fe608060405234801561001057600080fd5b50600436106100a95760003560e01c8063972c492811610071578063972c492814610129578063aea4e49e1461013e578063c0857ba014610151578063d81c8e5214610159578063de9b771f14610161578063f953cec714610169576100a9565b80630e387de6146100ae578063150b7a02146100cc5780631fece7b4146100ec578063607f2d42146101015780638381f58a14610121575b600080fd5b6100b661017c565b6040516100c39190611b88565b60405180910390f35b6100df6100da366004611825565b6101a0565b6040516100c39190611baa565b6100ff6100fa3660046118bf565b6101b1565b005b61011461010f36600461193c565b6102e5565b6040516100c39190611b7d565b6100b66102fa565b610131610300565b6040516100c39190611adb565b6100ff61014c3660046117dc565b61030f565b610131610363565b6100b6610372565b610131610396565b6100ff6101773660046119a0565b6103a5565b7f8c5261668696ce22758910d05bab8f186d6eb247ceac2af2e82c7dc17669b03681565b630a85bd0160e11b95945050505050565b604051632142170760e11b81526001600160a01b038516906342842e0e906101e190339030908790600401611b35565b600060405180830381600087803b1580156101fb57600080fd5b505af115801561020f573d6000803e3d6000fd5b5050505060007f87a7811f4bfedea3d341ad165680ae306b01aaeacc205d227629cf157dd9f821853386868660405160200161024f959493929190611aef565b60408051601f198184030181529082905261026d9291602001611b91565b6040516020818303038152906040529050610287816103bf565b836001600160a01b0316336001600160a01b0316866001600160a01b03167f82ad1feb6bf5a6373e0d6d316baa3a1ae1ab0e5da532bfaddc4a2770767bc37e86866040516102d6929190611b91565b60405180910390a45050505050565b60036020526000908152604090205460ff1681565b60045481565b6002546001600160a01b031681565b6002546001600160a01b0316156103415760405162461bcd60e51b815260040161033890611bbf565b60405180910390fd5b600280546001600160a01b0319166001600160a01b0392909216919091179055565b6001546001600160a01b031681565b7f87a7811f4bfedea3d341ad165680ae306b01aaeacc205d227629cf157dd9f82181565b6000546001600160a01b031681565b60006103b08261042a565b90506103bb816108da565b5050565b60005460025460405163b472047760e01b81526001600160a01b039283169263b4720477926103f5929116908590600401611b59565b600060405180830381600087803b15801561040f57600080fd5b505af1158015610423573d6000803e3d6000fd5b5050505050565b6060600061043f61043a846108fa565b61091f565b905060006104748260028151811061046757634e487b7160e01b600052603260045260246000fd5b6020026020010151610a45565b6104ad6104a88460088151811061049b57634e487b7160e01b600052603260045260246000fd5b6020026020010151610ac0565b610b6b565b6104d18460098151811061046757634e487b7160e01b600052603260045260246000fd5b6040516020016104e393929190611a93565b60408051601f1981840301815291815281516020928301206000818152600390935291205490915060ff161561052b5760405162461bcd60e51b815260040161033890611c4c565b6000818152600360205260408120805460ff1916600117905582516105789061043a90610573908690600690811061049b57634e487b7160e01b600052603260045260246000fd5b6108fa565b905060006105ad826003815181106105a057634e487b7160e01b600052603260045260246000fd5b602002602001015161091f565b6105d18560098151811061046757634e487b7160e01b600052603260045260246000fd5b815181106105ef57634e487b7160e01b600052603260045260246000fd5b6020026020010151905060006106048261091f565b90506106378160008151811061062a57634e487b7160e01b600052603260045260246000fd5b6020026020010151610d62565b6002546001600160a01b039081169116146106645760405162461bcd60e51b815260040161033890611d5b565b6106fc61068b8660068151811061049b57634e487b7160e01b600052603260045260246000fd5b6106af8760088151811061049b57634e487b7160e01b600052603260045260246000fd5b6106d38860078151811061049b57634e487b7160e01b600052603260045260246000fd5b6106f78960058151811061046757634e487b7160e01b600052603260045260246000fd5b610d7c565b6107185760405162461bcd60e51b815260040161033890611c09565b6107fe61073f8660028151811061046757634e487b7160e01b600052603260045260246000fd5b6107638760038151811061046757634e487b7160e01b600052603260045260246000fd5b6107878860048151811061046757634e487b7160e01b600052603260045260246000fd5b60001b6107ae8960058151811061046757634e487b7160e01b600052603260045260246000fd5b60001b6107d58a60008151811061046757634e487b7160e01b600052603260045260246000fd5b6107f98b60018151811061049b57634e487b7160e01b600052603260045260246000fd5b61107b565b506000610825826001815181106105a057634e487b7160e01b600052603260045260246000fd5b90507f8c5261668696ce22758910d05bab8f186d6eb247ceac2af2e82c7dc17669b03660001b61086f8260008151811061046757634e487b7160e01b600052603260045260246000fd5b1461088c5760405162461bcd60e51b815260040161033890611d24565b60006108b28360028151811061049b57634e487b7160e01b600052603260045260246000fd5b90506000818060200190518101906108ca91906119e6565b985050505050505050505b919050565b600080828060200190518101906108f191906117f8565b60045550505050565b610902611784565b506040805180820190915281518152602082810190820152919050565b606061092a82611183565b61093357600080fd5b600061093e836111bd565b905060008167ffffffffffffffff81111561096957634e487b7160e01b600052604160045260246000fd5b6040519080825280602002602001820160405280156109a257816020015b61098f611784565b8152602001906001900390816109875790505b50905060006109b48560200151611240565b85602001516109c39190611df2565b90506000805b84811015610a3a576109da836112c5565b9150604051806040016040528083815260200184815250848281518110610a1157634e487b7160e01b600052603260045260246000fd5b6020908102919091010152610a268284611df2565b925080610a3281611fdd565b9150506109c9565b509195945050505050565b805160009015801590610a5a57508151602110155b610a6357600080fd5b6000610a728360200151611240565b90506000818460000151610a869190611f73565b9050600080838660200151610a9b9190611df2565b9050805191506020831015610ab757826020036101000a820491505b50949350505050565b8051606090610ace57600080fd5b6000610add8360200151611240565b90506000818460000151610af19190611f73565b905060008167ffffffffffffffff811115610b1c57634e487b7160e01b600052604160045260246000fd5b6040519080825280601f01601f191660200182016040528015610b46576020820181803683370190505b5090506000816020019050610ab7848760200151610b649190611df2565b828561136e565b60408051602081019091526000815281516060919015610d5c57600080610b936000866113e8565b60f81c90506001811480610baa57508060ff166003145b15610c6e57600185516002610bbf9190611f54565b610bc99190611f73565b67ffffffffffffffff811115610bef57634e487b7160e01b600052604160045260246000fd5b6040519080825280601f01601f191660200182016040528015610c19576020820181803683370190505b5092506000610c296001876113e8565b90508084600081518110610c4d57634e487b7160e01b600052603260045260246000fd5b60200101906001600160f81b031916908160001a9053506001925050610ce0565b600285516002610c7e9190611f54565b610c889190611f73565b67ffffffffffffffff811115610cae57634e487b7160e01b600052604160045260246000fd5b6040519080825280601f01601f191660200182016040528015610cd8576020820181803683370190505b509250600091505b60ff82165b8351811015610d5857610d0f610cfe60ff851683611f73565b610d09906002611df2565b876113e8565b848281518110610d2f57634e487b7160e01b600052603260045260246000fd5b60200101906001600160f81b031916908160001a90535080610d5081611fdd565b915050610ce5565b5050505b92915050565b8051600090601514610d7357600080fd5b610d5c82610a45565b600080610d88846108fa565b90506000610d958261091f565b905060608085600080610da78b610b6b565b9050805160001415610dc3576000975050505050505050611073565b60005b865181101561106a578151831115610de957600098505050505050505050611073565b610e19878281518110610e0c57634e487b7160e01b600052603260045260246000fd5b6020026020010151611485565b955085805190602001208414610e3a57600098505050505050505050611073565b610e5d8782815181106105a057634e487b7160e01b600052603260045260246000fd5b9450845160111415610f5c578151831415610ecd578c80519060200120610e9e8660108151811061049b57634e487b7160e01b600052603260045260246000fd5b805190602001201415610ebc57600198505050505050505050611073565b600098505050505050505050611073565b6000828481518110610eef57634e487b7160e01b600052603260045260246000fd5b016020015160f81c90506010811115610f145760009950505050505050505050611073565b610f47868260ff1681518110610f3a57634e487b7160e01b600052603260045260246000fd5b602002602001015161150d565b9450610f54600185611df2565b935050611058565b845160021415610ebc576000610f96610f8f8760008151811061049b57634e487b7160e01b600052603260045260246000fd5b848661153b565b8351909150610fa58286611df2565b1415611008578d80519060200120610fd78760018151811061049b57634e487b7160e01b600052603260045260246000fd5b805190602001201415610ff65760019950505050505050505050611073565b60009950505050505050505050611073565b8061101f5760009950505050505050505050611073565b6110298185611df2565b935061104f86600181518110610f3a57634e487b7160e01b600052603260045260246000fd5b94506110589050565b8061106281611fdd565b915050610dc6565b50505050505050505b949350505050565b6001546040516320a9cea560e11b81526000918291829182916001600160a01b03909116906341539d4a906110b4908990600401611b88565b60a06040518083038186803b1580156110cc57600080fd5b505afa1580156110e0573d6000803e3d6000fd5b505050506040513d601f19601f820116820180604052508101906111049190611954565b509350509250925061115a828b61111b9190611f73565b84878d8d8d8d6040516020016111349493929190611ac0565b60405160208183030381529060405280519060200120611670909392919063ffffffff16565b6111765760405162461bcd60e51b815260040161033890611ced565b9998505050505050505050565b8051600090611194575060006108d5565b6020820151805160001a9060c08210156111b3576000925050506108d5565b5060019392505050565b80516000906111ce575060006108d5565b6000806111de8460200151611240565b84602001516111ed9190611df2565b90506000846000015185602001516112059190611df2565b90505b8082101561123757611219826112c5565b6112239083611df2565b91508261122f81611fdd565b935050611208565b50909392505050565b8051600090811a608081101561125a5760009150506108d5565b60b8811080611275575060c08110801590611275575060f881105b156112845760019150506108d5565b60c08110156112b957611299600160b8611f8a565b6112a69060ff1682611f73565b6112b1906001611df2565b9150506108d5565b611299600160f8611f8a565b80516000908190811a60808110156112e05760019150611367565b60b8811015611306576112f4608082611f73565b6112ff906001611df2565b9150611367565b60c08110156113335760b78103600185019450806020036101000a85510460018201810193505050611367565b60f8811015611347576112f460c082611f73565b60f78103600185019450806020036101000a855104600182018101935050505b5092915050565b80611378576113e3565b602081106113b0578251825261138f602084611df2565b925061139c602083611df2565b91506113a9602082611f73565b9050611378565b600060016113bf836020611f73565b6113cb90610100611e86565b6113d59190611f73565b845184518216911916178352505b505050565b60006113f5600284611ff8565b1561143d57601082611408600286611e0a565b8151811061142657634e487b7160e01b600052603260045260246000fd5b0160200151611438919060f81c61200c565b61147b565b60108261144b600286611e0a565b8151811061146957634e487b7160e01b600052603260045260246000fd5b016020015161147b919060f81c611e1e565b60f81b9392505050565b60606000826000015167ffffffffffffffff8111156114b457634e487b7160e01b600052604160045260246000fd5b6040519080825280601f01601f1916602001820160405280156114de576020820181803683370190505b5090508051600014156114f25790506108d5565b6000816020019050611367846020015182866000015161136e565b805160009060211461151e57600080fd5b600080836020015160016115329190611df2565b51949350505050565b6000808061154886610b6b565b90506000815167ffffffffffffffff81111561157457634e487b7160e01b600052604160045260246000fd5b6040519080825280601f01601f19166020018201604052801561159e576020820181803683370190505b509050845b82516115af9087611df2565b81101561163e5760008782815181106115d857634e487b7160e01b600052603260045260246000fd5b01602001516001600160f81b031916905080836115f58985611f73565b8151811061161357634e487b7160e01b600052603260045260246000fd5b60200101906001600160f81b031916908160001a90535050808061163690611fdd565b9150506115a3565b5080805190602001208280519060200120141561165e5781519250611663565b600092505b50909150505b9392505050565b6000602082516116809190611ff8565b1561169d5760405162461bcd60e51b815260040161033890611c90565b6000602083516116ad9190611e0a565b90506116ba816002611e86565b85106116d85760405162461bcd60e51b815260040161033890611cbe565b60008660205b85518111611776578581015192506116f7600289611ff8565b61172b57818360405160200161170e929190611a85565b604051602081830303815290604052805190602001209150611757565b828260405160200161173e929190611a85565b6040516020818303038152906040528051906020012091505b611762600289611e0a565b975061176f602082611df2565b90506116de565b509094149695505050505050565b604051806040016040528060008152602001600081525090565b60006117b16117ac84611dca565b611da0565b90508281528383830111156117c557600080fd5b828260208301376000602084830101529392505050565b6000602082840312156117ed578081fd5b813561166981612070565b6000806040838503121561180a578081fd5b825161181581612070565b6020939093015192949293505050565b60008060008060006080868803121561183c578081fd5b853561184781612070565b9450602086013561185781612070565b935060408601359250606086013567ffffffffffffffff8082111561187a578283fd5b818801915088601f83011261188d578283fd5b81358181111561189b578384fd5b8960208285010111156118ac578384fd5b9699959850939650602001949392505050565b600080600080608085870312156118d4578384fd5b84356118df81612070565b935060208501356118ef81612070565b925060408501359150606085013567ffffffffffffffff811115611911578182fd5b8501601f81018713611921578182fd5b6119308782356020840161179e565b91505092959194509250565b60006020828403121561194d578081fd5b5035919050565b600080600080600060a0868803121561196b578081fd5b85519450602086015193506040860151925060608601519150608086015161199281612070565b809150509295509295909350565b6000602082840312156119b1578081fd5b813567ffffffffffffffff8111156119c7578182fd5b8201601f810184136119d7578182fd5b6110738482356020840161179e565b6000602082840312156119f7578081fd5b815167ffffffffffffffff811115611a0d578182fd5b8201601f81018413611a1d578182fd5b8051611a2b6117ac82611dca565b818152856020838501011115611a3f578384fd5b611a50826020830160208601611fad565b95945050505050565b60008151808452611a71816020860160208601611fad565b601f01601f19169290920160200192915050565b918252602082015260400190565b60008482528351611aab816020850160208801611fad565b60209201918201929092526040019392505050565b93845260208401929092526040830152606082015260800190565b6001600160a01b0391909116815260200190565b6001600160a01b0386811682528581166020830152841660408201526060810183905260a060808201819052600090611b2a90830184611a59565b979650505050505050565b6001600160a01b039384168152919092166020820152604081019190915260600190565b6001600160a01b038316815260406020820181905260009061107390830184611a59565b901515815260200190565b90815260200190565b6000838252604060208301526110736040830184611a59565b6001600160e01b031991909116815260200190565b6020808252602a908201527f467842617365526f6f7454756e6e656c3a204348494c445f54554e4e454c5f4160408201526913149150511657d4d15560b21b606082015260800190565b60208082526023908201527f4678526f6f7454756e6e656c3a20494e56414c49445f524543454950545f505260408201526227a7a360e91b606082015260800190565b60208082526024908201527f4678526f6f7454756e6e656c3a20455849545f414c52454144595f50524f434560408201526314d4d15160e21b606082015260800190565b602080825260149082015273092dcecc2d8d2c840e0e4dedecc40d8cadccee8d60631b604082015260600190565b6020808252601590820152744c65616620696e64657820697320746f6f2062696760581b604082015260600190565b6020808252601c908201527f4678526f6f7454756e6e656c3a20494e56414c49445f48454144455200000000604082015260600190565b6020808252601f908201527f4678526f6f7454756e6e656c3a20494e56414c49445f5349474e415455524500604082015260600190565b60208082526025908201527f4678526f6f7454756e6e656c3a20494e56414c49445f46585f4348494c445f54604082015264155393915360da1b606082015260800190565b60405181810167ffffffffffffffff81118282101715611dc257611dc261205a565b604052919050565b600067ffffffffffffffff821115611de457611de461205a565b50601f01601f191660200190565b60008219821115611e0557611e0561202e565b500190565b600082611e1957611e19612044565b500490565b600060ff831680611e3157611e31612044565b8060ff84160491505092915050565b80825b6001808611611e525750611e7d565b818704821115611e6457611e6461202e565b80861615611e7157918102915b9490941c938002611e43565b94509492505050565b60006116696000198484600082611e9f57506001611669565b81611eac57506000611669565b8160018114611ec25760028114611ecc57611ef9565b6001915050611669565b60ff841115611edd57611edd61202e565b6001841b915084821115611ef357611ef361202e565b50611669565b5060208310610133831016604e8410600b8410161715611f2c575081810a83811115611f2757611f2761202e565b611669565b611f398484846001611e40565b808604821115611f4b57611f4b61202e565b02949350505050565b6000816000190483118215151615611f6e57611f6e61202e565b500290565b600082821015611f8557611f8561202e565b500390565b600060ff821660ff841680821015611fa457611fa461202e565b90039392505050565b60005b83811015611fc8578181015183820152602001611fb0565b83811115611fd7576000848401525b50505050565b6000600019821415611ff157611ff161202e565b5060010190565b60008261200757612007612044565b500690565b600060ff83168061201f5761201f612044565b8060ff84160691505092915050565b634e487b7160e01b600052601160045260246000fd5b634e487b7160e01b600052601260045260246000fd5b634e487b7160e01b600052604160045260246000fd5b6001600160a01b038116811461208557600080fd5b5056fea26469706673582212200e9afd1b4aca4f31a2227931d2475e9ac6e75d841e93651a2996b2fdc6fc5f5864736f6c63430008000033",
  "linkReferences": {},
  "deployedLinkReferences": {}
}