{
  "_format": "hh-sol-artifact-1",
  "contractName": "RootTunnel",
  "sourceName": "contracts/RootTunnel.sol",
  "abi": [
    {
      "inputs": [
        {
          "internalType": "address",
          "name": "_checkpointManager",
          "type": "address"
        },
        {
          "internalType": "address",
          "name": "_fxRoot",
          "type": "address"
        },
        {
          "internalType": "address",
          "name": "rootTokenAddress_",
          "type": "address"
        }
      ],
      "stateMutability": "nonpayable",
      "type": "constructor"
    },
    {
      "anonymous": false,
      "inputs": [
        {
          "indexed": true,
          "internalType": "address",
          "name": "rootToken",
          "type": "address"
        },
        {
          "indexed": true,
          "internalType": "address",
          "name": "depositor",
          "type": "address"
        },
        {
          "indexed": true,
          "internalType": "address",
          "name": "userAddress",
          "type": "address"
        },
        {
          "indexed": false,
          "internalType": "uint256",
          "name": "id",
          "type": "uint256"
        },
        {
          "indexed": false,
          "internalType": "string",
          "name": "uri",
          "type": "string"
        }
      ],
      "name": "FxDepositERC721",
      "type": "event"
    },
    {
      "anonymous": false,
      "inputs": [
        {
          "indexed": true,
          "internalType": "address",
          "name": "previousOwner",
          "type": "address"
        },
        {
          "indexed": true,
          "internalType": "address",
          "name": "newOwner",
          "type": "address"
        }
      ],
      "name": "OwnershipTransferred",
      "type": "event"
    },
    {
      "inputs": [],
      "name": "DEPOSIT",
      "outputs": [
        {
          "internalType": "bytes32",
          "name": "",
          "type": "bytes32"
        }
      ],
      "stateMutability": "view",
      "type": "function"
    },
    {
      "inputs": [],
      "name": "SEND_MESSAGE_EVENT_SIG",
      "outputs": [
        {
          "internalType": "bytes32",
          "name": "",
          "type": "bytes32"
        }
      ],
      "stateMutability": "view",
      "type": "function"
    },
    {
      "inputs": [],
      "name": "checkpointManager",
      "outputs": [
        {
          "internalType": "contract ICheckpointManager",
          "name": "",
          "type": "address"
        }
      ],
      "stateMutability": "view",
      "type": "function"
    },
    {
      "inputs": [
        {
          "internalType": "address",
          "name": "rootToken",
          "type": "address"
        },
        {
          "internalType": "address",
          "name": "user",
          "type": "address"
        },
        {
          "internalType": "uint256",
          "name": "tokenId",
          "type": "uint256"
        },
        {
          "internalType": "string",
          "name": "uri",
          "type": "string"
        }
      ],
      "name": "deposit",
      "outputs": [],
      "stateMutability": "payable",
      "type": "function"
    },
    {
      "inputs": [],
      "name": "fxChildTunnel",
      "outputs": [
        {
          "internalType": "address",
          "name": "",
          "type": "address"
        }
      ],
      "stateMutability": "view",
      "type": "function"
    },
    {
      "inputs": [],
      "name": "fxRoot",
      "outputs": [
        {
          "internalType": "contract IFxStateSender",
          "name": "",
          "type": "address"
        }
      ],
      "stateMutability": "view",
      "type": "function"
    },
    {
      "inputs": [
        {
          "internalType": "address",
          "name": "",
          "type": "address"
        },
        {
          "internalType": "address",
          "name": "",
          "type": "address"
        },
        {
          "internalType": "uint256",
          "name": "",
          "type": "uint256"
        },
        {
          "internalType": "bytes",
          "name": "",
          "type": "bytes"
        }
      ],
      "name": "onERC721Received",
      "outputs": [
        {
          "internalType": "bytes4",
          "name": "",
          "type": "bytes4"
        }
      ],
      "stateMutability": "pure",
      "type": "function"
    },
    {
      "inputs": [],
      "name": "owner",
      "outputs": [
        {
          "internalType": "address",
          "name": "",
          "type": "address"
        }
      ],
      "stateMutability": "view",
      "type": "function"
    },
    {
      "inputs": [
        {
          "internalType": "bytes32",
          "name": "",
          "type": "bytes32"
        }
      ],
      "name": "processedExits",
      "outputs": [
        {
          "internalType": "bool",
          "name": "",
          "type": "bool"
        }
      ],
      "stateMutability": "view",
      "type": "function"
    },
    {
      "inputs": [
        {
          "internalType": "bytes",
          "name": "inputData",
          "type": "bytes"
        }
      ],
      "name": "receiveMessage",
      "outputs": [],
      "stateMutability": "nonpayable",
      "type": "function"
    },
    {
      "inputs": [],
      "name": "renounceOwnership",
      "outputs": [],
      "stateMutability": "nonpayable",
      "type": "function"
    },
    {
      "inputs": [
        {
          "internalType": "address",
          "name": "_fxChildTunnel",
          "type": "address"
        }
      ],
      "name": "setFxChildTunnel",
      "outputs": [],
      "stateMutability": "nonpayable",
      "type": "function"
    },
    {
      "inputs": [
        {
          "internalType": "address",
          "name": "newOwner",
          "type": "address"
        }
      ],
      "name": "transferOwnership",
      "outputs": [],
      "stateMutability": "nonpayable",
      "type": "function"
    },
    {
      "inputs": [],
      "name": "withdrawEther",
      "outputs": [],
      "stateMutability": "nonpayable",
      "type": "function"
    }
  ],
  "bytecode": "0x608060405266038d7ea4c680006006553480156200001c57600080fd5b506040516200284b3803806200284b8339810160408190526200003f916200011f565b600180546001600160a01b038086166001600160a01b0319928316179092556000805492851692909116919091179055620000836200007d620000ac565b620000b0565b600580546001600160a01b0319166001600160a01b039290921691909117905550620001689050565b3390565b600480546001600160a01b038381166001600160a01b0319831681179093556040519116919082907f8be0079c531659141344cd1fd0a4f28419497f9722a3daafe3b4186f6b6457e090600090a35050565b80516001600160a01b03811681146200011a57600080fd5b919050565b60008060006060848603121562000134578283fd5b6200013f8462000102565b92506200014f6020850162000102565b91506200015f6040850162000102565b90509250925092565b6126d380620001786000396000f3fe6080604052600436106100dd5760003560e01c8063972c49281161007f578063d81c8e5211610059578063d81c8e5214610212578063de9b771f14610227578063f2fde38b1461023c578063f953cec71461025c576100dd565b8063972c4928146101c8578063aea4e49e146101dd578063c0857ba0146101fd576100dd565b8063607f2d42116100bb578063607f2d421461014f578063715018a61461017c5780637362377b146101915780638da5cb5b146101a6576100dd565b80630e387de6146100e2578063150b7a021461010d5780631fece7b41461013a575b600080fd5b3480156100ee57600080fd5b506100f761027c565b60405161010491906120dd565b60405180910390f35b34801561011957600080fd5b5061012d610128366004611d7e565b6102a0565b60405161010491906120ff565b61014d610148366004611e17565b6102b1565b005b34801561015b57600080fd5b5061016f61016a366004611e93565b61040f565b60405161010491906120d2565b34801561018857600080fd5b5061014d610424565b34801561019d57600080fd5b5061014d61046f565b3480156101b257600080fd5b506101bb6104f4565b6040516101049190612030565b3480156101d457600080fd5b506101bb610503565b3480156101e957600080fd5b5061014d6101f8366004611d35565b610512565b34801561020957600080fd5b506101bb61055d565b34801561021e57600080fd5b506100f761056c565b34801561023357600080fd5b506101bb610590565b34801561024857600080fd5b5061014d610257366004611d35565b61059f565b34801561026857600080fd5b5061014d610277366004611ef7565b610610565b7f8c5261668696ce22758910d05bab8f186d6eb247ceac2af2e82c7dc17669b03681565b630a85bd0160e11b95945050505050565b60065434146102db5760405162461bcd60e51b81526004016102d29061222b565b60405180910390fd5b604051632142170760e11b81526001600160a01b038516906342842e0e9061030b9033903090879060040161208a565b600060405180830381600087803b15801561032557600080fd5b505af1158015610339573d6000803e3d6000fd5b5050505060007f87a7811f4bfedea3d341ad165680ae306b01aaeacc205d227629cf157dd9f8218533868686604051602001610379959493929190612044565b60408051601f198184030181529082905261039792916020016120e6565b60405160208183030381529060405290506103b181610626565b836001600160a01b0316336001600160a01b0316866001600160a01b03167f82ad1feb6bf5a6373e0d6d316baa3a1ae1ab0e5da532bfaddc4a2770767bc37e86866040516104009291906120e6565b60405180910390a45050505050565b60036020526000908152604090205460ff1681565b61042c610691565b6001600160a01b031661043d6104f4565b6001600160a01b0316146104635760405162461bcd60e51b81526004016102d290612275565b61046d6000610695565b565b610477610691565b6001600160a01b03166104886104f4565b6001600160a01b0316146104ae5760405162461bcd60e51b81526004016102d290612275565b60006104b86104f4565b6040519091506001600160a01b038216904780156108fc02916000818181858888f193505050501580156104f0573d6000803e3d6000fd5b5050565b6004546001600160a01b031690565b6002546001600160a01b031681565b6002546001600160a01b03161561053b5760405162461bcd60e51b81526004016102d290612114565b600280546001600160a01b0319166001600160a01b0392909216919091179055565b6001546001600160a01b031681565b7f87a7811f4bfedea3d341ad165680ae306b01aaeacc205d227629cf157dd9f82181565b6000546001600160a01b031681565b6105a7610691565b6001600160a01b03166105b86104f4565b6001600160a01b0316146105de5760405162461bcd60e51b81526004016102d290612275565b6001600160a01b0381166106045760405162461bcd60e51b81526004016102d29061215e565b61060d81610695565b50565b600061061b826106e7565b90506104f0816108e7565b60005460025460405163b472047760e01b81526001600160a01b039283169263b47204779261065c9291169085906004016120ae565b600060405180830381600087803b15801561067657600080fd5b505af115801561068a573d6000803e3d6000fd5b5050505050565b3390565b600480546001600160a01b038381166001600160a01b0319831681179093556040519116919082907f8be0079c531659141344cd1fd0a4f28419497f9722a3daafe3b4186f6b6457e090600090a35050565b606060006106f48361096d565b905060006107018261099d565b9050600061070e836109da565b905060008161071c84610a11565b61072586610c05565b60405160200161073793929190611fe8565b60408051601f1981840301815291815281516020928301206000818152600390935291205490915060ff161561077f5760405162461bcd60e51b81526004016102d2906121e7565b6000818152600360205260408120805460ff191660011790556107a185610c2f565b905060006107ae82610d3c565b90506107b981610dcb565b6002546001600160a01b039081169116146107e65760405162461bcd60e51b81526004016102d290612375565b60006107f187610e02565b905061080f6107ff84610e2c565b876108098a610e33565b84610e5d565b61082b5760405162461bcd60e51b81526004016102d2906121a4565b610859856108388961115c565b6108418a611186565b8461084b8c6111b0565b6108548d6111da565b611204565b5060006108658361130c565b90507f8c5261668696ce22758910d05bab8f186d6eb247ceac2af2e82c7dc17669b03661089b61089683600061134f565b611389565b146108b85760405162461bcd60e51b81526004016102d29061233e565b60006108c384611404565b8060200190518101906108d69190611f3c565b99505050505050505050505b919050565b600080828060200190518101906108fe9190611d51565b600554604051632142170760e11b81529294509092506001600160a01b0316906342842e0e906109369030908690869060040161208a565b600060405180830381600087803b15801561095057600080fd5b505af1158015610964573d6000803e3d6000fd5b50505050505050565b610975611c89565b60006109886109838461142e565b611453565b60408051602081019091529081529392505050565b60606109d482600001516008815181106109c757634e487b7160e01b600052603260045260246000fd5b6020026020010151611578565b92915050565b60006109d48260000151600281518110610a0457634e487b7160e01b600052603260045260246000fd5b6020026020010151611389565b604080516020810190915260008152815160609190156109d457600080610a39600086611622565b60f81c90506001811480610a5057508060ff166003145b15610b1357600185516002610a65919061256c565b610a6f919061258b565b6001600160401b03811115610a9457634e487b7160e01b600052604160045260246000fd5b6040519080825280601f01601f191660200182016040528015610abe576020820181803683370190505b5092506000610ace600187611622565b90508084600081518110610af257634e487b7160e01b600052603260045260246000fd5b60200101906001600160f81b031916908160001a9053506001925050610b84565b600285516002610b23919061256c565b610b2d919061258b565b6001600160401b03811115610b5257634e487b7160e01b600052604160045260246000fd5b6040519080825280601f01601f191660200182016040528015610b7c576020820181803683370190505b509250600091505b60ff82165b8351811015610bfc57610bb3610ba260ff85168361258b565b610bad90600261240a565b87611622565b848281518110610bd357634e487b7160e01b600052603260045260246000fd5b60200101906001600160f81b031916908160001a90535080610bf4816125f5565b915050610b89565b50505092915050565b60006109d48260000151600981518110610a0457634e487b7160e01b600052603260045260246000fd5b610c37611c9c565b610c5f82600001516006815181106109c757634e487b7160e01b600052603260045260246000fd5b60208201819052600090610c729061142e565b9050610c7d816116bf565b15610c9257610c8b81611453565b8252610d28565b60208201518051600090610ca89060019061258b565b6001600160401b03811115610ccd57634e487b7160e01b600052604160045260246000fd5b6040519080825280601f01601f191660200182016040528015610cf7576020820181803683370190505b509050600080836021019150826020019050610d15828285516116f9565b610d216109838461142e565b8652505050505b610d3183610c05565b604083015250919050565b610d44611cbd565b6000610d7b8360000151600381518110610d6e57634e487b7160e01b600052603260045260246000fd5b6020026020010151611453565b836040015181518110610d9e57634e487b7160e01b600052603260045260246000fd5b602002602001015190506040518060400160405280828152602001610dc283611453565b90529392505050565b60006109d48260200151600081518110610df557634e487b7160e01b600052603260045260246000fd5b6020026020010151611773565b60006109d48260000151600581518110610a0457634e487b7160e01b600052603260045260246000fd5b6020015190565b60606109d482600001516007815181106109c757634e487b7160e01b600052603260045260246000fd5b600080610e698461142e565b90506000610e7682611453565b905060608085600080610e888b610a11565b9050805160001415610ea4576000975050505050505050611154565b60005b865181101561114b578151831115610eca57600098505050505050505050611154565b610efa878281518110610eed57634e487b7160e01b600052603260045260246000fd5b602002602001015161178d565b955085805190602001208414610f1b57600098505050505050505050611154565b610f3e878281518110610d6e57634e487b7160e01b600052603260045260246000fd5b945084516011141561103d578151831415610fae578c80519060200120610f7f866010815181106109c757634e487b7160e01b600052603260045260246000fd5b805190602001201415610f9d57600198505050505050505050611154565b600098505050505050505050611154565b6000828481518110610fd057634e487b7160e01b600052603260045260246000fd5b016020015160f81c90506010811115610ff55760009950505050505050505050611154565b611028868260ff168151811061101b57634e487b7160e01b600052603260045260246000fd5b602002602001015161181b565b945061103560018561240a565b935050611139565b845160021415610f9d576000611077611070876000815181106109c757634e487b7160e01b600052603260045260246000fd5b8486611849565b8351909150611086828661240a565b14156110e9578d805190602001206110b8876001815181106109c757634e487b7160e01b600052603260045260246000fd5b8051906020012014156110d75760019950505050505050505050611154565b60009950505050505050505050611154565b806111005760009950505050505050505050611154565b61110a818561240a565b93506111308660018151811061101b57634e487b7160e01b600052603260045260246000fd5b94506111399050565b80611143816125f5565b915050610ea7565b50505050505050505b949350505050565b60006109d48260000151600381518110610a0457634e487b7160e01b600052603260045260246000fd5b60006109d48260000151600481518110610a0457634e487b7160e01b600052603260045260246000fd5b60006109d48260000151600081518110610a0457634e487b7160e01b600052603260045260246000fd5b60606109d482600001516001815181106109c757634e487b7160e01b600052603260045260246000fd5b6001546040516320a9cea560e11b81526000918291829182916001600160a01b03909116906341539d4a9061123d9089906004016120dd565b60a06040518083038186803b15801561125557600080fd5b505afa158015611269573d6000803e3d6000fd5b505050506040513d601f19601f8201168201806040525081019061128d9190611eab565b50935050925092506112e3828b6112a4919061258b565b84878d8d8d8d6040516020016112bd9493929190612015565b6040516020818303038152906040528051906020012061197d909392919063ffffffff16565b6112ff5760405162461bcd60e51b81526004016102d290612307565b9998505050505050505050565b611314611c89565b60405180602001604052806113478460200151600181518110610d6e57634e487b7160e01b600052603260045260246000fd5b905292915050565b611357611cdd565b825180518390811061137957634e487b7160e01b600052603260045260246000fd5b6020026020010151905092915050565b80516000901580159061139e57508151602110155b6113a757600080fd5b60006113b68360200151611a91565b905060008184600001516113ca919061258b565b90506000808386602001516113df919061240a565b90508051915060208310156113fb57826020036101000a820491505b50949350505050565b60606109d482602001516002815181106109c757634e487b7160e01b600052603260045260246000fd5b611436611cdd565b506040805180820190915281518152602082810190820152919050565b606061145e826116bf565b61146757600080fd5b600061147283611b16565b90506000816001600160401b0381111561149c57634e487b7160e01b600052604160045260246000fd5b6040519080825280602002602001820160405280156114d557816020015b6114c2611cdd565b8152602001906001900390816114ba5790505b50905060006114e78560200151611a91565b85602001516114f6919061240a565b90506000805b8481101561156d5761150d83611b99565b915060405180604001604052808381526020018481525084828151811061154457634e487b7160e01b600052603260045260246000fd5b6020908102919091010152611559828461240a565b925080611565816125f5565b9150506114fc565b509195945050505050565b805160609061158657600080fd5b60006115958360200151611a91565b905060008184600001516115a9919061258b565b90506000816001600160401b038111156115d357634e487b7160e01b600052604160045260246000fd5b6040519080825280601f01601f1916602001820160405280156115fd576020820181803683370190505b50905060008160200190506113fb84876020015161161b919061240a565b8285611c3d565b600061162f600284612610565b1561167757601082611642600286612422565b8151811061166057634e487b7160e01b600052603260045260246000fd5b0160200151611672919060f81c612624565b6116b5565b601082611685600286612422565b815181106116a357634e487b7160e01b600052603260045260246000fd5b01602001516116b5919060f81c612436565b60f81b9392505050565b80516000906116d0575060006108e2565b6020820151805160001a9060c08210156116ef576000925050506108e2565b5060019392505050565b806117035761176e565b6020811061173b578251825261171a60208461240a565b925061172760208361240a565b915061173460208261258b565b9050611703565b6000600161174a83602061258b565b6117569061010061249e565b611760919061258b565b845184518216911916178352505b505050565b805160009060151461178457600080fd5b6109d482611389565b6060600082600001516001600160401b038111156117bb57634e487b7160e01b600052604160045260246000fd5b6040519080825280601f01601f1916602001820160405280156117e5576020820181803683370190505b5090508051600014156117f95790506108e2565b60008160200190506118148460200151828660000151611c3d565b5092915050565b805160009060211461182c57600080fd5b60008083602001516001611840919061240a565b51949350505050565b6000808061185686610a11565b9050600081516001600160401b0381111561188157634e487b7160e01b600052604160045260246000fd5b6040519080825280601f01601f1916602001820160405280156118ab576020820181803683370190505b509050845b82516118bc908761240a565b81101561194b5760008782815181106118e557634e487b7160e01b600052603260045260246000fd5b01602001516001600160f81b03191690508083611902898561258b565b8151811061192057634e487b7160e01b600052603260045260246000fd5b60200101906001600160f81b031916908160001a905350508080611943906125f5565b9150506118b0565b5080805190602001208280519060200120141561196b5781519250611970565b600092505b50909150505b9392505050565b60006020825161198d9190612610565b156119aa5760405162461bcd60e51b81526004016102d2906122aa565b6000602083516119ba9190612422565b90506119c781600261249e565b85106119e55760405162461bcd60e51b81526004016102d2906122d8565b60008660205b85518111611a8357858101519250611a04600289612610565b611a38578183604051602001611a1b929190611fda565b604051602081830303815290604052805190602001209150611a64565b8282604051602001611a4b929190611fda565b6040516020818303038152906040528051906020012091505b611a6f600289612422565b9750611a7c60208261240a565b90506119eb565b509094149695505050505050565b8051600090811a6080811015611aab5760009150506108e2565b60b8811080611ac6575060c08110801590611ac6575060f881105b15611ad55760019150506108e2565b60c0811015611b0a57611aea600160b86125a2565b611af79060ff168261258b565b611b0290600161240a565b9150506108e2565b611aea600160f86125a2565b8051600090611b27575060006108e2565b600080611b378460200151611a91565b8460200151611b46919061240a565b9050600084600001518560200151611b5e919061240a565b90505b80821015611b9057611b7282611b99565b611b7c908361240a565b915082611b88816125f5565b935050611b61565b50909392505050565b80516000908190811a6080811015611bb45760019150611814565b60b8811015611bda57611bc860808261258b565b611bd390600161240a565b9150611814565b60c0811015611c075760b78103600185019450806020036101000a85510460018201810193505050611814565b60f8811015611c1b57611bc860c08261258b565b60019390930151602084900360f7016101000a900490920160f5190192915050565b80611c475761176e565b60208110611c7f5782518252611c5e60208461240a565b9250611c6b60208361240a565b9150611c7860208261258b565b9050611c47565b8061173b5761176e565b6040518060200160405280606081525090565b60405180606001604052806060815260200160608152602001600081525090565b6040518060400160405280611cd0611cdd565b8152602001606081525090565b604051806040016040528060008152602001600081525090565b6000611d0a611d05846123e3565b6123ba565b9050828152838383011115611d1e57600080fd5b828260208301376000602084830101529392505050565b600060208284031215611d46578081fd5b813561197681612688565b60008060408385031215611d63578081fd5b8251611d6e81612688565b6020939093015192949293505050565b600080600080600060808688031215611d95578081fd5b8535611da081612688565b94506020860135611db081612688565b93506040860135925060608601356001600160401b0380821115611dd2578283fd5b818801915088601f830112611de5578283fd5b813581811115611df3578384fd5b896020828501011115611e04578384fd5b9699959850939650602001949392505050565b60008060008060808587031215611e2c578384fd5b8435611e3781612688565b93506020850135611e4781612688565b92506040850135915060608501356001600160401b03811115611e68578182fd5b8501601f81018713611e78578182fd5b611e8787823560208401611cf7565b91505092959194509250565b600060208284031215611ea4578081fd5b5035919050565b600080600080600060a08688031215611ec2578081fd5b855194506020860151935060408601519250606086015191506080860151611ee981612688565b809150509295509295909350565b600060208284031215611f08578081fd5b81356001600160401b03811115611f1d578182fd5b8201601f81018413611f2d578182fd5b61115484823560208401611cf7565b600060208284031215611f4d578081fd5b81516001600160401b03811115611f62578182fd5b8201601f81018413611f72578182fd5b8051611f80611d05826123e3565b818152856020838501011115611f94578384fd5b611fa58260208301602086016125c5565b95945050505050565b60008151808452611fc68160208601602086016125c5565b601f01601f19169290920160200192915050565b918252602082015260400190565b600084825283516120008160208501602088016125c5565b60209201918201929092526040019392505050565b93845260208401929092526040830152606082015260800190565b6001600160a01b0391909116815260200190565b6001600160a01b0386811682528581166020830152841660408201526060810183905260a06080820181905260009061207f90830184611fae565b979650505050505050565b6001600160a01b039384168152919092166020820152604081019190915260600190565b6001600160a01b038316815260406020820181905260009061115490830184611fae565b901515815260200190565b90815260200190565b6000838252604060208301526111546040830184611fae565b6001600160e01b031991909116815260200190565b6020808252602a908201527f467842617365526f6f7454756e6e656c3a204348494c445f54554e4e454c5f4160408201526913149150511657d4d15560b21b606082015260800190565b60208082526026908201527f4f776e61626c653a206e6577206f776e657220697320746865207a65726f206160408201526564647265737360d01b606082015260800190565b60208082526023908201527f4678526f6f7454756e6e656c3a20494e56414c49445f524543454950545f505260408201526227a7a360e91b606082015260800190565b60208082526024908201527f4678526f6f7454756e6e656c3a20455849545f414c52454144595f50524f434560408201526314d4d15160e21b606082015260800190565b6020808252602a908201527f506c656173652070726f766964652074686520636f727265637420616d6f756e6040820152693a1037b31032ba3432b960b11b606082015260800190565b6020808252818101527f4f776e61626c653a2063616c6c6572206973206e6f7420746865206f776e6572604082015260600190565b602080825260149082015273092dcecc2d8d2c840e0e4dedecc40d8cadccee8d60631b604082015260600190565b6020808252601590820152744c65616620696e64657820697320746f6f2062696760581b604082015260600190565b6020808252601c908201527f4678526f6f7454756e6e656c3a20494e56414c49445f48454144455200000000604082015260600190565b6020808252601f908201527f4678526f6f7454756e6e656c3a20494e56414c49445f5349474e415455524500604082015260600190565b60208082526025908201527f4678526f6f7454756e6e656c3a20494e56414c49445f46585f4348494c445f54604082015264155393915360da1b606082015260800190565b6040518181016001600160401b03811182821017156123db576123db612672565b604052919050565b60006001600160401b038211156123fc576123fc612672565b50601f01601f191660200190565b6000821982111561241d5761241d612646565b500190565b6000826124315761243161265c565b500490565b600060ff8316806124495761244961265c565b8060ff84160491505092915050565b80825b600180861161246a5750612495565b81870482111561247c5761247c612646565b8086161561248957918102915b9490941c93800261245b565b94509492505050565b600061197660001984846000826124b757506001611976565b816124c457506000611976565b81600181146124da57600281146124e457612511565b6001915050611976565b60ff8411156124f5576124f5612646565b6001841b91508482111561250b5761250b612646565b50611976565b5060208310610133831016604e8410600b8410161715612544575081810a8381111561253f5761253f612646565b611976565b6125518484846001612458565b80860482111561256357612563612646565b02949350505050565b600081600019048311821515161561258657612586612646565b500290565b60008282101561259d5761259d612646565b500390565b600060ff821660ff8416808210156125bc576125bc612646565b90039392505050565b60005b838110156125e05781810151838201526020016125c8565b838111156125ef576000848401525b50505050565b600060001982141561260957612609612646565b5060010190565b60008261261f5761261f61265c565b500690565b600060ff8316806126375761263761265c565b8060ff84160691505092915050565b634e487b7160e01b600052601160045260246000fd5b634e487b7160e01b600052601260045260246000fd5b634e487b7160e01b600052604160045260246000fd5b6001600160a01b038116811461060d57600080fdfea26469706673582212205cb4792f01fd7dfc9fe689b9203bf68794ba22fb3706e9e74ac501725085a57b64736f6c63430008000033",
  "linkReferences": {},
  "deployedLinkReferences": {}
}