{
  "_format": "hh-sol-artifact-1",
  "contractName": "RootTunnel",
  "sourceName": "contracts/RootTunnel.sol",
  "abi": [
    {
      "inputs": [
        {
          "internalType": "address",
          "name": "_checkpointManager",
          "type": "address"
        },
        {
          "internalType": "address",
          "name": "_fxRoot",
          "type": "address"
        },
        {
          "internalType": "address",
          "name": "rootTokenAddress_",
          "type": "address"
        }
      ],
      "stateMutability": "nonpayable",
      "type": "constructor"
    },
    {
      "anonymous": false,
      "inputs": [
        {
          "indexed": true,
          "internalType": "address",
          "name": "rootToken",
          "type": "address"
        },
        {
          "indexed": true,
          "internalType": "address",
          "name": "depositor",
          "type": "address"
        },
        {
          "indexed": true,
          "internalType": "address",
          "name": "userAddress",
          "type": "address"
        },
        {
          "indexed": false,
          "internalType": "uint256",
          "name": "id",
          "type": "uint256"
        },
        {
          "indexed": false,
          "internalType": "string",
          "name": "uri",
          "type": "string"
        }
      ],
      "name": "FxDepositERC721",
      "type": "event"
    },
    {
      "inputs": [],
      "name": "DEPOSIT",
      "outputs": [
        {
          "internalType": "bytes32",
          "name": "",
          "type": "bytes32"
        }
      ],
      "stateMutability": "view",
      "type": "function"
    },
    {
      "inputs": [],
      "name": "SEND_MESSAGE_EVENT_SIG",
      "outputs": [
        {
          "internalType": "bytes32",
          "name": "",
          "type": "bytes32"
        }
      ],
      "stateMutability": "view",
      "type": "function"
    },
    {
      "inputs": [],
      "name": "checkpointManager",
      "outputs": [
        {
          "internalType": "contract ICheckpointManager",
          "name": "",
          "type": "address"
        }
      ],
      "stateMutability": "view",
      "type": "function"
    },
    {
      "inputs": [
        {
          "internalType": "address",
          "name": "rootToken",
          "type": "address"
        },
        {
          "internalType": "address",
          "name": "user",
          "type": "address"
        },
        {
          "internalType": "uint256",
          "name": "tokenId",
          "type": "uint256"
        },
        {
          "internalType": "string",
          "name": "uri",
          "type": "string"
        }
      ],
      "name": "deposit",
      "outputs": [],
      "stateMutability": "nonpayable",
      "type": "function"
    },
    {
      "inputs": [],
      "name": "fxChildTunnel",
      "outputs": [
        {
          "internalType": "address",
          "name": "",
          "type": "address"
        }
      ],
      "stateMutability": "view",
      "type": "function"
    },
    {
      "inputs": [],
      "name": "fxRoot",
      "outputs": [
        {
          "internalType": "contract IFxStateSender",
          "name": "",
          "type": "address"
        }
      ],
      "stateMutability": "view",
      "type": "function"
    },
    {
      "inputs": [
        {
          "internalType": "address",
          "name": "",
          "type": "address"
        },
        {
          "internalType": "address",
          "name": "",
          "type": "address"
        },
        {
          "internalType": "uint256",
          "name": "",
          "type": "uint256"
        },
        {
          "internalType": "bytes",
          "name": "",
          "type": "bytes"
        }
      ],
      "name": "onERC721Received",
      "outputs": [
        {
          "internalType": "bytes4",
          "name": "",
          "type": "bytes4"
        }
      ],
      "stateMutability": "pure",
      "type": "function"
    },
    {
      "inputs": [
        {
          "internalType": "bytes32",
          "name": "",
          "type": "bytes32"
        }
      ],
      "name": "processedExits",
      "outputs": [
        {
          "internalType": "bool",
          "name": "",
          "type": "bool"
        }
      ],
      "stateMutability": "view",
      "type": "function"
    },
    {
      "inputs": [
        {
          "internalType": "bytes",
          "name": "inputData",
          "type": "bytes"
        }
      ],
      "name": "receiveMessage",
      "outputs": [],
      "stateMutability": "nonpayable",
      "type": "function"
    },
    {
      "inputs": [
        {
          "internalType": "address",
          "name": "_fxChildTunnel",
          "type": "address"
        }
      ],
      "name": "setFxChildTunnel",
      "outputs": [],
      "stateMutability": "nonpayable",
      "type": "function"
    }
  ],
  "bytecode": "0x60806040523480156200001157600080fd5b506040516200242938038062002429833981016040819052620000349162000094565b600180546001600160a01b039485166001600160a01b031991821617909155600080549385169382169390931790925560048054919093169116179055620000dd565b80516001600160a01b03811681146200008f57600080fd5b919050565b600080600060608486031215620000a9578283fd5b620000b48462000077565b9250620000c46020850162000077565b9150620000d46040850162000077565b90509250925092565b61233c80620000ed6000396000f3fe608060405234801561001057600080fd5b506004361061009e5760003560e01c8063aea4e49e11610066578063aea4e49e1461012b578063c0857ba01461013e578063d81c8e5214610146578063de9b771f1461014e578063f953cec7146101565761009e565b80630e387de6146100a3578063150b7a02146100c15780631fece7b4146100e1578063607f2d42146100f6578063972c492814610116575b600080fd5b6100ab610169565b6040516100b89190611e08565b60405180910390f35b6100d46100cf366004611aa9565b61018d565b6040516100b89190611e2a565b6100f46100ef366004611b42565b61019e565b005b610109610104366004611bbe565b6102d2565b6040516100b89190611dfd565b61011e6102e7565b6040516100b89190611d5b565b6100f4610139366004611a60565b6102f6565b61011e61034a565b6100ab610359565b61011e61037d565b6100f4610164366004611c22565b61038c565b7f8c5261668696ce22758910d05bab8f186d6eb247ceac2af2e82c7dc17669b03681565b630a85bd0160e11b95945050505050565b604051632142170760e11b81526001600160a01b038516906342842e0e906101ce90339030908790600401611db5565b600060405180830381600087803b1580156101e857600080fd5b505af11580156101fc573d6000803e3d6000fd5b5050505060007f87a7811f4bfedea3d341ad165680ae306b01aaeacc205d227629cf157dd9f821853386868660405160200161023c959493929190611d6f565b60408051601f198184030181529082905261025a9291602001611e11565b6040516020818303038152906040529050610274816103a6565b836001600160a01b0316336001600160a01b0316866001600160a01b03167f82ad1feb6bf5a6373e0d6d316baa3a1ae1ab0e5da532bfaddc4a2770767bc37e86866040516102c3929190611e11565b60405180910390a45050505050565b60036020526000908152604090205460ff1681565b6002546001600160a01b031681565b6002546001600160a01b0316156103285760405162461bcd60e51b815260040161031f90611e3f565b60405180910390fd5b600280546001600160a01b0319166001600160a01b0392909216919091179055565b6001546001600160a01b031681565b7f87a7811f4bfedea3d341ad165680ae306b01aaeacc205d227629cf157dd9f82181565b6000546001600160a01b031681565b600061039782610411565b90506103a281610611565b5050565b60005460025460405163b472047760e01b81526001600160a01b039283169263b4720477926103dc929116908590600401611dd9565b600060405180830381600087803b1580156103f657600080fd5b505af115801561040a573d6000803e3d6000fd5b5050505050565b6060600061041e83610698565b9050600061042b826106c8565b9050600061043883610705565b90506000816104468461073c565b61044f86610930565b60405160200161046193929190611d13565b60408051601f1981840301815291815281516020928301206000818152600390935291205490915060ff16156104a95760405162461bcd60e51b815260040161031f90611ecc565b6000818152600360205260408120805460ff191660011790556104cb8561095a565b905060006104d882610a67565b90506104e381610af6565b6002546001600160a01b039081169116146105105760405162461bcd60e51b815260040161031f90611fdb565b600061051b87610b2d565b905061053961052984610b57565b876105338a610b5e565b84610b88565b6105555760405162461bcd60e51b815260040161031f90611e89565b6105838561056289610e87565b61056b8a610eb1565b846105758c610edb565b61057e8d610f05565b610f2f565b50600061058f83611037565b90507f8c5261668696ce22758910d05bab8f186d6eb247ceac2af2e82c7dc17669b0366105c56105c083600061107a565b6110b4565b146105e25760405162461bcd60e51b815260040161031f90611fa4565b60006105ed8461112f565b8060200190518101906106009190611c67565b99505050505050505050505b919050565b600080828060200190518101906106289190611a7c565b60048054604051632142170760e11b81529395509193506001600160a01b03909116916342842e0e916106619130918791879101611db5565b600060405180830381600087803b15801561067b57600080fd5b505af115801561068f573d6000803e3d6000fd5b50505050505050565b6106a06119b4565b60006106b36106ae84611159565b61117e565b60408051602081019091529081529392505050565b60606106ff82600001516008815181106106f257634e487b7160e01b600052603260045260246000fd5b60200260200101516112a3565b92915050565b60006106ff826000015160028151811061072f57634e487b7160e01b600052603260045260246000fd5b60200260200101516110b4565b604080516020810190915260008152815160609190156106ff5760008061076460008661134d565b60f81c9050600181148061077b57508060ff166003145b1561083e5760018551600261079091906121d2565b61079a91906121f1565b6001600160401b038111156107bf57634e487b7160e01b600052604160045260246000fd5b6040519080825280601f01601f1916602001820160405280156107e9576020820181803683370190505b50925060006107f960018761134d565b9050808460008151811061081d57634e487b7160e01b600052603260045260246000fd5b60200101906001600160f81b031916908160001a90535060019250506108af565b60028551600261084e91906121d2565b61085891906121f1565b6001600160401b0381111561087d57634e487b7160e01b600052604160045260246000fd5b6040519080825280601f01601f1916602001820160405280156108a7576020820181803683370190505b509250600091505b60ff82165b8351811015610927576108de6108cd60ff8516836121f1565b6108d8906002612070565b8761134d565b8482815181106108fe57634e487b7160e01b600052603260045260246000fd5b60200101906001600160f81b031916908160001a9053508061091f8161225b565b9150506108b4565b50505092915050565b60006106ff826000015160098151811061072f57634e487b7160e01b600052603260045260246000fd5b6109626119c7565b61098a82600001516006815181106106f257634e487b7160e01b600052603260045260246000fd5b6020820181905260009061099d90611159565b90506109a8816113ea565b156109bd576109b68161117e565b8252610a53565b602082015180516000906109d3906001906121f1565b6001600160401b038111156109f857634e487b7160e01b600052604160045260246000fd5b6040519080825280601f01601f191660200182016040528015610a22576020820181803683370190505b509050600080836021019150826020019050610a4082828551611424565b610a4c6106ae84611159565b8652505050505b610a5c83610930565b604083015250919050565b610a6f6119e8565b6000610aa68360000151600381518110610a9957634e487b7160e01b600052603260045260246000fd5b602002602001015161117e565b836040015181518110610ac957634e487b7160e01b600052603260045260246000fd5b602002602001015190506040518060400160405280828152602001610aed8361117e565b90529392505050565b60006106ff8260200151600081518110610b2057634e487b7160e01b600052603260045260246000fd5b602002602001015161149e565b60006106ff826000015160058151811061072f57634e487b7160e01b600052603260045260246000fd5b6020015190565b60606106ff82600001516007815181106106f257634e487b7160e01b600052603260045260246000fd5b600080610b9484611159565b90506000610ba18261117e565b905060608085600080610bb38b61073c565b9050805160001415610bcf576000975050505050505050610e7f565b60005b8651811015610e76578151831115610bf557600098505050505050505050610e7f565b610c25878281518110610c1857634e487b7160e01b600052603260045260246000fd5b60200260200101516114b8565b955085805190602001208414610c4657600098505050505050505050610e7f565b610c69878281518110610a9957634e487b7160e01b600052603260045260246000fd5b9450845160111415610d68578151831415610cd9578c80519060200120610caa866010815181106106f257634e487b7160e01b600052603260045260246000fd5b805190602001201415610cc857600198505050505050505050610e7f565b600098505050505050505050610e7f565b6000828481518110610cfb57634e487b7160e01b600052603260045260246000fd5b016020015160f81c90506010811115610d205760009950505050505050505050610e7f565b610d53868260ff1681518110610d4657634e487b7160e01b600052603260045260246000fd5b6020026020010151611546565b9450610d60600185612070565b935050610e64565b845160021415610cc8576000610da2610d9b876000815181106106f257634e487b7160e01b600052603260045260246000fd5b8486611574565b8351909150610db18286612070565b1415610e14578d80519060200120610de3876001815181106106f257634e487b7160e01b600052603260045260246000fd5b805190602001201415610e025760019950505050505050505050610e7f565b60009950505050505050505050610e7f565b80610e2b5760009950505050505050505050610e7f565b610e358185612070565b9350610e5b86600181518110610d4657634e487b7160e01b600052603260045260246000fd5b9450610e649050565b80610e6e8161225b565b915050610bd2565b50505050505050505b949350505050565b60006106ff826000015160038151811061072f57634e487b7160e01b600052603260045260246000fd5b60006106ff826000015160048151811061072f57634e487b7160e01b600052603260045260246000fd5b60006106ff826000015160008151811061072f57634e487b7160e01b600052603260045260246000fd5b60606106ff82600001516001815181106106f257634e487b7160e01b600052603260045260246000fd5b6001546040516320a9cea560e11b81526000918291829182916001600160a01b03909116906341539d4a90610f68908990600401611e08565b60a06040518083038186803b158015610f8057600080fd5b505afa158015610f94573d6000803e3d6000fd5b505050506040513d601f19601f82011682018060405250810190610fb89190611bd6565b509350509250925061100e828b610fcf91906121f1565b84878d8d8d8d604051602001610fe89493929190611d40565b604051602081830303815290604052805190602001206116a8909392919063ffffffff16565b61102a5760405162461bcd60e51b815260040161031f90611f6d565b9998505050505050505050565b61103f6119b4565b60405180602001604052806110728460200151600181518110610a9957634e487b7160e01b600052603260045260246000fd5b905292915050565b611082611a08565b82518051839081106110a457634e487b7160e01b600052603260045260246000fd5b6020026020010151905092915050565b8051600090158015906110c957508151602110155b6110d257600080fd5b60006110e183602001516117bc565b905060008184600001516110f591906121f1565b905060008083866020015161110a9190612070565b905080519150602083101561112657826020036101000a820491505b50949350505050565b60606106ff82602001516002815181106106f257634e487b7160e01b600052603260045260246000fd5b611161611a08565b506040805180820190915281518152602082810190820152919050565b6060611189826113ea565b61119257600080fd5b600061119d83611841565b90506000816001600160401b038111156111c757634e487b7160e01b600052604160045260246000fd5b60405190808252806020026020018201604052801561120057816020015b6111ed611a08565b8152602001906001900390816111e55790505b509050600061121285602001516117bc565b85602001516112219190612070565b90506000805b8481101561129857611238836118c4565b915060405180604001604052808381526020018481525084828151811061126f57634e487b7160e01b600052603260045260246000fd5b60209081029190910101526112848284612070565b9250806112908161225b565b915050611227565b509195945050505050565b80516060906112b157600080fd5b60006112c083602001516117bc565b905060008184600001516112d491906121f1565b90506000816001600160401b038111156112fe57634e487b7160e01b600052604160045260246000fd5b6040519080825280601f01601f191660200182016040528015611328576020820181803683370190505b50905060008160200190506111268487602001516113469190612070565b8285611968565b600061135a600284612276565b156113a25760108261136d600286612088565b8151811061138b57634e487b7160e01b600052603260045260246000fd5b016020015161139d919060f81c61228a565b6113e0565b6010826113b0600286612088565b815181106113ce57634e487b7160e01b600052603260045260246000fd5b01602001516113e0919060f81c61209c565b60f81b9392505050565b80516000906113fb5750600061060c565b6020820151805160001a9060c082101561141a5760009250505061060c565b5060019392505050565b8061142e57611499565b602081106114665782518252611445602084612070565b9250611452602083612070565b915061145f6020826121f1565b905061142e565b600060016114758360206121f1565b61148190610100612104565b61148b91906121f1565b845184518216911916178352505b505050565b80516000906015146114af57600080fd5b6106ff826110b4565b6060600082600001516001600160401b038111156114e657634e487b7160e01b600052604160045260246000fd5b6040519080825280601f01601f191660200182016040528015611510576020820181803683370190505b50905080516000141561152457905061060c565b600081602001905061153f8460200151828660000151611968565b5092915050565b805160009060211461155757600080fd5b6000808360200151600161156b9190612070565b51949350505050565b600080806115818661073c565b9050600081516001600160401b038111156115ac57634e487b7160e01b600052604160045260246000fd5b6040519080825280601f01601f1916602001820160405280156115d6576020820181803683370190505b509050845b82516115e79087612070565b81101561167657600087828151811061161057634e487b7160e01b600052603260045260246000fd5b01602001516001600160f81b0319169050808361162d89856121f1565b8151811061164b57634e487b7160e01b600052603260045260246000fd5b60200101906001600160f81b031916908160001a90535050808061166e9061225b565b9150506115db565b50808051906020012082805190602001201415611696578151925061169b565b600092505b50909150505b9392505050565b6000602082516116b89190612276565b156116d55760405162461bcd60e51b815260040161031f90611f10565b6000602083516116e59190612088565b90506116f2816002612104565b85106117105760405162461bcd60e51b815260040161031f90611f3e565b60008660205b855181116117ae5785810151925061172f600289612276565b611763578183604051602001611746929190611d05565b60405160208183030381529060405280519060200120915061178f565b8282604051602001611776929190611d05565b6040516020818303038152906040528051906020012091505b61179a600289612088565b97506117a7602082612070565b9050611716565b509094149695505050505050565b8051600090811a60808110156117d657600091505061060c565b60b88110806117f1575060c081108015906117f1575060f881105b1561180057600191505061060c565b60c081101561183557611815600160b8612208565b6118229060ff16826121f1565b61182d906001612070565b91505061060c565b611815600160f8612208565b80516000906118525750600061060c565b60008061186284602001516117bc565b84602001516118719190612070565b90506000846000015185602001516118899190612070565b90505b808210156118bb5761189d826118c4565b6118a79083612070565b9150826118b38161225b565b93505061188c565b50909392505050565b80516000908190811a60808110156118df576001915061153f565b60b8811015611905576118f36080826121f1565b6118fe906001612070565b915061153f565b60c08110156119325760b78103600185019450806020036101000a8551046001820181019350505061153f565b60f8811015611946576118f360c0826121f1565b60019390930151602084900360f7016101000a900490920160f5190192915050565b8061197257611499565b602081106119aa5782518252611989602084612070565b9250611996602083612070565b91506119a36020826121f1565b9050611972565b8061146657611499565b6040518060200160405280606081525090565b60405180606001604052806060815260200160608152602001600081525090565b60405180604001604052806119fb611a08565b8152602001606081525090565b604051806040016040528060008152602001600081525090565b6000611a35611a3084612049565b612020565b9050828152838383011115611a4957600080fd5b828260208301376000602084830101529392505050565b600060208284031215611a71578081fd5b81356116a1816122ee565b60008060408385031215611a8e578081fd5b8251611a99816122ee565b6020939093015192949293505050565b600080600080600060808688031215611ac0578081fd5b8535611acb816122ee565b94506020860135611adb816122ee565b93506040860135925060608601356001600160401b0380821115611afd578283fd5b818801915088601f830112611b10578283fd5b813581811115611b1e578384fd5b896020828501011115611b2f578384fd5b9699959850939650602001949392505050565b60008060008060808587031215611b57578384fd5b8435611b62816122ee565b93506020850135611b72816122ee565b92506040850135915060608501356001600160401b03811115611b93578182fd5b8501601f81018713611ba3578182fd5b611bb287823560208401611a22565b91505092959194509250565b600060208284031215611bcf578081fd5b5035919050565b600080600080600060a08688031215611bed578081fd5b855194506020860151935060408601519250606086015191506080860151611c14816122ee565b809150509295509295909350565b600060208284031215611c33578081fd5b81356001600160401b03811115611c48578182fd5b8201601f81018413611c58578182fd5b610e7f84823560208401611a22565b600060208284031215611c78578081fd5b81516001600160401b03811115611c8d578182fd5b8201601f81018413611c9d578182fd5b8051611cab611a3082612049565b818152856020838501011115611cbf578384fd5b611cd082602083016020860161222b565b95945050505050565b60008151808452611cf181602086016020860161222b565b601f01601f19169290920160200192915050565b918252602082015260400190565b60008482528351611d2b81602085016020880161222b565b60209201918201929092526040019392505050565b93845260208401929092526040830152606082015260800190565b6001600160a01b0391909116815260200190565b6001600160a01b0386811682528581166020830152841660408201526060810183905260a060808201819052600090611daa90830184611cd9565b979650505050505050565b6001600160a01b039384168152919092166020820152604081019190915260600190565b6001600160a01b0383168152604060208201819052600090610e7f90830184611cd9565b901515815260200190565b90815260200190565b600083825260406020830152610e7f6040830184611cd9565b6001600160e01b031991909116815260200190565b6020808252602a908201527f467842617365526f6f7454756e6e656c3a204348494c445f54554e4e454c5f4160408201526913149150511657d4d15560b21b606082015260800190565b60208082526023908201527f4678526f6f7454756e6e656c3a20494e56414c49445f524543454950545f505260408201526227a7a360e91b606082015260800190565b60208082526024908201527f4678526f6f7454756e6e656c3a20455849545f414c52454144595f50524f434560408201526314d4d15160e21b606082015260800190565b602080825260149082015273092dcecc2d8d2c840e0e4dedecc40d8cadccee8d60631b604082015260600190565b6020808252601590820152744c65616620696e64657820697320746f6f2062696760581b604082015260600190565b6020808252601c908201527f4678526f6f7454756e6e656c3a20494e56414c49445f48454144455200000000604082015260600190565b6020808252601f908201527f4678526f6f7454756e6e656c3a20494e56414c49445f5349474e415455524500604082015260600190565b60208082526025908201527f4678526f6f7454756e6e656c3a20494e56414c49445f46585f4348494c445f54604082015264155393915360da1b606082015260800190565b6040518181016001600160401b0381118282101715612041576120416122d8565b604052919050565b60006001600160401b03821115612062576120626122d8565b50601f01601f191660200190565b60008219821115612083576120836122ac565b500190565b600082612097576120976122c2565b500490565b600060ff8316806120af576120af6122c2565b8060ff84160491505092915050565b80825b60018086116120d057506120fb565b8187048211156120e2576120e26122ac565b808616156120ef57918102915b9490941c9380026120c1565b94509492505050565b60006116a1600019848460008261211d575060016116a1565b8161212a575060006116a1565b8160018114612140576002811461214a57612177565b60019150506116a1565b60ff84111561215b5761215b6122ac565b6001841b915084821115612171576121716122ac565b506116a1565b5060208310610133831016604e8410600b84101617156121aa575081810a838111156121a5576121a56122ac565b6116a1565b6121b784848460016120be565b8086048211156121c9576121c96122ac565b02949350505050565b60008160001904831182151516156121ec576121ec6122ac565b500290565b600082821015612203576122036122ac565b500390565b600060ff821660ff841680821015612222576122226122ac565b90039392505050565b60005b8381101561224657818101518382015260200161222e565b83811115612255576000848401525b50505050565b600060001982141561226f5761226f6122ac565b5060010190565b600082612285576122856122c2565b500690565b600060ff83168061229d5761229d6122c2565b8060ff84160691505092915050565b634e487b7160e01b600052601160045260246000fd5b634e487b7160e01b600052601260045260246000fd5b634e487b7160e01b600052604160045260246000fd5b6001600160a01b038116811461230357600080fd5b5056fea26469706673582212205ca9e2043cc194b89770b8559d8597233b5dfbe65f4618b176d5d4c8a552b09364736f6c63430008000033",
  "linkReferences": {},
  "deployedLinkReferences": {}
}