{
  "_format": "hh-sol-artifact-1",
  "contractName": "RootTunnel",
  "sourceName": "contracts/RootTunnel.sol",
  "abi": [
    {
      "inputs": [
        {
          "internalType": "address",
          "name": "_checkpointManager",
          "type": "address"
        },
        {
          "internalType": "address",
          "name": "_fxRoot",
          "type": "address"
        }
      ],
      "stateMutability": "nonpayable",
      "type": "constructor"
    },
    {
      "anonymous": false,
      "inputs": [
        {
          "indexed": true,
          "internalType": "address",
          "name": "rootToken",
          "type": "address"
        },
        {
          "indexed": true,
          "internalType": "address",
          "name": "depositor",
          "type": "address"
        },
        {
          "indexed": true,
          "internalType": "address",
          "name": "userAddress",
          "type": "address"
        },
        {
          "indexed": false,
          "internalType": "uint256",
          "name": "id",
          "type": "uint256"
        },
        {
          "indexed": false,
          "internalType": "string",
          "name": "uri",
          "type": "string"
        }
      ],
      "name": "FxDepositERC721",
      "type": "event"
    },
    {
      "inputs": [],
      "name": "DEPOSIT",
      "outputs": [
        {
          "internalType": "bytes32",
          "name": "",
          "type": "bytes32"
        }
      ],
      "stateMutability": "view",
      "type": "function"
    },
    {
      "inputs": [],
      "name": "SEND_MESSAGE_EVENT_SIG",
      "outputs": [
        {
          "internalType": "bytes32",
          "name": "",
          "type": "bytes32"
        }
      ],
      "stateMutability": "view",
      "type": "function"
    },
    {
      "inputs": [],
      "name": "checkpointManager",
      "outputs": [
        {
          "internalType": "contract ICheckpointManager",
          "name": "",
          "type": "address"
        }
      ],
      "stateMutability": "view",
      "type": "function"
    },
    {
      "inputs": [
        {
          "internalType": "address",
          "name": "rootToken",
          "type": "address"
        },
        {
          "internalType": "address",
          "name": "user",
          "type": "address"
        },
        {
          "internalType": "uint256",
          "name": "tokenId",
          "type": "uint256"
        },
        {
          "internalType": "string",
          "name": "uri",
          "type": "string"
        }
      ],
      "name": "deposit",
      "outputs": [],
      "stateMutability": "nonpayable",
      "type": "function"
    },
    {
      "inputs": [],
      "name": "fxChildTunnel",
      "outputs": [
        {
          "internalType": "address",
          "name": "",
          "type": "address"
        }
      ],
      "stateMutability": "view",
      "type": "function"
    },
    {
      "inputs": [],
      "name": "fxRoot",
      "outputs": [
        {
          "internalType": "contract IFxStateSender",
          "name": "",
          "type": "address"
        }
      ],
      "stateMutability": "view",
      "type": "function"
    },
    {
      "inputs": [],
      "name": "number",
      "outputs": [
        {
          "internalType": "uint256",
          "name": "",
          "type": "uint256"
        }
      ],
      "stateMutability": "view",
      "type": "function"
    },
    {
      "inputs": [
        {
          "internalType": "address",
          "name": "",
          "type": "address"
        },
        {
          "internalType": "address",
          "name": "",
          "type": "address"
        },
        {
          "internalType": "uint256",
          "name": "",
          "type": "uint256"
        },
        {
          "internalType": "bytes",
          "name": "",
          "type": "bytes"
        }
      ],
      "name": "onERC721Received",
      "outputs": [
        {
          "internalType": "bytes4",
          "name": "",
          "type": "bytes4"
        }
      ],
      "stateMutability": "pure",
      "type": "function"
    },
    {
      "inputs": [
        {
          "internalType": "bytes32",
          "name": "",
          "type": "bytes32"
        }
      ],
      "name": "processedExits",
      "outputs": [
        {
          "internalType": "bool",
          "name": "",
          "type": "bool"
        }
      ],
      "stateMutability": "view",
      "type": "function"
    },
    {
      "inputs": [
        {
          "internalType": "bytes",
          "name": "inputData",
          "type": "bytes"
        }
      ],
      "name": "receiveMessage",
      "outputs": [],
      "stateMutability": "nonpayable",
      "type": "function"
    },
    {
      "inputs": [
        {
          "internalType": "address",
          "name": "_fxChildTunnel",
          "type": "address"
        }
      ],
      "name": "setFxChildTunnel",
      "outputs": [],
      "stateMutability": "nonpayable",
      "type": "function"
    }
  ],
  "bytecode": "0x60806040526107c76004553480156200001757600080fd5b506040516200218c3803806200218c8339810160408190526200003a9162000089565b600180546001600160a01b039384166001600160a01b03199182161790915560008054929093169116179055620000c0565b80516001600160a01b03811681146200008457600080fd5b919050565b600080604083850312156200009c578182fd5b620000a7836200006c565b9150620000b7602084016200006c565b90509250929050565b6120bc80620000d06000396000f3fe608060405234801561001057600080fd5b50600436106100a95760003560e01c8063972c492811610071578063972c492814610129578063aea4e49e1461013e578063c0857ba014610151578063d81c8e5214610159578063de9b771f14610161578063f953cec714610169576100a9565b80630e387de6146100ae578063150b7a02146100cc5780631fece7b4146100ec578063607f2d42146101015780638381f58a14610121575b600080fd5b6100b661017c565b6040516100c39190611b86565b60405180910390f35b6100df6100da366004611823565b6101a0565b6040516100c39190611ba8565b6100ff6100fa3660046118bd565b6101b1565b005b61011461010f36600461193a565b6102e5565b6040516100c39190611b7b565b6100b66102fa565b610131610300565b6040516100c39190611ad9565b6100ff61014c3660046117da565b61030f565b610131610363565b6100b6610372565b610131610396565b6100ff61017736600461199e565b6103a5565b7f8c5261668696ce22758910d05bab8f186d6eb247ceac2af2e82c7dc17669b03681565b630a85bd0160e11b95945050505050565b604051632142170760e11b81526001600160a01b038516906342842e0e906101e190339030908790600401611b33565b600060405180830381600087803b1580156101fb57600080fd5b505af115801561020f573d6000803e3d6000fd5b5050505060007f87a7811f4bfedea3d341ad165680ae306b01aaeacc205d227629cf157dd9f821853386868660405160200161024f959493929190611aed565b60408051601f198184030181529082905261026d9291602001611b8f565b6040516020818303038152906040529050610287816103bf565b836001600160a01b0316336001600160a01b0316866001600160a01b03167f82ad1feb6bf5a6373e0d6d316baa3a1ae1ab0e5da532bfaddc4a2770767bc37e86866040516102d6929190611b8f565b60405180910390a45050505050565b60036020526000908152604090205460ff1681565b60045481565b6002546001600160a01b031681565b6002546001600160a01b0316156103415760405162461bcd60e51b815260040161033890611bbd565b60405180910390fd5b600280546001600160a01b0319166001600160a01b0392909216919091179055565b6001546001600160a01b031681565b7f87a7811f4bfedea3d341ad165680ae306b01aaeacc205d227629cf157dd9f82181565b6000546001600160a01b031681565b60006103b08261042a565b90506103bb816108da565b5050565b60005460025460405163b472047760e01b81526001600160a01b039283169263b4720477926103f5929116908590600401611b57565b600060405180830381600087803b15801561040f57600080fd5b505af1158015610423573d6000803e3d6000fd5b5050505050565b6060600061043f61043a846108f8565b61091d565b905060006104748260028151811061046757634e487b7160e01b600052603260045260246000fd5b6020026020010151610a43565b6104ad6104a88460088151811061049b57634e487b7160e01b600052603260045260246000fd5b6020026020010151610abe565b610b69565b6104d18460098151811061046757634e487b7160e01b600052603260045260246000fd5b6040516020016104e393929190611a91565b60408051601f1981840301815291815281516020928301206000818152600390935291205490915060ff161561052b5760405162461bcd60e51b815260040161033890611c4a565b6000818152600360205260408120805460ff1916600117905582516105789061043a90610573908690600690811061049b57634e487b7160e01b600052603260045260246000fd5b6108f8565b905060006105ad826003815181106105a057634e487b7160e01b600052603260045260246000fd5b602002602001015161091d565b6105d18560098151811061046757634e487b7160e01b600052603260045260246000fd5b815181106105ef57634e487b7160e01b600052603260045260246000fd5b6020026020010151905060006106048261091d565b90506106378160008151811061062a57634e487b7160e01b600052603260045260246000fd5b6020026020010151610d60565b6002546001600160a01b039081169116146106645760405162461bcd60e51b815260040161033890611d59565b6106fc61068b8660068151811061049b57634e487b7160e01b600052603260045260246000fd5b6106af8760088151811061049b57634e487b7160e01b600052603260045260246000fd5b6106d38860078151811061049b57634e487b7160e01b600052603260045260246000fd5b6106f78960058151811061046757634e487b7160e01b600052603260045260246000fd5b610d7a565b6107185760405162461bcd60e51b815260040161033890611c07565b6107fe61073f8660028151811061046757634e487b7160e01b600052603260045260246000fd5b6107638760038151811061046757634e487b7160e01b600052603260045260246000fd5b6107878860048151811061046757634e487b7160e01b600052603260045260246000fd5b60001b6107ae8960058151811061046757634e487b7160e01b600052603260045260246000fd5b60001b6107d58a60008151811061046757634e487b7160e01b600052603260045260246000fd5b6107f98b60018151811061049b57634e487b7160e01b600052603260045260246000fd5b611079565b506000610825826001815181106105a057634e487b7160e01b600052603260045260246000fd5b90507f8c5261668696ce22758910d05bab8f186d6eb247ceac2af2e82c7dc17669b03660001b61086f8260008151811061046757634e487b7160e01b600052603260045260246000fd5b1461088c5760405162461bcd60e51b815260040161033890611d22565b60006108b28360028151811061049b57634e487b7160e01b600052603260045260246000fd5b90506000818060200190518101906108ca91906119e4565b985050505050505050505b919050565b6000818060200190518101906108f091906117f6565b600455505050565b610900611782565b506040805180820190915281518152602082810190820152919050565b606061092882611181565b61093157600080fd5b600061093c836111bb565b905060008167ffffffffffffffff81111561096757634e487b7160e01b600052604160045260246000fd5b6040519080825280602002602001820160405280156109a057816020015b61098d611782565b8152602001906001900390816109855790505b50905060006109b2856020015161123e565b85602001516109c19190611df0565b90506000805b84811015610a38576109d8836112c3565b9150604051806040016040528083815260200184815250848281518110610a0f57634e487b7160e01b600052603260045260246000fd5b6020908102919091010152610a248284611df0565b925080610a3081611fdb565b9150506109c7565b509195945050505050565b805160009015801590610a5857508151602110155b610a6157600080fd5b6000610a70836020015161123e565b90506000818460000151610a849190611f71565b9050600080838660200151610a999190611df0565b9050805191506020831015610ab557826020036101000a820491505b50949350505050565b8051606090610acc57600080fd5b6000610adb836020015161123e565b90506000818460000151610aef9190611f71565b905060008167ffffffffffffffff811115610b1a57634e487b7160e01b600052604160045260246000fd5b6040519080825280601f01601f191660200182016040528015610b44576020820181803683370190505b5090506000816020019050610ab5848760200151610b629190611df0565b828561136c565b60408051602081019091526000815281516060919015610d5a57600080610b916000866113e6565b60f81c90506001811480610ba857508060ff166003145b15610c6c57600185516002610bbd9190611f52565b610bc79190611f71565b67ffffffffffffffff811115610bed57634e487b7160e01b600052604160045260246000fd5b6040519080825280601f01601f191660200182016040528015610c17576020820181803683370190505b5092506000610c276001876113e6565b90508084600081518110610c4b57634e487b7160e01b600052603260045260246000fd5b60200101906001600160f81b031916908160001a9053506001925050610cde565b600285516002610c7c9190611f52565b610c869190611f71565b67ffffffffffffffff811115610cac57634e487b7160e01b600052604160045260246000fd5b6040519080825280601f01601f191660200182016040528015610cd6576020820181803683370190505b509250600091505b60ff82165b8351811015610d5657610d0d610cfc60ff851683611f71565b610d07906002611df0565b876113e6565b848281518110610d2d57634e487b7160e01b600052603260045260246000fd5b60200101906001600160f81b031916908160001a90535080610d4e81611fdb565b915050610ce3565b5050505b92915050565b8051600090601514610d7157600080fd5b610d5a82610a43565b600080610d86846108f8565b90506000610d938261091d565b905060608085600080610da58b610b69565b9050805160001415610dc1576000975050505050505050611071565b60005b8651811015611068578151831115610de757600098505050505050505050611071565b610e17878281518110610e0a57634e487b7160e01b600052603260045260246000fd5b6020026020010151611483565b955085805190602001208414610e3857600098505050505050505050611071565b610e5b8782815181106105a057634e487b7160e01b600052603260045260246000fd5b9450845160111415610f5a578151831415610ecb578c80519060200120610e9c8660108151811061049b57634e487b7160e01b600052603260045260246000fd5b805190602001201415610eba57600198505050505050505050611071565b600098505050505050505050611071565b6000828481518110610eed57634e487b7160e01b600052603260045260246000fd5b016020015160f81c90506010811115610f125760009950505050505050505050611071565b610f45868260ff1681518110610f3857634e487b7160e01b600052603260045260246000fd5b602002602001015161150b565b9450610f52600185611df0565b935050611056565b845160021415610eba576000610f94610f8d8760008151811061049b57634e487b7160e01b600052603260045260246000fd5b8486611539565b8351909150610fa38286611df0565b1415611006578d80519060200120610fd58760018151811061049b57634e487b7160e01b600052603260045260246000fd5b805190602001201415610ff45760019950505050505050505050611071565b60009950505050505050505050611071565b8061101d5760009950505050505050505050611071565b6110278185611df0565b935061104d86600181518110610f3857634e487b7160e01b600052603260045260246000fd5b94506110569050565b8061106081611fdb565b915050610dc4565b50505050505050505b949350505050565b6001546040516320a9cea560e11b81526000918291829182916001600160a01b03909116906341539d4a906110b2908990600401611b86565b60a06040518083038186803b1580156110ca57600080fd5b505afa1580156110de573d6000803e3d6000fd5b505050506040513d601f19601f820116820180604052508101906111029190611952565b5093505092509250611158828b6111199190611f71565b84878d8d8d8d6040516020016111329493929190611abe565b6040516020818303038152906040528051906020012061166e909392919063ffffffff16565b6111745760405162461bcd60e51b815260040161033890611ceb565b9998505050505050505050565b8051600090611192575060006108d5565b6020820151805160001a9060c08210156111b1576000925050506108d5565b5060019392505050565b80516000906111cc575060006108d5565b6000806111dc846020015161123e565b84602001516111eb9190611df0565b90506000846000015185602001516112039190611df0565b90505b8082101561123557611217826112c3565b6112219083611df0565b91508261122d81611fdb565b935050611206565b50909392505050565b8051600090811a60808110156112585760009150506108d5565b60b8811080611273575060c08110801590611273575060f881105b156112825760019150506108d5565b60c08110156112b757611297600160b8611f88565b6112a49060ff1682611f71565b6112af906001611df0565b9150506108d5565b611297600160f8611f88565b80516000908190811a60808110156112de5760019150611365565b60b8811015611304576112f2608082611f71565b6112fd906001611df0565b9150611365565b60c08110156113315760b78103600185019450806020036101000a85510460018201810193505050611365565b60f8811015611345576112f260c082611f71565b60f78103600185019450806020036101000a855104600182018101935050505b5092915050565b80611376576113e1565b602081106113ae578251825261138d602084611df0565b925061139a602083611df0565b91506113a7602082611f71565b9050611376565b600060016113bd836020611f71565b6113c990610100611e84565b6113d39190611f71565b845184518216911916178352505b505050565b60006113f3600284611ff6565b1561143b57601082611406600286611e08565b8151811061142457634e487b7160e01b600052603260045260246000fd5b0160200151611436919060f81c61200a565b611479565b601082611449600286611e08565b8151811061146757634e487b7160e01b600052603260045260246000fd5b0160200151611479919060f81c611e1c565b60f81b9392505050565b60606000826000015167ffffffffffffffff8111156114b257634e487b7160e01b600052604160045260246000fd5b6040519080825280601f01601f1916602001820160405280156114dc576020820181803683370190505b5090508051600014156114f05790506108d5565b6000816020019050611365846020015182866000015161136c565b805160009060211461151c57600080fd5b600080836020015160016115309190611df0565b51949350505050565b6000808061154686610b69565b90506000815167ffffffffffffffff81111561157257634e487b7160e01b600052604160045260246000fd5b6040519080825280601f01601f19166020018201604052801561159c576020820181803683370190505b509050845b82516115ad9087611df0565b81101561163c5760008782815181106115d657634e487b7160e01b600052603260045260246000fd5b01602001516001600160f81b031916905080836115f38985611f71565b8151811061161157634e487b7160e01b600052603260045260246000fd5b60200101906001600160f81b031916908160001a90535050808061163490611fdb565b9150506115a1565b5080805190602001208280519060200120141561165c5781519250611661565b600092505b50909150505b9392505050565b60006020825161167e9190611ff6565b1561169b5760405162461bcd60e51b815260040161033890611c8e565b6000602083516116ab9190611e08565b90506116b8816002611e84565b85106116d65760405162461bcd60e51b815260040161033890611cbc565b60008660205b85518111611774578581015192506116f5600289611ff6565b61172957818360405160200161170c929190611a83565b604051602081830303815290604052805190602001209150611755565b828260405160200161173c929190611a83565b6040516020818303038152906040528051906020012091505b611760600289611e08565b975061176d602082611df0565b90506116dc565b509094149695505050505050565b604051806040016040528060008152602001600081525090565b60006117af6117aa84611dc8565b611d9e565b90508281528383830111156117c357600080fd5b828260208301376000602084830101529392505050565b6000602082840312156117eb578081fd5b81356116678161206e565b60008060408385031215611808578081fd5b82516118138161206e565b6020939093015192949293505050565b60008060008060006080868803121561183a578081fd5b85356118458161206e565b945060208601356118558161206e565b935060408601359250606086013567ffffffffffffffff80821115611878578283fd5b818801915088601f83011261188b578283fd5b813581811115611899578384fd5b8960208285010111156118aa578384fd5b9699959850939650602001949392505050565b600080600080608085870312156118d2578384fd5b84356118dd8161206e565b935060208501356118ed8161206e565b925060408501359150606085013567ffffffffffffffff81111561190f578182fd5b8501601f8101871361191f578182fd5b61192e8782356020840161179c565b91505092959194509250565b60006020828403121561194b578081fd5b5035919050565b600080600080600060a08688031215611969578081fd5b8551945060208601519350604086015192506060860151915060808601516119908161206e565b809150509295509295909350565b6000602082840312156119af578081fd5b813567ffffffffffffffff8111156119c5578182fd5b8201601f810184136119d5578182fd5b6110718482356020840161179c565b6000602082840312156119f5578081fd5b815167ffffffffffffffff811115611a0b578182fd5b8201601f81018413611a1b578182fd5b8051611a296117aa82611dc8565b818152856020838501011115611a3d578384fd5b611a4e826020830160208601611fab565b95945050505050565b60008151808452611a6f816020860160208601611fab565b601f01601f19169290920160200192915050565b918252602082015260400190565b60008482528351611aa9816020850160208801611fab565b60209201918201929092526040019392505050565b93845260208401929092526040830152606082015260800190565b6001600160a01b0391909116815260200190565b6001600160a01b0386811682528581166020830152841660408201526060810183905260a060808201819052600090611b2890830184611a57565b979650505050505050565b6001600160a01b039384168152919092166020820152604081019190915260600190565b6001600160a01b038316815260406020820181905260009061107190830184611a57565b901515815260200190565b90815260200190565b6000838252604060208301526110716040830184611a57565b6001600160e01b031991909116815260200190565b6020808252602a908201527f467842617365526f6f7454756e6e656c3a204348494c445f54554e4e454c5f4160408201526913149150511657d4d15560b21b606082015260800190565b60208082526023908201527f4678526f6f7454756e6e656c3a20494e56414c49445f524543454950545f505260408201526227a7a360e91b606082015260800190565b60208082526024908201527f4678526f6f7454756e6e656c3a20455849545f414c52454144595f50524f434560408201526314d4d15160e21b606082015260800190565b602080825260149082015273092dcecc2d8d2c840e0e4dedecc40d8cadccee8d60631b604082015260600190565b6020808252601590820152744c65616620696e64657820697320746f6f2062696760581b604082015260600190565b6020808252601c908201527f4678526f6f7454756e6e656c3a20494e56414c49445f48454144455200000000604082015260600190565b6020808252601f908201527f4678526f6f7454756e6e656c3a20494e56414c49445f5349474e415455524500604082015260600190565b60208082526025908201527f4678526f6f7454756e6e656c3a20494e56414c49445f46585f4348494c445f54604082015264155393915360da1b606082015260800190565b60405181810167ffffffffffffffff81118282101715611dc057611dc0612058565b604052919050565b600067ffffffffffffffff821115611de257611de2612058565b50601f01601f191660200190565b60008219821115611e0357611e0361202c565b500190565b600082611e1757611e17612042565b500490565b600060ff831680611e2f57611e2f612042565b8060ff84160491505092915050565b80825b6001808611611e505750611e7b565b818704821115611e6257611e6261202c565b80861615611e6f57918102915b9490941c938002611e41565b94509492505050565b60006116676000198484600082611e9d57506001611667565b81611eaa57506000611667565b8160018114611ec05760028114611eca57611ef7565b6001915050611667565b60ff841115611edb57611edb61202c565b6001841b915084821115611ef157611ef161202c565b50611667565b5060208310610133831016604e8410600b8410161715611f2a575081810a83811115611f2557611f2561202c565b611667565b611f378484846001611e3e565b808604821115611f4957611f4961202c565b02949350505050565b6000816000190483118215151615611f6c57611f6c61202c565b500290565b600082821015611f8357611f8361202c565b500390565b600060ff821660ff841680821015611fa257611fa261202c565b90039392505050565b60005b83811015611fc6578181015183820152602001611fae565b83811115611fd5576000848401525b50505050565b6000600019821415611fef57611fef61202c565b5060010190565b60008261200557612005612042565b500690565b600060ff83168061201d5761201d612042565b8060ff84160691505092915050565b634e487b7160e01b600052601160045260246000fd5b634e487b7160e01b600052601260045260246000fd5b634e487b7160e01b600052604160045260246000fd5b6001600160a01b038116811461208357600080fd5b5056fea2646970667358221220739a8b1913e0f2525f5dcfd6183b0676f5774be208119b299be91495981d3ce064736f6c63430008000033",
  "linkReferences": {},
  "deployedLinkReferences": {}
}