{
  "_format": "hh-sol-artifact-1",
  "contractName": "RootTunnel",
  "sourceName": "contracts/RootTunnel.sol",
  "abi": [
    {
      "inputs": [
        {
          "internalType": "address",
          "name": "_checkpointManager",
          "type": "address"
        },
        {
          "internalType": "address",
          "name": "_fxRoot",
          "type": "address"
        }
      ],
      "stateMutability": "nonpayable",
      "type": "constructor"
    },
    {
      "anonymous": false,
      "inputs": [
        {
          "indexed": true,
          "internalType": "address",
          "name": "rootToken",
          "type": "address"
        },
        {
          "indexed": true,
          "internalType": "address",
          "name": "depositor",
          "type": "address"
        },
        {
          "indexed": true,
          "internalType": "address",
          "name": "userAddress",
          "type": "address"
        },
        {
          "indexed": false,
          "internalType": "uint256",
          "name": "id",
          "type": "uint256"
        },
        {
          "indexed": false,
          "internalType": "string",
          "name": "uri",
          "type": "string"
        }
      ],
      "name": "FxDepositERC721",
      "type": "event"
    },
    {
      "inputs": [],
      "name": "DEPOSIT",
      "outputs": [
        {
          "internalType": "bytes32",
          "name": "",
          "type": "bytes32"
        }
      ],
      "stateMutability": "view",
      "type": "function"
    },
    {
      "inputs": [],
      "name": "SEND_MESSAGE_EVENT_SIG",
      "outputs": [
        {
          "internalType": "bytes32",
          "name": "",
          "type": "bytes32"
        }
      ],
      "stateMutability": "view",
      "type": "function"
    },
    {
      "inputs": [],
      "name": "checkpointManager",
      "outputs": [
        {
          "internalType": "contract ICheckpointManager",
          "name": "",
          "type": "address"
        }
      ],
      "stateMutability": "view",
      "type": "function"
    },
    {
      "inputs": [
        {
          "internalType": "address",
          "name": "rootToken",
          "type": "address"
        },
        {
          "internalType": "address",
          "name": "user",
          "type": "address"
        },
        {
          "internalType": "uint256",
          "name": "tokenId",
          "type": "uint256"
        },
        {
          "internalType": "string",
          "name": "uri",
          "type": "string"
        }
      ],
      "name": "deposit",
      "outputs": [],
      "stateMutability": "nonpayable",
      "type": "function"
    },
    {
      "inputs": [],
      "name": "fxChildTunnel",
      "outputs": [
        {
          "internalType": "address",
          "name": "",
          "type": "address"
        }
      ],
      "stateMutability": "view",
      "type": "function"
    },
    {
      "inputs": [],
      "name": "fxRoot",
      "outputs": [
        {
          "internalType": "contract IFxStateSender",
          "name": "",
          "type": "address"
        }
      ],
      "stateMutability": "view",
      "type": "function"
    },
    {
      "inputs": [],
      "name": "latestData",
      "outputs": [
        {
          "internalType": "bytes",
          "name": "",
          "type": "bytes"
        }
      ],
      "stateMutability": "view",
      "type": "function"
    },
    {
      "inputs": [
        {
          "internalType": "address",
          "name": "",
          "type": "address"
        },
        {
          "internalType": "address",
          "name": "",
          "type": "address"
        },
        {
          "internalType": "uint256",
          "name": "",
          "type": "uint256"
        },
        {
          "internalType": "bytes",
          "name": "",
          "type": "bytes"
        }
      ],
      "name": "onERC721Received",
      "outputs": [
        {
          "internalType": "bytes4",
          "name": "",
          "type": "bytes4"
        }
      ],
      "stateMutability": "pure",
      "type": "function"
    },
    {
      "inputs": [
        {
          "internalType": "bytes32",
          "name": "",
          "type": "bytes32"
        }
      ],
      "name": "processedExits",
      "outputs": [
        {
          "internalType": "bool",
          "name": "",
          "type": "bool"
        }
      ],
      "stateMutability": "view",
      "type": "function"
    },
    {
      "inputs": [
        {
          "internalType": "bytes",
          "name": "inputData",
          "type": "bytes"
        }
      ],
      "name": "receiveMessage",
      "outputs": [],
      "stateMutability": "nonpayable",
      "type": "function"
    },
    {
      "inputs": [
        {
          "internalType": "address",
          "name": "_fxChildTunnel",
          "type": "address"
        }
      ],
      "name": "setFxChildTunnel",
      "outputs": [],
      "stateMutability": "nonpayable",
      "type": "function"
    }
  ],
  "bytecode": "0x60806040523480156200001157600080fd5b50604051620022ca380380620022ca833981016040819052620000349162000083565b600180546001600160a01b039384166001600160a01b03199182161790915560008054929093169116179055620000ba565b80516001600160a01b03811681146200007e57600080fd5b919050565b6000806040838503121562000096578182fd5b620000a18362000066565b9150620000b16020840162000066565b90509250929050565b61220080620000ca6000396000f3fe608060405234801561001057600080fd5b50600436106100a95760003560e01c8063972c492811610071578063972c492814610136578063aea4e49e1461014b578063c0857ba01461015e578063d81c8e5214610166578063de9b771f1461016e578063f953cec714610176576100a9565b80630e387de6146100ae578063142bc2ae146100cc578063150b7a02146100e15780631fece7b414610101578063607f2d4214610116575b600080fd5b6100b6610189565b6040516100c39190611c82565b60405180910390f35b6100d46101ad565b6040516100c39190611cb9565b6100f46100ef36600461191f565b61023b565b6040516100c39190611ca4565b61011461010f3660046119b9565b61024c565b005b610129610124366004611a36565b610380565b6040516100c39190611c77565b61013e610395565b6040516100c39190611bd5565b610114610159366004611903565b6103a4565b61013e6103f8565b6100b6610407565b61013e61042b565b610114610184366004611a9a565b61043a565b7f8c5261668696ce22758910d05bab8f186d6eb247ceac2af2e82c7dc17669b03681565b600480546101ba906120ea565b80601f01602080910402602001604051908101604052809291908181526020018280546101e6906120ea565b80156102335780601f1061020857610100808354040283529160200191610233565b820191906000526020600020905b81548152906001019060200180831161021657829003601f168201915b505050505081565b630a85bd0160e11b95945050505050565b604051632142170760e11b81526001600160a01b038516906342842e0e9061027c90339030908790600401611c2f565b600060405180830381600087803b15801561029657600080fd5b505af11580156102aa573d6000803e3d6000fd5b5050505060007f87a7811f4bfedea3d341ad165680ae306b01aaeacc205d227629cf157dd9f82185338686866040516020016102ea959493929190611be9565b60408051601f19818403018152908290526103089291602001611c8b565b604051602081830303815290604052905061032281610454565b836001600160a01b0316336001600160a01b0316866001600160a01b03167f82ad1feb6bf5a6373e0d6d316baa3a1ae1ab0e5da532bfaddc4a2770767bc37e8686604051610371929190611c8b565b60405180910390a45050505050565b60036020526000908152604090205460ff1681565b6002546001600160a01b031681565b6002546001600160a01b0316156103d65760405162461bcd60e51b81526004016103cd90611ccc565b60405180910390fd5b600280546001600160a01b0319166001600160a01b0392909216919091179055565b6001546001600160a01b031681565b7f87a7811f4bfedea3d341ad165680ae306b01aaeacc205d227629cf157dd9f82181565b6000546001600160a01b031681565b6000610445826104bf565b90506104508161096f565b5050565b60005460025460405163b472047760e01b81526001600160a01b039283169263b47204779261048a929116908590600401611c53565b600060405180830381600087803b1580156104a457600080fd5b505af11580156104b8573d6000803e3d6000fd5b5050505050565b606060006104d46104cf84610982565b6109a7565b90506000610509826002815181106104fc57634e487b7160e01b600052603260045260246000fd5b6020026020010151610acd565b61054261053d8460088151811061053057634e487b7160e01b600052603260045260246000fd5b6020026020010151610b48565b610bf3565b610566846009815181106104fc57634e487b7160e01b600052603260045260246000fd5b60405160200161057893929190611b8d565b60408051601f1981840301815291815281516020928301206000818152600390935291205490915060ff16156105c05760405162461bcd60e51b81526004016103cd90611d59565b6000818152600360205260408120805460ff19166001179055825161060d906104cf90610608908690600690811061053057634e487b7160e01b600052603260045260246000fd5b610982565b905060006106428260038151811061063557634e487b7160e01b600052603260045260246000fd5b60200260200101516109a7565b610666856009815181106104fc57634e487b7160e01b600052603260045260246000fd5b8151811061068457634e487b7160e01b600052603260045260246000fd5b602002602001015190506000610699826109a7565b90506106cc816000815181106106bf57634e487b7160e01b600052603260045260246000fd5b6020026020010151610dea565b6002546001600160a01b039081169116146106f95760405162461bcd60e51b81526004016103cd90611e68565b6107916107208660068151811061053057634e487b7160e01b600052603260045260246000fd5b6107448760088151811061053057634e487b7160e01b600052603260045260246000fd5b6107688860078151811061053057634e487b7160e01b600052603260045260246000fd5b61078c896005815181106104fc57634e487b7160e01b600052603260045260246000fd5b610e04565b6107ad5760405162461bcd60e51b81526004016103cd90611d16565b6108936107d4866002815181106104fc57634e487b7160e01b600052603260045260246000fd5b6107f8876003815181106104fc57634e487b7160e01b600052603260045260246000fd5b61081c886004815181106104fc57634e487b7160e01b600052603260045260246000fd5b60001b610843896005815181106104fc57634e487b7160e01b600052603260045260246000fd5b60001b61086a8a6000815181106104fc57634e487b7160e01b600052603260045260246000fd5b61088e8b60018151811061053057634e487b7160e01b600052603260045260246000fd5b611103565b5060006108ba8260018151811061063557634e487b7160e01b600052603260045260246000fd5b90507f8c5261668696ce22758910d05bab8f186d6eb247ceac2af2e82c7dc17669b03660001b610904826000815181106104fc57634e487b7160e01b600052603260045260246000fd5b146109215760405162461bcd60e51b81526004016103cd90611e31565b60006109478360028151811061053057634e487b7160e01b600052603260045260246000fd5b905060008180602001905181019061095f9190611ae0565b985050505050505050505b919050565b8051610450906004906020840190611812565b61098a611896565b506040805180820190915281518152602082810190820152919050565b60606109b28261120b565b6109bb57600080fd5b60006109c683611245565b905060008167ffffffffffffffff8111156109f157634e487b7160e01b600052604160045260246000fd5b604051908082528060200260200182016040528015610a2a57816020015b610a17611896565b815260200190600190039081610a0f5790505b5090506000610a3c85602001516112c8565b8560200151610a4b9190611eff565b90506000805b84811015610ac257610a6283611353565b9150604051806040016040528083815260200184815250848281518110610a9957634e487b7160e01b600052603260045260246000fd5b6020908102919091010152610aae8284611eff565b925080610aba8161211f565b915050610a51565b509195945050505050565b805160009015801590610ae257508151602110155b610aeb57600080fd5b6000610afa83602001516112c8565b90506000818460000151610b0e9190612080565b9050600080838660200151610b239190611eff565b9050805191506020831015610b3f57826020036101000a820491505b50949350505050565b8051606090610b5657600080fd5b6000610b6583602001516112c8565b90506000818460000151610b799190612080565b905060008167ffffffffffffffff811115610ba457634e487b7160e01b600052604160045260246000fd5b6040519080825280601f01601f191660200182016040528015610bce576020820181803683370190505b5090506000816020019050610b3f848760200151610bec9190611eff565b82856113fc565b60408051602081019091526000815281516060919015610de457600080610c1b600086611476565b60f81c90506001811480610c3257508060ff166003145b15610cf657600185516002610c479190612061565b610c519190612080565b67ffffffffffffffff811115610c7757634e487b7160e01b600052604160045260246000fd5b6040519080825280601f01601f191660200182016040528015610ca1576020820181803683370190505b5092506000610cb1600187611476565b90508084600081518110610cd557634e487b7160e01b600052603260045260246000fd5b60200101906001600160f81b031916908160001a9053506001925050610d68565b600285516002610d069190612061565b610d109190612080565b67ffffffffffffffff811115610d3657634e487b7160e01b600052604160045260246000fd5b6040519080825280601f01601f191660200182016040528015610d60576020820181803683370190505b509250600091505b60ff82165b8351811015610de057610d97610d8660ff851683612080565b610d91906002611eff565b87611476565b848281518110610db757634e487b7160e01b600052603260045260246000fd5b60200101906001600160f81b031916908160001a90535080610dd88161211f565b915050610d6d565b5050505b92915050565b8051600090601514610dfb57600080fd5b610de482610acd565b600080610e1084610982565b90506000610e1d826109a7565b905060608085600080610e2f8b610bf3565b9050805160001415610e4b5760009750505050505050506110fb565b60005b86518110156110f2578151831115610e71576000985050505050505050506110fb565b610ea1878281518110610e9457634e487b7160e01b600052603260045260246000fd5b6020026020010151611513565b955085805190602001208414610ec2576000985050505050505050506110fb565b610ee587828151811061063557634e487b7160e01b600052603260045260246000fd5b9450845160111415610fe4578151831415610f55578c80519060200120610f268660108151811061053057634e487b7160e01b600052603260045260246000fd5b805190602001201415610f44576001985050505050505050506110fb565b6000985050505050505050506110fb565b6000828481518110610f7757634e487b7160e01b600052603260045260246000fd5b016020015160f81c90506010811115610f9c57600099505050505050505050506110fb565b610fcf868260ff1681518110610fc257634e487b7160e01b600052603260045260246000fd5b602002602001015161159b565b9450610fdc600185611eff565b9350506110e0565b845160021415610f4457600061101e6110178760008151811061053057634e487b7160e01b600052603260045260246000fd5b84866115c9565b835190915061102d8286611eff565b1415611090578d8051906020012061105f8760018151811061053057634e487b7160e01b600052603260045260246000fd5b80519060200120141561107e57600199505050505050505050506110fb565b600099505050505050505050506110fb565b806110a757600099505050505050505050506110fb565b6110b18185611eff565b93506110d786600181518110610fc257634e487b7160e01b600052603260045260246000fd5b94506110e09050565b806110ea8161211f565b915050610e4e565b50505050505050505b949350505050565b6001546040516320a9cea560e11b81526000918291829182916001600160a01b03909116906341539d4a9061113c908990600401611c82565b60a06040518083038186803b15801561115457600080fd5b505afa158015611168573d6000803e3d6000fd5b505050506040513d601f19601f8201168201806040525081019061118c9190611a4e565b50935050925092506111e2828b6111a39190612080565b84878d8d8d8d6040516020016111bc9493929190611bba565b604051602081830303815290604052805190602001206116fe909392919063ffffffff16565b6111fe5760405162461bcd60e51b81526004016103cd90611dfa565b9998505050505050505050565b805160009061121c5750600061096a565b6020820151805160001a9060c082101561123b5760009250505061096a565b5060019392505050565b80516000906112565750600061096a565b60008061126684602001516112c8565b84602001516112759190611eff565b905060008460000151856020015161128d9190611eff565b90505b808210156112bf576112a182611353565b6112ab9083611eff565b9150826112b78161211f565b935050611290565b50909392505050565b8051600090811a60808110156112e257600091505061096a565b60b88110806112fd575060c081108015906112fd575060f881105b1561130c57600191505061096a565b60c081101561134157611321600160b8612097565b61132e9060ff1682612080565b611339906001611eff565b91505061096a565b611321600160f8612097565b50919050565b80516000908190811a608081101561136e57600191506113f5565b60b881101561139457611382608082612080565b61138d906001611eff565b91506113f5565b60c08110156113c15760b78103600185019450806020036101000a855104600182018101935050506113f5565b60f88110156113d55761138260c082612080565b60f78103600185019450806020036101000a855104600182018101935050505b5092915050565b8061140657611471565b6020811061143e578251825261141d602084611eff565b925061142a602083611eff565b9150611437602082612080565b9050611406565b6000600161144d836020612080565b61145990610100611f93565b6114639190612080565b845184518216911916178352505b505050565b600061148360028461213a565b156114cb57601082611496600286611f17565b815181106114b457634e487b7160e01b600052603260045260246000fd5b01602001516114c6919060f81c61214e565b611509565b6010826114d9600286611f17565b815181106114f757634e487b7160e01b600052603260045260246000fd5b0160200151611509919060f81c611f2b565b60f81b9392505050565b60606000826000015167ffffffffffffffff81111561154257634e487b7160e01b600052604160045260246000fd5b6040519080825280601f01601f19166020018201604052801561156c576020820181803683370190505b50905080516000141561158057905061096a565b60008160200190506113f584602001518286600001516113fc565b80516000906021146115ac57600080fd5b600080836020015160016115c09190611eff565b51949350505050565b600080806115d686610bf3565b90506000815167ffffffffffffffff81111561160257634e487b7160e01b600052604160045260246000fd5b6040519080825280601f01601f19166020018201604052801561162c576020820181803683370190505b509050845b825161163d9087611eff565b8110156116cc57600087828151811061166657634e487b7160e01b600052603260045260246000fd5b01602001516001600160f81b031916905080836116838985612080565b815181106116a157634e487b7160e01b600052603260045260246000fd5b60200101906001600160f81b031916908160001a9053505080806116c49061211f565b915050611631565b508080519060200120828051906020012014156116ec57815192506116f1565b600092505b50909150505b9392505050565b60006020825161170e919061213a565b1561172b5760405162461bcd60e51b81526004016103cd90611d9d565b60006020835161173b9190611f17565b9050611748816002611f93565b85106117665760405162461bcd60e51b81526004016103cd90611dcb565b60008660205b855181116118045785810151925061178560028961213a565b6117b957818360405160200161179c929190611b7f565b6040516020818303038152906040528051906020012091506117e5565b82826040516020016117cc929190611b7f565b6040516020818303038152906040528051906020012091505b6117f0600289611f17565b97506117fd602082611eff565b905061176c565b509094149695505050505050565b82805461181e906120ea565b90600052602060002090601f0160209004810192826118405760008555611886565b82601f1061185957805160ff1916838001178555611886565b82800160010185558215611886579182015b8281111561188657825182559160200191906001019061186b565b506118929291506118b0565b5090565b604051806040016040528060008152602001600081525090565b5b8082111561189257600081556001016118b1565b60006118d86118d384611ed7565b611ead565b90508281528383830111156118ec57600080fd5b828260208301376000602084830101529392505050565b600060208284031215611914578081fd5b81356116f7816121b2565b600080600080600060808688031215611936578081fd5b8535611941816121b2565b94506020860135611951816121b2565b935060408601359250606086013567ffffffffffffffff80821115611974578283fd5b818801915088601f830112611987578283fd5b813581811115611995578384fd5b8960208285010111156119a6578384fd5b9699959850939650602001949392505050565b600080600080608085870312156119ce578384fd5b84356119d9816121b2565b935060208501356119e9816121b2565b925060408501359150606085013567ffffffffffffffff811115611a0b578182fd5b8501601f81018713611a1b578182fd5b611a2a878235602084016118c5565b91505092959194509250565b600060208284031215611a47578081fd5b5035919050565b600080600080600060a08688031215611a65578081fd5b855194506020860151935060408601519250606086015191506080860151611a8c816121b2565b809150509295509295909350565b600060208284031215611aab578081fd5b813567ffffffffffffffff811115611ac1578182fd5b8201601f81018413611ad1578182fd5b6110fb848235602084016118c5565b600060208284031215611af1578081fd5b815167ffffffffffffffff811115611b07578182fd5b8201601f81018413611b17578182fd5b8051611b256118d382611ed7565b818152856020838501011115611b39578384fd5b611b4a8260208301602086016120ba565b95945050505050565b60008151808452611b6b8160208601602086016120ba565b601f01601f19169290920160200192915050565b918252602082015260400190565b60008482528351611ba58160208501602088016120ba565b60209201918201929092526040019392505050565b93845260208401929092526040830152606082015260800190565b6001600160a01b0391909116815260200190565b6001600160a01b0386811682528581166020830152841660408201526060810183905260a060808201819052600090611c2490830184611b53565b979650505050505050565b6001600160a01b039384168152919092166020820152604081019190915260600190565b6001600160a01b03831681526040602082018190526000906110fb90830184611b53565b901515815260200190565b90815260200190565b6000838252604060208301526110fb6040830184611b53565b6001600160e01b031991909116815260200190565b6000602082526116f76020830184611b53565b6020808252602a908201527f467842617365526f6f7454756e6e656c3a204348494c445f54554e4e454c5f4160408201526913149150511657d4d15560b21b606082015260800190565b60208082526023908201527f4678526f6f7454756e6e656c3a20494e56414c49445f524543454950545f505260408201526227a7a360e91b606082015260800190565b60208082526024908201527f4678526f6f7454756e6e656c3a20455849545f414c52454144595f50524f434560408201526314d4d15160e21b606082015260800190565b602080825260149082015273092dcecc2d8d2c840e0e4dedecc40d8cadccee8d60631b604082015260600190565b6020808252601590820152744c65616620696e64657820697320746f6f2062696760581b604082015260600190565b6020808252601c908201527f4678526f6f7454756e6e656c3a20494e56414c49445f48454144455200000000604082015260600190565b6020808252601f908201527f4678526f6f7454756e6e656c3a20494e56414c49445f5349474e415455524500604082015260600190565b60208082526025908201527f4678526f6f7454756e6e656c3a20494e56414c49445f46585f4348494c445f54604082015264155393915360da1b606082015260800190565b60405181810167ffffffffffffffff81118282101715611ecf57611ecf61219c565b604052919050565b600067ffffffffffffffff821115611ef157611ef161219c565b50601f01601f191660200190565b60008219821115611f1257611f12612170565b500190565b600082611f2657611f26612186565b500490565b600060ff831680611f3e57611f3e612186565b8060ff84160491505092915050565b80825b6001808611611f5f5750611f8a565b818704821115611f7157611f71612170565b80861615611f7e57918102915b9490941c938002611f50565b94509492505050565b60006116f76000198484600082611fac575060016116f7565b81611fb9575060006116f7565b8160018114611fcf5760028114611fd957612006565b60019150506116f7565b60ff841115611fea57611fea612170565b6001841b91508482111561200057612000612170565b506116f7565b5060208310610133831016604e8410600b8410161715612039575081810a8381111561203457612034612170565b6116f7565b6120468484846001611f4d565b80860482111561205857612058612170565b02949350505050565b600081600019048311821515161561207b5761207b612170565b500290565b60008282101561209257612092612170565b500390565b600060ff821660ff8416808210156120b1576120b1612170565b90039392505050565b60005b838110156120d55781810151838201526020016120bd565b838111156120e4576000848401525b50505050565b6002810460018216806120fe57607f821691505b6020821081141561134d57634e487b7160e01b600052602260045260246000fd5b600060001982141561213357612133612170565b5060010190565b60008261214957612149612186565b500690565b600060ff83168061216157612161612186565b8060ff84160691505092915050565b634e487b7160e01b600052601160045260246000fd5b634e487b7160e01b600052601260045260246000fd5b634e487b7160e01b600052604160045260246000fd5b6001600160a01b03811681146121c757600080fd5b5056fea2646970667358221220522683925726fab353e1fedbd72ac601c86ee5eb07a3f29846909a91b2ea032964736f6c63430008000033",
  "linkReferences": {},
  "deployedLinkReferences": {}
}